{
  "address": "0xCf7Ed3AccA5a467e9e704C703E8D87F634fB0Fc9",
  "abi": [
    {
      "inputs": [
        {
          "internalType": "contract IVotes",
          "name": "_token",
          "type": "address"
        },
        {
          "internalType": "contract TimelockController",
          "name": "_timelock",
          "type": "address"
        },
        {
          "internalType": "uint256",
          "name": "_quorumPercentage",
          "type": "uint256"
        },
        {
          "internalType": "uint256",
          "name": "_votingPeriod",
          "type": "uint256"
        },
        {
          "internalType": "uint256",
          "name": "_votingDelay",
          "type": "uint256"
        }
      ],
      "stateMutability": "nonpayable",
      "type": "constructor"
    },
    {
      "inputs": [],
      "name": "Empty",
      "type": "error"
    },
    {
      "anonymous": false,
      "inputs": [
        {
          "indexed": false,
          "internalType": "uint256",
          "name": "proposalId",
          "type": "uint256"
        }
      ],
      "name": "ProposalCanceled",
      "type": "event"
    },
    {
      "anonymous": false,
      "inputs": [
        {
          "indexed": false,
          "internalType": "uint256",
          "name": "proposalId",
          "type": "uint256"
        },
        {
          "indexed": false,
          "internalType": "address",
          "name": "proposer",
          "type": "address"
        },
        {
          "indexed": false,
          "internalType": "address[]",
          "name": "targets",
          "type": "address[]"
        },
        {
          "indexed": false,
          "internalType": "uint256[]",
          "name": "values",
          "type": "uint256[]"
        },
        {
          "indexed": false,
          "internalType": "string[]",
          "name": "signatures",
          "type": "string[]"
        },
        {
          "indexed": false,
          "internalType": "bytes[]",
          "name": "calldatas",
          "type": "bytes[]"
        },
        {
          "indexed": false,
          "internalType": "uint256",
          "name": "startBlock",
          "type": "uint256"
        },
        {
          "indexed": false,
          "internalType": "uint256",
          "name": "endBlock",
          "type": "uint256"
        },
        {
          "indexed": false,
          "internalType": "string",
          "name": "description",
          "type": "string"
        }
      ],
      "name": "ProposalCreated",
      "type": "event"
    },
    {
      "anonymous": false,
      "inputs": [
        {
          "indexed": false,
          "internalType": "uint256",
          "name": "proposalId",
          "type": "uint256"
        }
      ],
      "name": "ProposalExecuted",
      "type": "event"
    },
    {
      "anonymous": false,
      "inputs": [
        {
          "indexed": false,
          "internalType": "uint256",
          "name": "proposalId",
          "type": "uint256"
        },
        {
          "indexed": false,
          "internalType": "uint256",
          "name": "eta",
          "type": "uint256"
        }
      ],
      "name": "ProposalQueued",
      "type": "event"
    },
    {
      "anonymous": false,
      "inputs": [
        {
          "indexed": false,
          "internalType": "uint256",
          "name": "oldProposalThreshold",
          "type": "uint256"
        },
        {
          "indexed": false,
          "internalType": "uint256",
          "name": "newProposalThreshold",
          "type": "uint256"
        }
      ],
      "name": "ProposalThresholdSet",
      "type": "event"
    },
    {
      "anonymous": false,
      "inputs": [
        {
          "indexed": false,
          "internalType": "uint256",
          "name": "oldQuorumNumerator",
          "type": "uint256"
        },
        {
          "indexed": false,
          "internalType": "uint256",
          "name": "newQuorumNumerator",
          "type": "uint256"
        }
      ],
      "name": "QuorumNumeratorUpdated",
      "type": "event"
    },
    {
      "anonymous": false,
      "inputs": [
        {
          "indexed": false,
          "internalType": "address",
          "name": "oldTimelock",
          "type": "address"
        },
        {
          "indexed": false,
          "internalType": "address",
          "name": "newTimelock",
          "type": "address"
        }
      ],
      "name": "TimelockChange",
      "type": "event"
    },
    {
      "anonymous": false,
      "inputs": [
        {
          "indexed": true,
          "internalType": "address",
          "name": "voter",
          "type": "address"
        },
        {
          "indexed": false,
          "internalType": "uint256",
          "name": "proposalId",
          "type": "uint256"
        },
        {
          "indexed": false,
          "internalType": "uint8",
          "name": "support",
          "type": "uint8"
        },
        {
          "indexed": false,
          "internalType": "uint256",
          "name": "weight",
          "type": "uint256"
        },
        {
          "indexed": false,
          "internalType": "string",
          "name": "reason",
          "type": "string"
        }
      ],
      "name": "VoteCast",
      "type": "event"
    },
    {
      "anonymous": false,
      "inputs": [
        {
          "indexed": true,
          "internalType": "address",
          "name": "voter",
          "type": "address"
        },
        {
          "indexed": false,
          "internalType": "uint256",
          "name": "proposalId",
          "type": "uint256"
        },
        {
          "indexed": false,
          "internalType": "uint8",
          "name": "support",
          "type": "uint8"
        },
        {
          "indexed": false,
          "internalType": "uint256",
          "name": "weight",
          "type": "uint256"
        },
        {
          "indexed": false,
          "internalType": "string",
          "name": "reason",
          "type": "string"
        },
        {
          "indexed": false,
          "internalType": "bytes",
          "name": "params",
          "type": "bytes"
        }
      ],
      "name": "VoteCastWithParams",
      "type": "event"
    },
    {
      "anonymous": false,
      "inputs": [
        {
          "indexed": false,
          "internalType": "uint256",
          "name": "oldVotingDelay",
          "type": "uint256"
        },
        {
          "indexed": false,
          "internalType": "uint256",
          "name": "newVotingDelay",
          "type": "uint256"
        }
      ],
      "name": "VotingDelaySet",
      "type": "event"
    },
    {
      "anonymous": false,
      "inputs": [
        {
          "indexed": false,
          "internalType": "uint256",
          "name": "oldVotingPeriod",
          "type": "uint256"
        },
        {
          "indexed": false,
          "internalType": "uint256",
          "name": "newVotingPeriod",
          "type": "uint256"
        }
      ],
      "name": "VotingPeriodSet",
      "type": "event"
    },
    {
      "inputs": [],
      "name": "BALLOT_TYPEHASH",
      "outputs": [
        {
          "internalType": "bytes32",
          "name": "",
          "type": "bytes32"
        }
      ],
      "stateMutability": "view",
      "type": "function"
    },
    {
      "inputs": [],
      "name": "COUNTING_MODE",
      "outputs": [
        {
          "internalType": "string",
          "name": "",
          "type": "string"
        }
      ],
      "stateMutability": "pure",
      "type": "function"
    },
    {
      "inputs": [],
      "name": "EXTENDED_BALLOT_TYPEHASH",
      "outputs": [
        {
          "internalType": "bytes32",
          "name": "",
          "type": "bytes32"
        }
      ],
      "stateMutability": "view",
      "type": "function"
    },
    {
      "inputs": [],
      "name": "PROPOSAL_FEE",
      "outputs": [
        {
          "internalType": "uint256",
          "name": "",
          "type": "uint256"
        }
      ],
      "stateMutability": "view",
      "type": "function"
    },
    {
      "inputs": [
        {
          "internalType": "uint256",
          "name": "proposalId",
          "type": "uint256"
        },
        {
          "internalType": "uint8",
          "name": "support",
          "type": "uint8"
        }
      ],
      "name": "castVote",
      "outputs": [
        {
          "internalType": "uint256",
          "name": "",
          "type": "uint256"
        }
      ],
      "stateMutability": "nonpayable",
      "type": "function"
    },
    {
      "inputs": [
        {
          "internalType": "uint256",
          "name": "proposalId",
          "type": "uint256"
        },
        {
          "internalType": "uint8",
          "name": "support",
          "type": "uint8"
        },
        {
          "internalType": "uint8",
          "name": "v",
          "type": "uint8"
        },
        {
          "internalType": "bytes32",
          "name": "r",
          "type": "bytes32"
        },
        {
          "internalType": "bytes32",
          "name": "s",
          "type": "bytes32"
        }
      ],
      "name": "castVoteBySig",
      "outputs": [
        {
          "internalType": "uint256",
          "name": "",
          "type": "uint256"
        }
      ],
      "stateMutability": "nonpayable",
      "type": "function"
    },
    {
      "inputs": [
        {
          "internalType": "uint256",
          "name": "proposalId",
          "type": "uint256"
        },
        {
          "internalType": "uint8",
          "name": "support",
          "type": "uint8"
        },
        {
          "internalType": "string",
          "name": "reason",
          "type": "string"
        }
      ],
      "name": "castVoteWithReason",
      "outputs": [
        {
          "internalType": "uint256",
          "name": "",
          "type": "uint256"
        }
      ],
      "stateMutability": "nonpayable",
      "type": "function"
    },
    {
      "inputs": [
        {
          "internalType": "uint256",
          "name": "proposalId",
          "type": "uint256"
        },
        {
          "internalType": "uint8",
          "name": "support",
          "type": "uint8"
        },
        {
          "internalType": "string",
          "name": "reason",
          "type": "string"
        },
        {
          "internalType": "bytes",
          "name": "params",
          "type": "bytes"
        }
      ],
      "name": "castVoteWithReasonAndParams",
      "outputs": [
        {
          "internalType": "uint256",
          "name": "",
          "type": "uint256"
        }
      ],
      "stateMutability": "nonpayable",
      "type": "function"
    },
    {
      "inputs": [
        {
          "internalType": "uint256",
          "name": "proposalId",
          "type": "uint256"
        },
        {
          "internalType": "uint8",
          "name": "support",
          "type": "uint8"
        },
        {
          "internalType": "string",
          "name": "reason",
          "type": "string"
        },
        {
          "internalType": "bytes",
          "name": "params",
          "type": "bytes"
        },
        {
          "internalType": "uint8",
          "name": "v",
          "type": "uint8"
        },
        {
          "internalType": "bytes32",
          "name": "r",
          "type": "bytes32"
        },
        {
          "internalType": "bytes32",
          "name": "s",
          "type": "bytes32"
        }
      ],
      "name": "castVoteWithReasonAndParamsBySig",
      "outputs": [
        {
          "internalType": "uint256",
          "name": "",
          "type": "uint256"
        }
      ],
      "stateMutability": "nonpayable",
      "type": "function"
    },
    {
      "inputs": [
        {
          "internalType": "address[]",
          "name": "targets",
          "type": "address[]"
        },
        {
          "internalType": "uint256[]",
          "name": "values",
          "type": "uint256[]"
        },
        {
          "internalType": "bytes[]",
          "name": "calldatas",
          "type": "bytes[]"
        },
        {
          "internalType": "bytes32",
          "name": "descriptionHash",
          "type": "bytes32"
        }
      ],
      "name": "execute",
      "outputs": [
        {
          "internalType": "uint256",
          "name": "",
          "type": "uint256"
        }
      ],
      "stateMutability": "payable",
      "type": "function"
    },
    {
      "inputs": [
        {
          "internalType": "address",
          "name": "user",
          "type": "address"
        }
      ],
      "name": "getPatentClaims",
      "outputs": [
        {
          "internalType": "uint256[]",
          "name": "",
          "type": "uint256[]"
        }
      ],
      "stateMutability": "view",
      "type": "function"
    },
    {
      "inputs": [
        {
          "internalType": "address",
          "name": "account",
          "type": "address"
        },
        {
          "internalType": "uint256",
          "name": "blockNumber",
          "type": "uint256"
        }
      ],
      "name": "getVotes",
      "outputs": [
        {
          "internalType": "uint256",
          "name": "",
          "type": "uint256"
        }
      ],
      "stateMutability": "view",
      "type": "function"
    },
    {
      "inputs": [
        {
          "internalType": "address",
          "name": "account",
          "type": "address"
        },
        {
          "internalType": "uint256",
          "name": "blockNumber",
          "type": "uint256"
        },
        {
          "internalType": "bytes",
          "name": "params",
          "type": "bytes"
        }
      ],
      "name": "getVotesWithParams",
      "outputs": [
        {
          "internalType": "uint256",
          "name": "",
          "type": "uint256"
        }
      ],
      "stateMutability": "view",
      "type": "function"
    },
    {
      "inputs": [
        {
          "internalType": "uint256",
          "name": "proposalId",
          "type": "uint256"
        },
        {
          "internalType": "address",
          "name": "account",
          "type": "address"
        }
      ],
      "name": "hasVoted",
      "outputs": [
        {
          "internalType": "bool",
          "name": "",
          "type": "bool"
        }
      ],
      "stateMutability": "view",
      "type": "function"
    },
    {
      "inputs": [
        {
          "internalType": "address[]",
          "name": "targets",
          "type": "address[]"
        },
        {
          "internalType": "uint256[]",
          "name": "values",
          "type": "uint256[]"
        },
        {
          "internalType": "bytes[]",
          "name": "calldatas",
          "type": "bytes[]"
        },
        {
          "internalType": "bytes32",
          "name": "descriptionHash",
          "type": "bytes32"
        }
      ],
      "name": "hashProposal",
      "outputs": [
        {
          "internalType": "uint256",
          "name": "",
          "type": "uint256"
        }
      ],
      "stateMutability": "pure",
      "type": "function"
    },
    {
      "inputs": [
        {
          "internalType": "address",
          "name": "",
          "type": "address"
        }
      ],
      "name": "isDAOMember",
      "outputs": [
        {
          "internalType": "bool",
          "name": "",
          "type": "bool"
        }
      ],
      "stateMutability": "view",
      "type": "function"
    },
    {
      "inputs": [],
      "name": "name",
      "outputs": [
        {
          "internalType": "string",
          "name": "",
          "type": "string"
        }
      ],
      "stateMutability": "view",
      "type": "function"
    },
    {
      "inputs": [
        {
          "internalType": "address",
          "name": "",
          "type": "address"
        },
        {
          "internalType": "address",
          "name": "",
          "type": "address"
        },
        {
          "internalType": "uint256[]",
          "name": "",
          "type": "uint256[]"
        },
        {
          "internalType": "uint256[]",
          "name": "",
          "type": "uint256[]"
        },
        {
          "internalType": "bytes",
          "name": "",
          "type": "bytes"
        }
      ],
      "name": "onERC1155BatchReceived",
      "outputs": [
        {
          "internalType": "bytes4",
          "name": "",
          "type": "bytes4"
        }
      ],
      "stateMutability": "nonpayable",
      "type": "function"
    },
    {
      "inputs": [
        {
          "internalType": "address",
          "name": "",
          "type": "address"
        },
        {
          "internalType": "address",
          "name": "",
          "type": "address"
        },
        {
          "internalType": "uint256",
          "name": "",
          "type": "uint256"
        },
        {
          "internalType": "uint256",
          "name": "",
          "type": "uint256"
        },
        {
          "internalType": "bytes",
          "name": "",
          "type": "bytes"
        }
      ],
      "name": "onERC1155Received",
      "outputs": [
        {
          "internalType": "bytes4",
          "name": "",
          "type": "bytes4"
        }
      ],
      "stateMutability": "nonpayable",
      "type": "function"
    },
    {
      "inputs": [
        {
          "internalType": "address",
          "name": "",
          "type": "address"
        },
        {
          "internalType": "address",
          "name": "",
          "type": "address"
        },
        {
          "internalType": "uint256",
          "name": "",
          "type": "uint256"
        },
        {
          "internalType": "bytes",
          "name": "",
          "type": "bytes"
        }
      ],
      "name": "onERC721Received",
      "outputs": [
        {
          "internalType": "bytes4",
          "name": "",
          "type": "bytes4"
        }
      ],
      "stateMutability": "nonpayable",
      "type": "function"
    },
    {
      "inputs": [
        {
          "internalType": "uint256",
          "name": "proposalId",
          "type": "uint256"
        }
      ],
      "name": "proposalDeadline",
      "outputs": [
        {
          "internalType": "uint256",
          "name": "",
          "type": "uint256"
        }
      ],
      "stateMutability": "view",
      "type": "function"
    },
    {
      "inputs": [
        {
          "internalType": "uint256",
          "name": "proposalId",
          "type": "uint256"
        }
      ],
      "name": "proposalEta",
      "outputs": [
        {
          "internalType": "uint256",
          "name": "",
          "type": "uint256"
        }
      ],
      "stateMutability": "view",
      "type": "function"
    },
    {
      "inputs": [
        {
          "internalType": "uint256",
          "name": "proposalId",
          "type": "uint256"
        }
      ],
      "name": "proposalSnapshot",
      "outputs": [
        {
          "internalType": "uint256",
          "name": "",
          "type": "uint256"
        }
      ],
      "stateMutability": "view",
      "type": "function"
    },
    {
      "inputs": [],
      "name": "proposalThreshold",
      "outputs": [
        {
          "internalType": "uint256",
          "name": "",
          "type": "uint256"
        }
      ],
      "stateMutability": "view",
      "type": "function"
    },
    {
      "inputs": [
        {
          "internalType": "uint256",
          "name": "proposalId",
          "type": "uint256"
        }
      ],
      "name": "proposalVotes",
      "outputs": [
        {
          "internalType": "uint256",
          "name": "againstVotes",
          "type": "uint256"
        },
        {
          "internalType": "uint256",
          "name": "forVotes",
          "type": "uint256"
        },
        {
          "internalType": "uint256",
          "name": "abstainVotes",
          "type": "uint256"
        }
      ],
      "stateMutability": "view",
      "type": "function"
    },
    {
      "inputs": [
        {
          "internalType": "address[]",
          "name": "targets",
          "type": "address[]"
        },
        {
          "internalType": "uint256[]",
          "name": "values",
          "type": "uint256[]"
        },
        {
          "internalType": "bytes[]",
          "name": "calldatas",
          "type": "bytes[]"
        },
        {
          "internalType": "string",
          "name": "description",
          "type": "string"
        }
      ],
      "name": "propose",
      "outputs": [
        {
          "internalType": "uint256",
          "name": "",
          "type": "uint256"
        }
      ],
      "stateMutability": "nonpayable",
      "type": "function"
    },
    {
      "inputs": [],
      "name": "proposeMember",
      "outputs": [],
      "stateMutability": "nonpayable",
      "type": "function"
    },
    {
      "inputs": [
        {
          "internalType": "uint256",
          "name": "dealId",
          "type": "uint256"
        }
      ],
      "name": "proposePatent",
      "outputs": [],
      "stateMutability": "payable",
      "type": "function"
    },
    {
      "inputs": [
        {
          "internalType": "address[]",
          "name": "targets",
          "type": "address[]"
        },
        {
          "internalType": "uint256[]",
          "name": "values",
          "type": "uint256[]"
        },
        {
          "internalType": "bytes[]",
          "name": "calldatas",
          "type": "bytes[]"
        },
        {
          "internalType": "bytes32",
          "name": "descriptionHash",
          "type": "bytes32"
        }
      ],
      "name": "queue",
      "outputs": [
        {
          "internalType": "uint256",
          "name": "",
          "type": "uint256"
        }
      ],
      "stateMutability": "nonpayable",
      "type": "function"
    },
    {
      "inputs": [
        {
          "internalType": "uint256",
          "name": "blockNumber",
          "type": "uint256"
        }
      ],
      "name": "quorum",
      "outputs": [
        {
          "internalType": "uint256",
          "name": "",
          "type": "uint256"
        }
      ],
      "stateMutability": "view",
      "type": "function"
    },
    {
      "inputs": [],
      "name": "quorumDenominator",
      "outputs": [
        {
          "internalType": "uint256",
          "name": "",
          "type": "uint256"
        }
      ],
      "stateMutability": "view",
      "type": "function"
    },
    {
      "inputs": [
        {
          "internalType": "uint256",
          "name": "blockNumber",
          "type": "uint256"
        }
      ],
      "name": "quorumNumerator",
      "outputs": [
        {
          "internalType": "uint256",
          "name": "",
          "type": "uint256"
        }
      ],
      "stateMutability": "view",
      "type": "function"
    },
    {
      "inputs": [],
      "name": "quorumNumerator",
      "outputs": [
        {
          "internalType": "uint256",
          "name": "",
          "type": "uint256"
        }
      ],
      "stateMutability": "view",
      "type": "function"
    },
    {
      "inputs": [
        {
          "internalType": "address",
          "name": "target",
          "type": "address"
        },
        {
          "internalType": "uint256",
          "name": "value",
          "type": "uint256"
        },
        {
          "internalType": "bytes",
          "name": "data",
          "type": "bytes"
        }
      ],
      "name": "relay",
      "outputs": [],
      "stateMutability": "payable",
      "type": "function"
    },
    {
      "inputs": [
        {
          "internalType": "uint256",
          "name": "newProposalThreshold",
          "type": "uint256"
        }
      ],
      "name": "setProposalThreshold",
      "outputs": [],
      "stateMutability": "nonpayable",
      "type": "function"
    },
    {
      "inputs": [
        {
          "internalType": "uint256",
          "name": "newVotingDelay",
          "type": "uint256"
        }
      ],
      "name": "setVotingDelay",
      "outputs": [],
      "stateMutability": "nonpayable",
      "type": "function"
    },
    {
      "inputs": [
        {
          "internalType": "uint256",
          "name": "newVotingPeriod",
          "type": "uint256"
        }
      ],
      "name": "setVotingPeriod",
      "outputs": [],
      "stateMutability": "nonpayable",
      "type": "function"
    },
    {
      "inputs": [
        {
          "internalType": "uint256",
          "name": "proposalId",
          "type": "uint256"
        }
      ],
      "name": "state",
      "outputs": [
        {
          "internalType": "enum IGovernor.ProposalState",
          "name": "",
          "type": "uint8"
        }
      ],
      "stateMutability": "view",
      "type": "function"
    },
    {
      "inputs": [
        {
          "internalType": "bytes4",
          "name": "interfaceId",
          "type": "bytes4"
        }
      ],
      "name": "supportsInterface",
      "outputs": [
        {
          "internalType": "bool",
          "name": "",
          "type": "bool"
        }
      ],
      "stateMutability": "view",
      "type": "function"
    },
    {
      "inputs": [],
      "name": "timelock",
      "outputs": [
        {
          "internalType": "address",
          "name": "",
          "type": "address"
        }
      ],
      "stateMutability": "view",
      "type": "function"
    },
    {
      "inputs": [],
      "name": "token",
      "outputs": [
        {
          "internalType": "contract IVotes",
          "name": "",
          "type": "address"
        }
      ],
      "stateMutability": "view",
      "type": "function"
    },
    {
      "inputs": [
        {
          "internalType": "uint256",
          "name": "newQuorumNumerator",
          "type": "uint256"
        }
      ],
      "name": "updateQuorumNumerator",
      "outputs": [],
      "stateMutability": "nonpayable",
      "type": "function"
    },
    {
      "inputs": [
        {
          "internalType": "contract TimelockController",
          "name": "newTimelock",
          "type": "address"
        }
      ],
      "name": "updateTimelock",
      "outputs": [],
      "stateMutability": "nonpayable",
      "type": "function"
    },
    {
      "inputs": [
        {
          "internalType": "address",
          "name": "",
          "type": "address"
        },
        {
          "internalType": "uint256",
          "name": "",
          "type": "uint256"
        }
      ],
      "name": "userToPatentClaims",
      "outputs": [
        {
          "internalType": "uint256",
          "name": "",
          "type": "uint256"
        }
      ],
      "stateMutability": "view",
      "type": "function"
    },
    {
      "inputs": [],
      "name": "version",
      "outputs": [
        {
          "internalType": "string",
          "name": "",
          "type": "string"
        }
      ],
      "stateMutability": "view",
      "type": "function"
    },
    {
      "inputs": [],
      "name": "votingDelay",
      "outputs": [
        {
          "internalType": "uint256",
          "name": "",
          "type": "uint256"
        }
      ],
      "stateMutability": "view",
      "type": "function"
    },
    {
      "inputs": [],
      "name": "votingPeriod",
      "outputs": [
        {
          "internalType": "uint256",
          "name": "",
          "type": "uint256"
        }
      ],
      "stateMutability": "view",
      "type": "function"
    },
    {
      "stateMutability": "payable",
      "type": "receive"
    }
  ],
  "transactionHash": "0x0f1940275eb88086600a0584c1c81e14dd0c221e41881476d3cd07bd79e552cb",
  "args": [
    "0x5FbDB2315678afecb367f032d93F642f64180aa3",
    "0x9fE46736679d2D9a65F0992F2272dE9f3c7fa6e0",
    50,
    5,
    1
  ],
  "numDeployments": 1,
  "solcInputHash": "7aff6f77546c71aa2c644653492fdf1f",
  "bytecode": "0x6101606040523480156200001257600080fd5b506040516200828838038062008288833981810160405281019062000038919062000da3565b838386838560006040518060400160405280601081526020017f476f7665726e6f72436f6e7472616374000000000000000000000000000000008152508062000086620001ed60201b60201c565b60008280519060200120905060008280519060200120905060007f8b73c3c69bb8fe3d512ecc4cf759cc79239f7b179b0ffacaa9a75d522b39400f90508260e081815250508161010081815250504660a08181525050620000ef8184846200022a60201b60201c565b608081815250503073ffffffffffffffffffffffffffffffffffffffff1660c08173ffffffffffffffffffffffffffffffffffffffff1681525050806101208181525050505050505080600090805190602001906200015092919062000be1565b505062000163836200026660201b60201c565b6200017482620002ad60201b60201c565b62000185816200033a60201b60201c565b5050508073ffffffffffffffffffffffffffffffffffffffff166101408173ffffffffffffffffffffffffffffffffffffffff168152505050620001cf816200038160201b60201c565b50620001e1816200056060201b60201c565b505050505050620012f7565b60606040518060400160405280600181526020017f3100000000000000000000000000000000000000000000000000000000000000815250905090565b600083838346306040516020016200024795949392919062000e68565b6040516020818303038152906040528051906020012090509392505050565b7fc565b045403dc03c2eea82b81a0465edad9e2e7fc4d97e11421c209da93d7a93600454826040516200029b92919062000ec5565b60405180910390a18060048190555050565b60008111620002f3576040517f08c379a0000000000000000000000000000000000000000000000000000000008152600401620002ea9062000f79565b60405180910390fd5b7f7e3f7f0708a84de9203036abaa450dccc85ad5ff52f78c170f3edb55cf5e8828600554826040516200032892919062000ec5565b60405180910390a18060058190555050565b7fccb45da8d5717e6c4544694297c4ba5cf151d455c9bb0ed4fc7a38411bc05461600654826040516200036f92919062000ec5565b60405180910390a18060068190555050565b620003916200060160201b60201c565b811115620003d6576040517f08c379a0000000000000000000000000000000000000000000000000000000008152600401620003cd9062001037565b60405180910390fd5b6000620003e86200060a60201b60201c565b9050600081141580156200040457506000600960000180549050145b15620005045760096000016040518060400160405280600063ffffffff1681526020016200043d846200066060201b620021f41760201c565b7bffffffffffffffffffffffffffffffffffffffffffffffffffffffff168152509080600181540180825580915050600190039060005260206000200160009091909190915060008201518160000160006101000a81548163ffffffff021916908363ffffffff16021790555060208201518160000160046101000a8154817bffffffffffffffffffffffffffffffffffffffffffffffffffffffff02191690837bffffffffffffffffffffffffffffffffffffffffffffffffffffffff16021790555050505b6200051f826009620006ce60201b6200225f1790919060201c565b50507f0553476bf02ef2726e8ce5ced78d63e26e602e4a2257b1f559418e24b463399781836040516200055492919062000ec5565b60405180910390a15050565b7f08f74ea46ef7894f65eabfb5e6e695de773a000b47c529ab559178069b226401600a60009054906101000a900473ffffffffffffffffffffffffffffffffffffffff1682604051620005b592919062001059565b60405180910390a180600a60006101000a81548173ffffffffffffffffffffffffffffffffffffffff021916908373ffffffffffffffffffffffffffffffffffffffff16021790555050565b60006064905090565b6000806009600001805490501462000657576200063360096200075e60201b620022cd1760201c565b7bffffffffffffffffffffffffffffffffffffffffffffffffffffffff166200065b565b6008545b905090565b60007bffffffffffffffffffffffffffffffffffffffffffffffffffffffff8016821115620006c6576040517f08c379a0000000000000000000000000000000000000000000000000000000008152600401620006bd90620010fc565b60405180910390fd5b819050919050565b6000806200071184600001620006ef43620007d460201b620023371760201c565b62000705866200066060201b620021f41760201c565b6200082a60201b60201c565b817bffffffffffffffffffffffffffffffffffffffffffffffffffffffff169150807bffffffffffffffffffffffffffffffffffffffffffffffffffffffff169050915091509250929050565b6000808260000180549050905060008114620007c95762000797836000016001836200078b91906200114d565b62000bcc60201b60201c565b60000160049054906101000a90047bffffffffffffffffffffffffffffffffffffffffffffffffffffffff16620007cc565b60005b915050919050565b600063ffffffff801682111562000822576040517f08c379a00000000000000000000000000000000000000000000000000000000081526004016200081990620011fe565b60405180910390fd5b819050919050565b600080600085805490509050600081111562000adc57600062000862876001846200085691906200114d565b62000bcc60201b60201c565b6040518060400160405290816000820160009054906101000a900463ffffffff1663ffffffff1663ffffffff1681526020016000820160049054906101000a90047bffffffffffffffffffffffffffffffffffffffffffffffffffffffff167bffffffffffffffffffffffffffffffffffffffffffffffffffffffff167bffffffffffffffffffffffffffffffffffffffffffffffffffffffff168152505090508563ffffffff16816000015163ffffffff16111562000959576040517f08c379a0000000000000000000000000000000000000000000000000000000008152600401620009509062001270565b60405180910390fd5b8563ffffffff16816000015163ffffffff161415620009ea578462000993886001856200098791906200114d565b62000bcc60201b60201c565b60000160046101000a8154817bffffffffffffffffffffffffffffffffffffffffffffffffffffffff02191690837bffffffffffffffffffffffffffffffffffffffffffffffffffffffff16021790555062000aca565b8660405180604001604052808863ffffffff168152602001877bffffffffffffffffffffffffffffffffffffffffffffffffffffffff168152509080600181540180825580915050600190039060005260206000200160009091909190915060008201518160000160006101000a81548163ffffffff021916908363ffffffff16021790555060208201518160000160046101000a8154817bffffffffffffffffffffffffffffffffffffffffffffffffffffffff02191690837bffffffffffffffffffffffffffffffffffffffffffffffffffffffff16021790555050505b80602001518593509350505062000bc4565b8560405180604001604052808763ffffffff168152602001867bffffffffffffffffffffffffffffffffffffffffffffffffffffffff168152509080600181540180825580915050600190039060005260206000200160009091909190915060008201518160000160006101000a81548163ffffffff021916908363ffffffff16021790555060208201518160000160046101000a8154817bffffffffffffffffffffffffffffffffffffffffffffffffffffffff02191690837bffffffffffffffffffffffffffffffffffffffffffffffffffffffff160217905550505060008492509250505b935093915050565b60008260005281602060002001905092915050565b82805462000bef90620012c1565b90600052602060002090601f01602090048101928262000c13576000855562000c5f565b82601f1062000c2e57805160ff191683800117855562000c5f565b8280016001018555821562000c5f579182015b8281111562000c5e57825182559160200191906001019062000c41565b5b50905062000c6e919062000c72565b5090565b5b8082111562000c8d57600081600090555060010162000c73565b5090565b600080fd5b600073ffffffffffffffffffffffffffffffffffffffff82169050919050565b600062000cc38262000c96565b9050919050565b600062000cd78262000cb6565b9050919050565b62000ce98162000cca565b811462000cf557600080fd5b50565b60008151905062000d098162000cde565b92915050565b600062000d1c8262000c96565b9050919050565b600062000d308262000d0f565b9050919050565b62000d428162000d23565b811462000d4e57600080fd5b50565b60008151905062000d628162000d37565b92915050565b6000819050919050565b62000d7d8162000d68565b811462000d8957600080fd5b50565b60008151905062000d9d8162000d72565b92915050565b600080600080600060a0868803121562000dc25762000dc162000c91565b5b600062000dd28882890162000cf8565b955050602062000de58882890162000d51565b945050604062000df88882890162000d8c565b935050606062000e0b8882890162000d8c565b925050608062000e1e8882890162000d8c565b9150509295509295909350565b6000819050919050565b62000e408162000e2b565b82525050565b62000e518162000d68565b82525050565b62000e628162000cb6565b82525050565b600060a08201905062000e7f600083018862000e35565b62000e8e602083018762000e35565b62000e9d604083018662000e35565b62000eac606083018562000e46565b62000ebb608083018462000e57565b9695505050505050565b600060408201905062000edc600083018562000e46565b62000eeb602083018462000e46565b9392505050565b600082825260208201905092915050565b7f476f7665726e6f7253657474696e67733a20766f74696e6720706572696f642060008201527f746f6f206c6f7700000000000000000000000000000000000000000000000000602082015250565b600062000f6160278362000ef2565b915062000f6e8262000f03565b604082019050919050565b6000602082019050818103600083015262000f948162000f52565b9050919050565b7f476f7665726e6f72566f74657351756f72756d4672616374696f6e3a2071756f60008201527f72756d4e756d657261746f72206f7665722071756f72756d44656e6f6d696e6160208201527f746f720000000000000000000000000000000000000000000000000000000000604082015250565b60006200101f60438362000ef2565b91506200102c8262000f9b565b606082019050919050565b60006020820190508181036000830152620010528162001010565b9050919050565b600060408201905062001070600083018562000e57565b6200107f602083018462000e57565b9392505050565b7f53616665436173743a2076616c756520646f65736e27742066697420696e203260008201527f3234206269747300000000000000000000000000000000000000000000000000602082015250565b6000620010e460278362000ef2565b9150620010f18262001086565b604082019050919050565b600060208201905081810360008301526200111781620010d5565b9050919050565b7f4e487b7100000000000000000000000000000000000000000000000000000000600052601160045260246000fd5b60006200115a8262000d68565b9150620011678362000d68565b9250828210156200117d576200117c6200111e565b5b828203905092915050565b7f53616665436173743a2076616c756520646f65736e27742066697420696e203360008201527f3220626974730000000000000000000000000000000000000000000000000000602082015250565b6000620011e660268362000ef2565b9150620011f38262001188565b604082019050919050565b600060208201905081810360008301526200121981620011d7565b9050919050565b7f436865636b706f696e743a20696e76616c6964206b6579000000000000000000600082015250565b60006200125860178362000ef2565b9150620012658262001220565b602082019050919050565b600060208201905081810360008301526200128b8162001249565b9050919050565b7f4e487b7100000000000000000000000000000000000000000000000000000000600052602260045260246000fd5b60006002820490506001821680620012da57607f821691505b60208210811415620012f157620012f062001292565b5b50919050565b60805160a05160c05160e051610100516101205161014051616f2862001360600039600081816121d20152818161309b015261331601526000613987015260006139c9015260006139a8015260006138dd015260006139330152600061395c0152616f286000f3fe60806040526004361061028c5760003560e01c80637d5e81e21161015a578063c28bc2fa116100c1578063ea0217cf1161007a578063ea0217cf14610b15578063eb9019d414610b3e578063ece40cc114610b7b578063f23a6e6114610ba4578063f8ce560a14610be1578063fc0c546a14610c1e576102d2565b8063c28bc2fa146109fe578063c59057e414610a1a578063d33219b414610a57578063dd4e2ba514610a82578063deaaa7cc14610aad578063e0a10f2a14610ad8576102d2565b8063a98c14b911610113578063a98c14b9146108a2578063ab58fb8e146108df578063b1e44d8f1461091c578063b58131b014610959578063bc197c8114610984578063c01f9e37146109c1576102d2565b80637d5e81e21461079257806395ff4c5c146107cf57806397c3d334146107e65780639a802a6d14610811578063a7713a701461084e578063a890c91014610879576102d2565b80632fe3e261116101fe57806354fd4d50116101b757806354fd4d501461064a57806356781388146106755780635f398a14146106b257806360c4247f146106ef57806370b0f6601461072c5780637b3c71d314610755576102d2565b80632fe3e261146104fe5780633932abb1146105295780633bccf4fd146105545780633e4f49e61461059157806343859632146105ce578063544ffc9c1461060b576102d2565b8063150b7a0211610250578063150b7a02146103d0578063160cbed71461040d5780631eca4e7a1461044a578063233f625c146104665780632656227d146104915780632d63f693146104c1576102d2565b806301ffc9a7146102d757806302a251a314610314578063034201811461033f57806306f3f9e61461037c57806306fdde03146103a5576102d2565b366102d2573073ffffffffffffffffffffffffffffffffffffffff166102b0610c49565b73ffffffffffffffffffffffffffffffffffffffff16146102d057600080fd5b005b600080fd5b3480156102e357600080fd5b506102fe60048036038101906102f99190614485565b610c58565b60405161030b91906144cd565b60405180910390f35b34801561032057600080fd5b50610329610c6a565b6040516103369190614501565b60405180910390f35b34801561034b57600080fd5b506103666004803603810190610361919061475d565b610c79565b6040516103739190614501565b60405180910390f35b34801561038857600080fd5b506103a3600480360381019061039e919061483b565b610d5e565b005b3480156103b157600080fd5b506103ba610e5a565b6040516103c791906148f0565b60405180910390f35b3480156103dc57600080fd5b506103f760048036038101906103f29190614970565b610eec565b6040516104049190614a02565b60405180910390f35b34801561041957600080fd5b50610434600480360381019061042f9190614c84565b610f00565b6040516104419190614501565b60405180910390f35b610464600480360381019061045f919061483b565b6111d8565b005b34801561047257600080fd5b5061047b611226565b6040516104889190614501565b60405180910390f35b6104ab60048036038101906104a69190614c84565b611232565b6040516104b89190614501565b60405180910390f35b3480156104cd57600080fd5b506104e860048036038101906104e3919061483b565b61137f565b6040516104f59190614501565b60405180910390f35b34801561050a57600080fd5b506105136113ed565b6040516105209190614d4e565b60405180910390f35b34801561053557600080fd5b5061053e611411565b60405161054b9190614501565b60405180910390f35b34801561056057600080fd5b5061057b60048036038101906105769190614d69565b611420565b6040516105889190614501565b60405180910390f35b34801561059d57600080fd5b506105b860048036038101906105b3919061483b565b6114aa565b6040516105c59190614e5b565b60405180910390f35b3480156105da57600080fd5b506105f560048036038101906105f09190614e76565b6114bc565b60405161060291906144cd565b60405180910390f35b34801561061757600080fd5b50610632600480360381019061062d919061483b565b611527565b60405161064193929190614eb6565b60405180910390f35b34801561065657600080fd5b5061065f61155f565b60405161066c91906148f0565b60405180910390f35b34801561068157600080fd5b5061069c60048036038101906106979190614eed565b61159c565b6040516106a99190614501565b60405180910390f35b3480156106be57600080fd5b506106d960048036038101906106d49190614f2d565b6115cd565b6040516106e69190614501565b60405180910390f35b3480156106fb57600080fd5b506107166004803603810190610711919061483b565b611637565b6040516107239190614501565b60405180910390f35b34801561073857600080fd5b50610753600480360381019061074e919061483b565b611784565b005b34801561076157600080fd5b5061077c60048036038101906107779190614fd1565b611880565b6040516107899190614501565b60405180910390f35b34801561079e57600080fd5b506107b960048036038101906107b491906150e6565b6118e8565b6040516107c69190614501565b60405180910390f35b3480156107db57600080fd5b506107e4611900565b005b3480156107f257600080fd5b506107fb611990565b6040516108089190614501565b60405180910390f35b34801561081d57600080fd5b50610838600480360381019061083391906151bd565b611999565b6040516108459190614501565b60405180910390f35b34801561085a57600080fd5b506108636119af565b6040516108709190614501565b60405180910390f35b34801561088557600080fd5b506108a0600480360381019061089b919061527c565b6119f6565b005b3480156108ae57600080fd5b506108c960048036038101906108c491906152a9565b611af2565b6040516108d69190614501565b60405180910390f35b3480156108eb57600080fd5b506109066004803603810190610901919061483b565b611b23565b6040516109139190614501565b60405180910390f35b34801561092857600080fd5b50610943600480360381019061093e91906152e9565b611bff565b60405161095091906144cd565b60405180910390f35b34801561096557600080fd5b5061096e611c1f565b60405161097b9190614501565b60405180910390f35b34801561099057600080fd5b506109ab60048036038101906109a69190615316565b611c2e565b6040516109b89190614a02565b60405180910390f35b3480156109cd57600080fd5b506109e860048036038101906109e3919061483b565b611c43565b6040516109f59190614501565b60405180910390f35b610a186004803603810190610a13919061543b565b611cb1565b005b348015610a2657600080fd5b50610a416004803603810190610a3c9190614c84565b611e3f565b604051610a4e9190614501565b60405180910390f35b348015610a6357600080fd5b50610a6c611e7b565b604051610a7991906154be565b60405180910390f35b348015610a8e57600080fd5b50610a97611ea5565b604051610aa491906148f0565b60405180910390f35b348015610ab957600080fd5b50610ac2611ee2565b604051610acf9190614d4e565b60405180910390f35b348015610ae457600080fd5b50610aff6004803603810190610afa91906152e9565b611f06565b604051610b0c9190615597565b60405180910390f35b348015610b2157600080fd5b50610b3c6004803603810190610b37919061483b565b611f9d565b005b348015610b4a57600080fd5b50610b656004803603810190610b6091906152a9565b612099565b604051610b729190614501565b60405180910390f35b348015610b8757600080fd5b50610ba26004803603810190610b9d919061483b565b6120ad565b005b348015610bb057600080fd5b50610bcb6004803603810190610bc691906155b9565b6121a9565b604051610bd89190614a02565b60405180910390f35b348015610bed57600080fd5b50610c086004803603810190610c03919061483b565b6121be565b604051610c159190614501565b60405180910390f35b348015610c2a57600080fd5b50610c336121d0565b604051610c4091906156af565b60405180910390f35b6000610c5361238a565b905090565b6000610c63826123b4565b9050919050565b6000610c7461242e565b905090565b600080610cfc610cf47fb3b3f3b703cd84ce352197dcff232b1b5d3cfb2025ce47cf04742d0651f1af888c8c8c8c604051610cb59291906156fa565b60405180910390208b80519060200120604051602001610cd9959493929190615722565b60405160208183030381529060405280519060200120612438565b868686612452565b9050610d4f8a828b8b8b8080601f016020809104026020016040519081016040528093929190818152602001838380828437600081840152601f19601f820116905080830192505050505050508a61247d565b91505098975050505050505050565b610d66610c49565b73ffffffffffffffffffffffffffffffffffffffff16610d8461263a565b73ffffffffffffffffffffffffffffffffffffffff1614610dda576040517f08c379a0000000000000000000000000000000000000000000000000000000008152600401610dd1906157c1565b60405180910390fd5b3073ffffffffffffffffffffffffffffffffffffffff16610df9610c49565b73ffffffffffffffffffffffffffffffffffffffff1614610e4e576000610e1e612642565b604051610e2c9291906156fa565b604051809103902090505b80610e42600261264f565b14610e4c57610e37565b505b610e578161272b565b50565b606060008054610e6990615810565b80601f0160208091040260200160405190810160405280929190818152602001828054610e9590615810565b8015610ee25780601f10610eb757610100808354040283529160200191610ee2565b820191906000526020600020905b815481529060010190602001808311610ec557829003601f168201915b5050505050905090565b600063150b7a0260e01b9050949350505050565b600080610f0f86868686611e3f565b905060046007811115610f2557610f24614de4565b5b610f2e826114aa565b6007811115610f4057610f3f614de4565b5b14610f80576040517f08c379a0000000000000000000000000000000000000000000000000000000008152600401610f77906158b4565b60405180910390fd5b6000600a60009054906101000a900473ffffffffffffffffffffffffffffffffffffffff1673ffffffffffffffffffffffffffffffffffffffff1663f27a0c926040518163ffffffff1660e01b815260040160206040518083038186803b158015610fea57600080fd5b505afa158015610ffe573d6000803e3d6000fd5b505050506040513d601f19601f8201168201806040525081019061102291906158e9565b9050600a60009054906101000a900473ffffffffffffffffffffffffffffffffffffffff1673ffffffffffffffffffffffffffffffffffffffff1663b1c5f4278888886000896040518663ffffffff1660e01b8152600401611088959493929190615b33565b60206040518083038186803b1580156110a057600080fd5b505afa1580156110b4573d6000803e3d6000fd5b505050506040513d601f19601f820116820180604052508101906110d89190615bb0565b600b600084815260200190815260200160002081905550600a60009054906101000a900473ffffffffffffffffffffffffffffffffffffffff1673ffffffffffffffffffffffffffffffffffffffff16638f2a0bb0888888600089876040518763ffffffff1660e01b815260040161115596959493929190615bdd565b600060405180830381600087803b15801561116f57600080fd5b505af1158015611183573d6000803e3d6000fd5b505050507f9a2e42fd6722813d69113e7d0079d3d940171428df7373df9c7f7617cfda28928282426111b59190615c82565b6040516111c3929190615cd8565b60405180910390a18192505050949350505050565b671bc16d674ec80000341015611223576040517f08c379a000000000000000000000000000000000000000000000000000000000815260040161121a90615d73565b60405180910390fd5b50565b671bc16d674ec8000081565b60008061124186868686611e3f565b9050600061124e826114aa565b90506004600781111561126457611263614de4565b5b81600781111561127757611276614de4565b5b14806112a757506005600781111561129257611291614de4565b5b8160078111156112a5576112a4614de4565b5b145b6112e6576040517f08c379a00000000000000000000000000000000000000000000000000000000081526004016112dd906158b4565b60405180910390fd5b600180600084815260200190815260200160002060020160006101000a81548160ff0219169083151502179055507f712ae1383f79ac853f8d882153778e0260ef8f03b504e2866e0593e04d2b291f826040516113439190614501565b60405180910390a161135882888888886128df565b61136582888888886129c3565b61137282888888886129d7565b8192505050949350505050565b60006113dc600160008481526020019081526020016000206000016040518060200160405290816000820160009054906101000a900467ffffffffffffffff1667ffffffffffffffff1667ffffffffffffffff1681525050612a32565b67ffffffffffffffff169050919050565b7fb3b3f3b703cd84ce352197dcff232b1b5d3cfb2025ce47cf04742d0651f1af8881565b600061141b612a40565b905090565b6000806114816114797f150214d74d59b7d1e90c73fc22ef3d991dd0a76b046543d4d80ab92d2a50328f898960405160200161145e93929190615d93565b60405160208183030381529060405280519060200120612438565b868686612452565b905061149e87828860405180602001604052806000815250612a4a565b91505095945050505050565b60006114b582612a6a565b9050919050565b60006007600084815260200190815260200160002060030160008373ffffffffffffffffffffffffffffffffffffffff1673ffffffffffffffffffffffffffffffffffffffff16815260200190815260200160002060009054906101000a900460ff16905092915050565b600080600080600760008681526020019081526020016000209050806000015481600101548260020154935093509350509193909250565b60606040518060400160405280600181526020017f3100000000000000000000000000000000000000000000000000000000000000815250905090565b6000806115a761263a565b90506115c484828560405180602001604052806000815250612a4a565b91505092915050565b6000806115d861263a565b905061162b87828888888080601f016020809104026020016040519081016040528093929190818152602001838380828437600081840152601f19601f820116905080830192505050505050508761247d565b91505095945050505050565b600080600960000180549050905060008114156116595760085491505061177f565b6000600960000160018361166d9190615dca565b8154811061167e5761167d615dfe565b5b906000526020600020016040518060400160405290816000820160009054906101000a900463ffffffff1663ffffffff1663ffffffff1681526020016000820160049054906101000a90047bffffffffffffffffffffffffffffffffffffffffffffffffffffffff167bffffffffffffffffffffffffffffffffffffffffffffffffffffffff167bffffffffffffffffffffffffffffffffffffffffffffffffffffffff1681525050905083816000015163ffffffff16116117665780602001517bffffffffffffffffffffffffffffffffffffffffffffffffffffffff169250505061177f565b61177a846009612c5c90919063ffffffff16565b925050505b919050565b61178c610c49565b73ffffffffffffffffffffffffffffffffffffffff166117aa61263a565b73ffffffffffffffffffffffffffffffffffffffff1614611800576040517f08c379a00000000000000000000000000000000000000000000000000000000081526004016117f7906157c1565b60405180910390fd5b3073ffffffffffffffffffffffffffffffffffffffff1661181f610c49565b73ffffffffffffffffffffffffffffffffffffffff1614611874576000611844612642565b6040516118529291906156fa565b604051809103902090505b80611868600261264f565b146118725761185d565b505b61187d81612d4b565b50565b60008061188b61263a565b90506118dd86828787878080601f016020809104026020016040519081016040528093929190818152602001838380828437600081840152601f19601f82011690508083019250505050505050612a4a565b915050949350505050565b60006118f685858585612d90565b9050949350505050565b33600c60008273ffffffffffffffffffffffffffffffffffffffff1673ffffffffffffffffffffffffffffffffffffffff16815260200190815260200160002060009054906101000a900460ff1661198d576040517f08c379a000000000000000000000000000000000000000000000000000000000815260040161198490615e9f565b60405180910390fd5b50565b60006064905090565b60006119a6848484613097565b90509392505050565b600080600960000180549050146119ed576119ca60096122cd565b7bffffffffffffffffffffffffffffffffffffffffffffffffffffffff166119f1565b6008545b905090565b6119fe610c49565b73ffffffffffffffffffffffffffffffffffffffff16611a1c61263a565b73ffffffffffffffffffffffffffffffffffffffff1614611a72576040517f08c379a0000000000000000000000000000000000000000000000000000000008152600401611a69906157c1565b60405180910390fd5b3073ffffffffffffffffffffffffffffffffffffffff16611a91610c49565b73ffffffffffffffffffffffffffffffffffffffff1614611ae6576000611ab6612642565b604051611ac49291906156fa565b604051809103902090505b80611ada600261264f565b14611ae457611acf565b505b611aef8161314d565b50565b600d6020528160005260406000208181548110611b0e57600080fd5b90600052602060002001600091509150505481565b600080600a60009054906101000a900473ffffffffffffffffffffffffffffffffffffffff1673ffffffffffffffffffffffffffffffffffffffff1663d45c4435600b6000868152602001908152602001600020546040518263ffffffff1660e01b8152600401611b949190614d4e565b60206040518083038186803b158015611bac57600080fd5b505afa158015611bc0573d6000803e3d6000fd5b505050506040513d601f19601f82011682018060405250810190611be491906158e9565b905060018114611bf45780611bf7565b60005b915050919050565b600c6020528060005260406000206000915054906101000a900460ff1681565b6000611c296131ec565b905090565b600063bc197c8160e01b905095945050505050565b6000611ca0600160008481526020019081526020016000206001016040518060200160405290816000820160009054906101000a900467ffffffffffffffff1667ffffffffffffffff1667ffffffffffffffff1681525050612a32565b67ffffffffffffffff169050919050565b611cb9610c49565b73ffffffffffffffffffffffffffffffffffffffff16611cd761263a565b73ffffffffffffffffffffffffffffffffffffffff1614611d2d576040517f08c379a0000000000000000000000000000000000000000000000000000000008152600401611d24906157c1565b60405180910390fd5b3073ffffffffffffffffffffffffffffffffffffffff16611d4c610c49565b73ffffffffffffffffffffffffffffffffffffffff1614611da1576000611d71612642565b604051611d7f9291906156fa565b604051809103902090505b80611d95600261264f565b14611d9f57611d8a565b505b6000808573ffffffffffffffffffffffffffffffffffffffff16858585604051611dcc9291906156fa565b60006040518083038185875af1925050503d8060008114611e09576040519150601f19603f3d011682016040523d82523d6000602084013e611e0e565b606091505b5091509150611e368282604051806060016040528060288152602001616ecb602891396131f6565b50505050505050565b600084848484604051602001611e589493929190615ebf565b6040516020818303038152906040528051906020012060001c9050949350505050565b6000600a60009054906101000a900473ffffffffffffffffffffffffffffffffffffffff16905090565b60606040518060400160405280602081526020017f737570706f72743d627261766f2671756f72756d3d666f722c6162737461696e815250905090565b7f150214d74d59b7d1e90c73fc22ef3d991dd0a76b046543d4d80ab92d2a50328f81565b6060600d60008373ffffffffffffffffffffffffffffffffffffffff1673ffffffffffffffffffffffffffffffffffffffff168152602001908152602001600020805480602002602001604051908101604052809291908181526020018280548015611f9157602002820191906000526020600020905b815481526020019060010190808311611f7d575b50505050509050919050565b611fa5610c49565b73ffffffffffffffffffffffffffffffffffffffff16611fc361263a565b73ffffffffffffffffffffffffffffffffffffffff1614612019576040517f08c379a0000000000000000000000000000000000000000000000000000000008152600401612010906157c1565b60405180910390fd5b3073ffffffffffffffffffffffffffffffffffffffff16612038610c49565b73ffffffffffffffffffffffffffffffffffffffff161461208d57600061205d612642565b60405161206b9291906156fa565b604051809103902090505b80612081600261264f565b1461208b57612076565b505b61209681613218565b50565b60006120a583836132a0565b905092915050565b6120b5610c49565b73ffffffffffffffffffffffffffffffffffffffff166120d361263a565b73ffffffffffffffffffffffffffffffffffffffff1614612129576040517f08c379a0000000000000000000000000000000000000000000000000000000008152600401612120906157c1565b60405180910390fd5b3073ffffffffffffffffffffffffffffffffffffffff16612148610c49565b73ffffffffffffffffffffffffffffffffffffffff161461219d57600061216d612642565b60405161217b9291906156fa565b604051809103902090505b80612191600261264f565b1461219b57612186565b505b6121a6816132bc565b50565b600063f23a6e6160e01b905095945050505050565b60006121c982613301565b9050919050565b7f000000000000000000000000000000000000000000000000000000000000000081565b60007bffffffffffffffffffffffffffffffffffffffffffffffffffffffff8016821115612257576040517f08c379a000000000000000000000000000000000000000000000000000000000815260040161224e90615f8b565b60405180910390fd5b819050919050565b6000806122808460000161227243612337565b61227b866121f4565b6133d8565b817bffffffffffffffffffffffffffffffffffffffffffffffffffffffff169150807bffffffffffffffffffffffffffffffffffffffffffffffffffffffff169050915091509250929050565b600080826000018054905090506000811461232c576122fb836000016001836122f69190615dca565b61375f565b60000160049054906101000a90047bffffffffffffffffffffffffffffffffffffffffffffffffffffffff1661232f565b60005b915050919050565b600063ffffffff8016821115612382576040517f08c379a00000000000000000000000000000000000000000000000000000000081526004016123799061601d565b60405180910390fd5b819050919050565b6000600a60009054906101000a900473ffffffffffffffffffffffffffffffffffffffff16905090565b60007f6e665ced000000000000000000000000000000000000000000000000000000007bffffffffffffffffffffffffffffffffffffffffffffffffffffffff1916827bffffffffffffffffffffffffffffffffffffffffffffffffffffffff19161480612427575061242682613774565b5b9050919050565b6000600554905090565b600061244b6124456138d9565b836139f3565b9050919050565b600080600061246387878787613a26565b9150915061247081613b09565b8192505050949350505050565b600080600160008881526020019081526020016000209050600160078111156124a9576124a8614de4565b5b6124b2886114aa565b60078111156124c4576124c3614de4565b5b14612504576040517f08c379a00000000000000000000000000000000000000000000000000000000081526004016124fb906160af565b60405180910390fd5b600061256387612553846000016040518060200160405290816000820160009054906101000a900467ffffffffffffffff1667ffffffffffffffff1667ffffffffffffffff1681525050612a32565b67ffffffffffffffff1686613097565b90506125728888888488613c77565b6000845114156125d5578673ffffffffffffffffffffffffffffffffffffffff167fb8e138887d0aa13bab447e82de9d5c1777041ecd21ca36ba824ff1e6c07ddda4898884896040516125c894939291906160cf565b60405180910390a261262c565b8673ffffffffffffffffffffffffffffffffffffffff167fe2babfbac5889a709b63bb7f598b324e08bc5a4fb9ec647fb3cbc9ec07eb87128988848989604051612623959493929190616165565b60405180910390a25b809250505095945050505050565b600033905090565b3660008036915091509091565b600061265a82613e7e565b15612691576040517f3db2a12a00000000000000000000000000000000000000000000000000000000815260040160405180910390fd5b60008260000160009054906101000a9004600f0b905082600101600082600f0b600f0b815260200190815260200160002054915082600101600082600f0b600f0b815260200190815260200160002060009055600181018360000160006101000a8154816fffffffffffffffffffffffffffffffff0219169083600f0b6fffffffffffffffffffffffffffffffff16021790555050919050565b612733611990565b811115612775576040517f08c379a000000000000000000000000000000000000000000000000000000000815260040161276c9061625e565b60405180910390fd5b600061277f6119af565b90506000811415801561279a57506000600960000180549050145b1561288c5760096000016040518060400160405280600063ffffffff1681526020016127c5846121f4565b7bffffffffffffffffffffffffffffffffffffffffffffffffffffffff168152509080600181540180825580915050600190039060005260206000200160009091909190915060008201518160000160006101000a81548163ffffffff021916908363ffffffff16021790555060208201518160000160046101000a8154817bffffffffffffffffffffffffffffffffffffffffffffffffffffffff02191690837bffffffffffffffffffffffffffffffffffffffffffffffffffffffff16021790555050505b6128a082600961225f90919063ffffffff16565b50507f0553476bf02ef2726e8ce5ced78d63e26e602e4a2257b1f559418e24b463399781836040516128d3929190615cd8565b60405180910390a15050565b3073ffffffffffffffffffffffffffffffffffffffff166128fe610c49565b73ffffffffffffffffffffffffffffffffffffffff16146129bc5760005b84518110156129ba573073ffffffffffffffffffffffffffffffffffffffff1685828151811061294f5761294e615dfe565b5b602002602001015173ffffffffffffffffffffffffffffffffffffffff1614156129a9576129a883828151811061298957612988615dfe565b5b6020026020010151805190602001206002613eb390919063ffffffff16565b5b806129b39061627e565b905061291c565b505b5050505050565b6129d08585858585613f2f565b5050505050565b3073ffffffffffffffffffffffffffffffffffffffff166129f6610c49565b73ffffffffffffffffffffffffffffffffffffffff1614612a2b57612a1b6002613e7e565b612a2a57612a296002613fcd565b5b5b5050505050565b600081600001519050919050565b6000600454905090565b6000612a6085858585612a5b61404e565b61247d565b9050949350505050565b600080612a7683614065565b905060046007811115612a8c57612a8b614de4565b5b816007811115612a9f57612a9e614de4565b5b14612aad5780915050612c57565b6000600b60008581526020019081526020016000205490506000801b811415612ada578192505050612c57565b600a60009054906101000a900473ffffffffffffffffffffffffffffffffffffffff1673ffffffffffffffffffffffffffffffffffffffff16632ab0f529826040518263ffffffff1660e01b8152600401612b359190614d4e565b60206040518083038186803b158015612b4d57600080fd5b505afa158015612b61573d6000803e3d6000fd5b505050506040513d601f19601f82011682018060405250810190612b8591906162f3565b15612b9557600792505050612c57565b600a60009054906101000a900473ffffffffffffffffffffffffffffffffffffffff1673ffffffffffffffffffffffffffffffffffffffff1663584b153e826040518263ffffffff1660e01b8152600401612bf09190614d4e565b60206040518083038186803b158015612c0857600080fd5b505afa158015612c1c573d6000803e3d6000fd5b505050506040513d601f19601f82011682018060405250810190612c4091906162f3565b15612c5057600592505050612c57565b6002925050505b919050565b6000438210612ca0576040517f08c379a0000000000000000000000000000000000000000000000000000000008152600401612c979061636c565b60405180910390fd5b6000612cab83612337565b90506000846000018054905090506000612ccb866000018460008561417a565b905060008114612d1f57612cee86600001600183612ce99190615dca565b61375f565b60000160049054906101000a90047bffffffffffffffffffffffffffffffffffffffffffffffffffffffff16612d22565b60005b7bffffffffffffffffffffffffffffffffffffffffffffffffffffffff16935050505092915050565b7fc565b045403dc03c2eea82b81a0465edad9e2e7fc4d97e11421c209da93d7a9360045482604051612d7e929190615cd8565b60405180910390a18060048190555050565b6000612d9a611c1f565b612db7612da561263a565b600143612db29190615dca565b612099565b1015612df8576040517f08c379a0000000000000000000000000000000000000000000000000000000008152600401612def906163fe565b60405180910390fd5b6000612e0d8686868680519060200120611e3f565b90508451865114612e53576040517f08c379a0000000000000000000000000000000000000000000000000000000008152600401612e4a90616490565b60405180910390fd5b8351865114612e97576040517f08c379a0000000000000000000000000000000000000000000000000000000008152600401612e8e90616490565b60405180910390fd5b6000865111612edb576040517f08c379a0000000000000000000000000000000000000000000000000000000008152600401612ed2906164fc565b60405180910390fd5b6000600160008381526020019081526020016000209050612f3b816000016040518060200160405290816000820160009054906101000a900467ffffffffffffffff1667ffffffffffffffff1667ffffffffffffffff16815250506141ed565b612f7a576040517f08c379a0000000000000000000000000000000000000000000000000000000008152600401612f719061658e565b60405180910390fd5b6000612f8c612f87611411565b614207565b612f9543614207565b612f9f91906165c2565b90506000612fb3612fae610c6a565b614207565b82612fbe91906165c2565b9050612fd6828460000161425e90919063ffffffff16565b612fec818460010161425e90919063ffffffff16565b7f7d84a6263ae0d98d3329bd7b46bb4e8d6f98cd35a7adb45c274c8b7fd5ebd5e08461301661263a565b8b8b8d5167ffffffffffffffff811115613033576130326145fc565b5b60405190808252806020026020018201604052801561306657816020015b60608152602001906001900390816130515790505b508c88888e6040516130809998979695949392919061673d565b60405180910390a183945050505050949350505050565b60007f000000000000000000000000000000000000000000000000000000000000000073ffffffffffffffffffffffffffffffffffffffff16633a46b1a885856040518363ffffffff1660e01b81526004016130f49291906167ed565b60206040518083038186803b15801561310c57600080fd5b505afa158015613120573d6000803e3d6000fd5b505050506040513d601f19601f8201168201806040525081019061314491906158e9565b90509392505050565b7f08f74ea46ef7894f65eabfb5e6e695de773a000b47c529ab559178069b226401600a60009054906101000a900473ffffffffffffffffffffffffffffffffffffffff16826040516131a0929190616816565b60405180910390a180600a60006101000a81548173ffffffffffffffffffffffffffffffffffffffff021916908373ffffffffffffffffffffffffffffffffffffffff16021790555050565b6000600654905090565b6060831561320657829050613211565b613210838361428d565b5b9392505050565b6000811161325b576040517f08c379a0000000000000000000000000000000000000000000000000000000008152600401613252906168b1565b60405180910390fd5b7f7e3f7f0708a84de9203036abaa450dccc85ad5ff52f78c170f3edb55cf5e88286005548260405161328e929190615cd8565b60405180910390a18060058190555050565b60006132b483836132af61404e565b613097565b905092915050565b7fccb45da8d5717e6c4544694297c4ba5cf151d455c9bb0ed4fc7a38411bc05461600654826040516132ef929190615cd8565b60405180910390a18060068190555050565b600061330b611990565b61331483611637565b7f000000000000000000000000000000000000000000000000000000000000000073ffffffffffffffffffffffffffffffffffffffff16638e539e8c856040518263ffffffff1660e01b815260040161336d9190614501565b60206040518083038186803b15801561338557600080fd5b505afa158015613399573d6000803e3d6000fd5b505050506040513d601f19601f820116820180604052508101906133bd91906158e9565b6133c791906168d1565b6133d1919061695a565b9050919050565b600080600085805490509050600081111561366f576000613405876001846134009190615dca565b61375f565b6040518060400160405290816000820160009054906101000a900463ffffffff1663ffffffff1663ffffffff1681526020016000820160049054906101000a90047bffffffffffffffffffffffffffffffffffffffffffffffffffffffff167bffffffffffffffffffffffffffffffffffffffffffffffffffffffff167bffffffffffffffffffffffffffffffffffffffffffffffffffffffff168152505090508563ffffffff16816000015163ffffffff1611156134f9576040517f08c379a00000000000000000000000000000000000000000000000000000000081526004016134f0906169d7565b60405180910390fd5b8563ffffffff16816000015163ffffffff16141561357e5784613528886001856135239190615dca565b61375f565b60000160046101000a8154817bffffffffffffffffffffffffffffffffffffffffffffffffffffffff02191690837bffffffffffffffffffffffffffffffffffffffffffffffffffffffff16021790555061365e565b8660405180604001604052808863ffffffff168152602001877bffffffffffffffffffffffffffffffffffffffffffffffffffffffff168152509080600181540180825580915050600190039060005260206000200160009091909190915060008201518160000160006101000a81548163ffffffff021916908363ffffffff16021790555060208201518160000160046101000a8154817bffffffffffffffffffffffffffffffffffffffffffffffffffffffff02191690837bffffffffffffffffffffffffffffffffffffffffffffffffffffffff16021790555050505b806020015185935093505050613757565b8560405180604001604052808763ffffffff168152602001867bffffffffffffffffffffffffffffffffffffffffffffffffffffffff168152509080600181540180825580915050600190039060005260206000200160009091909190915060008201518160000160006101000a81548163ffffffff021916908363ffffffff16021790555060208201518160000160046101000a8154817bffffffffffffffffffffffffffffffffffffffffffffffffffffffff02191690837bffffffffffffffffffffffffffffffffffffffffffffffffffffffff160217905550505060008492509250505b935093915050565b60008260005281602060002001905092915050565b6000639a802a6d60e01b630342018160e01b635f398a1460e01b7f79dd796f000000000000000000000000000000000000000000000000000000001818187bffffffffffffffffffffffffffffffffffffffffffffffffffffffff1916827bffffffffffffffffffffffffffffffffffffffffffffffffffffffff1916148061385a57507f79dd796f000000000000000000000000000000000000000000000000000000007bffffffffffffffffffffffffffffffffffffffffffffffffffffffff1916827bffffffffffffffffffffffffffffffffffffffffffffffffffffffff1916145b806138c257507f4e2312e0000000000000000000000000000000000000000000000000000000007bffffffffffffffffffffffffffffffffffffffffffffffffffffffff1916827bffffffffffffffffffffffffffffffffffffffffffffffffffffffff1916145b806138d257506138d1826142dd565b5b9050919050565b60007f000000000000000000000000000000000000000000000000000000000000000073ffffffffffffffffffffffffffffffffffffffff163073ffffffffffffffffffffffffffffffffffffffff1614801561395557507f000000000000000000000000000000000000000000000000000000000000000046145b15613982577f000000000000000000000000000000000000000000000000000000000000000090506139f0565b6139ed7f00000000000000000000000000000000000000000000000000000000000000007f00000000000000000000000000000000000000000000000000000000000000007f0000000000000000000000000000000000000000000000000000000000000000614347565b90505b90565b60008282604051602001613a08929190616a6f565b60405160208183030381529060405280519060200120905092915050565b6000807f7fffffffffffffffffffffffffffffff5d576e7357a4501ddfe92f46681b20a08360001c1115613a61576000600391509150613b00565b600060018787878760405160008152602001604052604051613a869493929190616aa6565b6020604051602081039080840390855afa158015613aa8573d6000803e3d6000fd5b505050602060405103519050600073ffffffffffffffffffffffffffffffffffffffff168173ffffffffffffffffffffffffffffffffffffffff161415613af757600060019250925050613b00565b80600092509250505b94509492505050565b60006004811115613b1d57613b1c614de4565b5b816004811115613b3057613b2f614de4565b5b1415613b3b57613c74565b60016004811115613b4f57613b4e614de4565b5b816004811115613b6257613b61614de4565b5b1415613ba3576040517f08c379a0000000000000000000000000000000000000000000000000000000008152600401613b9a90616b37565b60405180910390fd5b60026004811115613bb757613bb6614de4565b5b816004811115613bca57613bc9614de4565b5b1415613c0b576040517f08c379a0000000000000000000000000000000000000000000000000000000008152600401613c0290616ba3565b60405180910390fd5b60036004811115613c1f57613c1e614de4565b5b816004811115613c3257613c31614de4565b5b1415613c73576040517f08c379a0000000000000000000000000000000000000000000000000000000008152600401613c6a90616c35565b60405180910390fd5b5b50565b60006007600087815260200190815260200160002090508060030160008673ffffffffffffffffffffffffffffffffffffffff1673ffffffffffffffffffffffffffffffffffffffff16815260200190815260200160002060009054906101000a900460ff1615613d1d576040517f08c379a0000000000000000000000000000000000000000000000000000000008152600401613d1490616cc7565b60405180910390fd5b60018160030160008773ffffffffffffffffffffffffffffffffffffffff1673ffffffffffffffffffffffffffffffffffffffff16815260200190815260200160002060006101000a81548160ff02191690831515021790555060006002811115613d8b57613d8a614de4565b5b60ff168460ff161415613db85782816000016000828254613dac9190615c82565b92505081905550613e76565b60016002811115613dcc57613dcb614de4565b5b60ff168460ff161415613df95782816001016000828254613ded9190615c82565b92505081905550613e75565b600280811115613e0c57613e0b614de4565b5b60ff168460ff161415613e395782816002016000828254613e2d9190615c82565b92505081905550613e74565b6040517f08c379a0000000000000000000000000000000000000000000000000000000008152600401613e6b90616d59565b60405180910390fd5b5b5b505050505050565b60008160000160009054906101000a9004600f0b600f0b8260000160109054906101000a9004600f0b600f0b13159050919050565b60008260000160109054906101000a9004600f0b90508183600101600083600f0b600f0b815260200190815260200160002081905550600181018360000160106101000a8154816fffffffffffffffffffffffffffffffff0219169083600f0b6fffffffffffffffffffffffffffffffff160217905550505050565b600a60009054906101000a900473ffffffffffffffffffffffffffffffffffffffff1673ffffffffffffffffffffffffffffffffffffffff1663e38335e5348686866000876040518763ffffffff1660e01b8152600401613f94959493929190615b33565b6000604051808303818588803b158015613fad57600080fd5b505af1158015613fc1573d6000803e3d6000fd5b50505050505050505050565b60008160000160006101000a8154816fffffffffffffffffffffffffffffffff0219169083600f0b6fffffffffffffffffffffffffffffffff16021790555060008160000160106101000a8154816fffffffffffffffffffffffffffffffff0219169083600f0b6fffffffffffffffffffffffffffffffff16021790555050565b606060405180602001604052806000815250905090565b6000806001600084815260200190815260200160002090508060020160009054906101000a900460ff161561409e576007915050614175565b8060020160019054906101000a900460ff16156140bf576002915050614175565b60006140ca8461137f565b90506000811415614110576040517f08c379a000000000000000000000000000000000000000000000000000000000815260040161410790616dc5565b60405180910390fd5b43811061412257600092505050614175565b600061412d85611c43565b90504381106141425760019350505050614175565b61414b85614381565b801561415c575061415b856143c8565b5b1561416d5760049350505050614175565b600393505050505b919050565b60005b818310156141e257600061419184846143f3565b90508463ffffffff166141a4878361375f565b60000160009054906101000a900463ffffffff1663ffffffff1611156141cc578092506141dc565b6001816141d99190615c82565b93505b5061417d565b819050949350505050565b600080826000015167ffffffffffffffff16149050919050565b600067ffffffffffffffff8016821115614256576040517f08c379a000000000000000000000000000000000000000000000000000000000815260040161424d90616e57565b60405180910390fd5b819050919050565b808260000160006101000a81548167ffffffffffffffff021916908367ffffffffffffffff1602179055505050565b6000825111156142a05781518083602001fd5b806040517f08c379a00000000000000000000000000000000000000000000000000000000081526004016142d491906148f0565b60405180910390fd5b60007f01ffc9a7000000000000000000000000000000000000000000000000000000007bffffffffffffffffffffffffffffffffffffffffffffffffffffffff1916827bffffffffffffffffffffffffffffffffffffffffffffffffffffffff1916149050919050565b60008383834630604051602001614362959493929190616e77565b6040516020818303038152906040528051906020012090509392505050565b600080600760008481526020019081526020016000209050806002015481600101546143ad9190615c82565b6143be6143b98561137f565b6121be565b1115915050919050565b6000806007600084815260200190815260200160002090508060000154816001015411915050919050565b60006002828418614404919061695a565b8284166144119190615c82565b905092915050565b6000604051905090565b600080fd5b600080fd5b60007fffffffff0000000000000000000000000000000000000000000000000000000082169050919050565b6144628161442d565b811461446d57600080fd5b50565b60008135905061447f81614459565b92915050565b60006020828403121561449b5761449a614423565b5b60006144a984828501614470565b91505092915050565b60008115159050919050565b6144c7816144b2565b82525050565b60006020820190506144e260008301846144be565b92915050565b6000819050919050565b6144fb816144e8565b82525050565b600060208201905061451660008301846144f2565b92915050565b614525816144e8565b811461453057600080fd5b50565b6000813590506145428161451c565b92915050565b600060ff82169050919050565b61455e81614548565b811461456957600080fd5b50565b60008135905061457b81614555565b92915050565b600080fd5b600080fd5b600080fd5b60008083601f8401126145a6576145a5614581565b5b8235905067ffffffffffffffff8111156145c3576145c2614586565b5b6020830191508360018202830111156145df576145de61458b565b5b9250929050565b600080fd5b6000601f19601f8301169050919050565b7f4e487b7100000000000000000000000000000000000000000000000000000000600052604160045260246000fd5b614634826145eb565b810181811067ffffffffffffffff82111715614653576146526145fc565b5b80604052505050565b6000614666614419565b9050614672828261462b565b919050565b600067ffffffffffffffff821115614692576146916145fc565b5b61469b826145eb565b9050602081019050919050565b82818337600083830152505050565b60006146ca6146c584614677565b61465c565b9050828152602081018484840111156146e6576146e56145e6565b5b6146f18482856146a8565b509392505050565b600082601f83011261470e5761470d614581565b5b813561471e8482602086016146b7565b91505092915050565b6000819050919050565b61473a81614727565b811461474557600080fd5b50565b60008135905061475781614731565b92915050565b60008060008060008060008060e0898b03121561477d5761477c614423565b5b600061478b8b828c01614533565b985050602061479c8b828c0161456c565b975050604089013567ffffffffffffffff8111156147bd576147bc614428565b5b6147c98b828c01614590565b9650965050606089013567ffffffffffffffff8111156147ec576147eb614428565b5b6147f88b828c016146f9565b94505060806148098b828c0161456c565b93505060a061481a8b828c01614748565b92505060c061482b8b828c01614748565b9150509295985092959890939650565b60006020828403121561485157614850614423565b5b600061485f84828501614533565b91505092915050565b600081519050919050565b600082825260208201905092915050565b60005b838110156148a2578082015181840152602081019050614887565b838111156148b1576000848401525b50505050565b60006148c282614868565b6148cc8185614873565b93506148dc818560208601614884565b6148e5816145eb565b840191505092915050565b6000602082019050818103600083015261490a81846148b7565b905092915050565b600073ffffffffffffffffffffffffffffffffffffffff82169050919050565b600061493d82614912565b9050919050565b61494d81614932565b811461495857600080fd5b50565b60008135905061496a81614944565b92915050565b6000806000806080858703121561498a57614989614423565b5b60006149988782880161495b565b94505060206149a98782880161495b565b93505060406149ba87828801614533565b925050606085013567ffffffffffffffff8111156149db576149da614428565b5b6149e7878288016146f9565b91505092959194509250565b6149fc8161442d565b82525050565b6000602082019050614a1760008301846149f3565b92915050565b600067ffffffffffffffff821115614a3857614a376145fc565b5b602082029050602081019050919050565b6000614a5c614a5784614a1d565b61465c565b90508083825260208201905060208402830185811115614a7f57614a7e61458b565b5b835b81811015614aa85780614a94888261495b565b845260208401935050602081019050614a81565b5050509392505050565b600082601f830112614ac757614ac6614581565b5b8135614ad7848260208601614a49565b91505092915050565b600067ffffffffffffffff821115614afb57614afa6145fc565b5b602082029050602081019050919050565b6000614b1f614b1a84614ae0565b61465c565b90508083825260208201905060208402830185811115614b4257614b4161458b565b5b835b81811015614b6b5780614b578882614533565b845260208401935050602081019050614b44565b5050509392505050565b600082601f830112614b8a57614b89614581565b5b8135614b9a848260208601614b0c565b91505092915050565b600067ffffffffffffffff821115614bbe57614bbd6145fc565b5b602082029050602081019050919050565b6000614be2614bdd84614ba3565b61465c565b90508083825260208201905060208402830185811115614c0557614c0461458b565b5b835b81811015614c4c57803567ffffffffffffffff811115614c2a57614c29614581565b5b808601614c3789826146f9565b85526020850194505050602081019050614c07565b5050509392505050565b600082601f830112614c6b57614c6a614581565b5b8135614c7b848260208601614bcf565b91505092915050565b60008060008060808587031215614c9e57614c9d614423565b5b600085013567ffffffffffffffff811115614cbc57614cbb614428565b5b614cc887828801614ab2565b945050602085013567ffffffffffffffff811115614ce957614ce8614428565b5b614cf587828801614b75565b935050604085013567ffffffffffffffff811115614d1657614d15614428565b5b614d2287828801614c56565b9250506060614d3387828801614748565b91505092959194509250565b614d4881614727565b82525050565b6000602082019050614d636000830184614d3f565b92915050565b600080600080600060a08688031215614d8557614d84614423565b5b6000614d9388828901614533565b9550506020614da48882890161456c565b9450506040614db58882890161456c565b9350506060614dc688828901614748565b9250506080614dd788828901614748565b9150509295509295909350565b7f4e487b7100000000000000000000000000000000000000000000000000000000600052602160045260246000fd5b60088110614e2457614e23614de4565b5b50565b6000819050614e3582614e13565b919050565b6000614e4582614e27565b9050919050565b614e5581614e3a565b82525050565b6000602082019050614e706000830184614e4c565b92915050565b60008060408385031215614e8d57614e8c614423565b5b6000614e9b85828601614533565b9250506020614eac8582860161495b565b9150509250929050565b6000606082019050614ecb60008301866144f2565b614ed860208301856144f2565b614ee560408301846144f2565b949350505050565b60008060408385031215614f0457614f03614423565b5b6000614f1285828601614533565b9250506020614f238582860161456c565b9150509250929050565b600080600080600060808688031215614f4957614f48614423565b5b6000614f5788828901614533565b9550506020614f688882890161456c565b945050604086013567ffffffffffffffff811115614f8957614f88614428565b5b614f9588828901614590565b9350935050606086013567ffffffffffffffff811115614fb857614fb7614428565b5b614fc4888289016146f9565b9150509295509295909350565b60008060008060608587031215614feb57614fea614423565b5b6000614ff987828801614533565b945050602061500a8782880161456c565b935050604085013567ffffffffffffffff81111561502b5761502a614428565b5b61503787828801614590565b925092505092959194509250565b600067ffffffffffffffff8211156150605761505f6145fc565b5b615069826145eb565b9050602081019050919050565b600061508961508484615045565b61465c565b9050828152602081018484840111156150a5576150a46145e6565b5b6150b08482856146a8565b509392505050565b600082601f8301126150cd576150cc614581565b5b81356150dd848260208601615076565b91505092915050565b60008060008060808587031215615100576150ff614423565b5b600085013567ffffffffffffffff81111561511e5761511d614428565b5b61512a87828801614ab2565b945050602085013567ffffffffffffffff81111561514b5761514a614428565b5b61515787828801614b75565b935050604085013567ffffffffffffffff81111561517857615177614428565b5b61518487828801614c56565b925050606085013567ffffffffffffffff8111156151a5576151a4614428565b5b6151b1878288016150b8565b91505092959194509250565b6000806000606084860312156151d6576151d5614423565b5b60006151e48682870161495b565b93505060206151f586828701614533565b925050604084013567ffffffffffffffff81111561521657615215614428565b5b615222868287016146f9565b9150509250925092565b600061523782614912565b9050919050565b60006152498261522c565b9050919050565b6152598161523e565b811461526457600080fd5b50565b60008135905061527681615250565b92915050565b60006020828403121561529257615291614423565b5b60006152a084828501615267565b91505092915050565b600080604083850312156152c0576152bf614423565b5b60006152ce8582860161495b565b92505060206152df85828601614533565b9150509250929050565b6000602082840312156152ff576152fe614423565b5b600061530d8482850161495b565b91505092915050565b600080600080600060a0868803121561533257615331614423565b5b60006153408882890161495b565b95505060206153518882890161495b565b945050604086013567ffffffffffffffff81111561537257615371614428565b5b61537e88828901614b75565b935050606086013567ffffffffffffffff81111561539f5761539e614428565b5b6153ab88828901614b75565b925050608086013567ffffffffffffffff8111156153cc576153cb614428565b5b6153d8888289016146f9565b9150509295509295909350565b60008083601f8401126153fb576153fa614581565b5b8235905067ffffffffffffffff81111561541857615417614586565b5b6020830191508360018202830111156154345761543361458b565b5b9250929050565b6000806000806060858703121561545557615454614423565b5b60006154638782880161495b565b945050602061547487828801614533565b935050604085013567ffffffffffffffff81111561549557615494614428565b5b6154a1878288016153e5565b925092505092959194509250565b6154b881614932565b82525050565b60006020820190506154d360008301846154af565b92915050565b600081519050919050565b600082825260208201905092915050565b6000819050602082019050919050565b61550e816144e8565b82525050565b60006155208383615505565b60208301905092915050565b6000602082019050919050565b6000615544826154d9565b61554e81856154e4565b9350615559836154f5565b8060005b8381101561558a5781516155718882615514565b975061557c8361552c565b92505060018101905061555d565b5085935050505092915050565b600060208201905081810360008301526155b18184615539565b905092915050565b600080600080600060a086880312156155d5576155d4614423565b5b60006155e38882890161495b565b95505060206155f48882890161495b565b945050604061560588828901614533565b935050606061561688828901614533565b925050608086013567ffffffffffffffff81111561563757615636614428565b5b615643888289016146f9565b9150509295509295909350565b6000819050919050565b600061567561567061566b84614912565b615650565b614912565b9050919050565b60006156878261565a565b9050919050565b60006156998261567c565b9050919050565b6156a98161568e565b82525050565b60006020820190506156c460008301846156a0565b92915050565b600081905092915050565b60006156e183856156ca565b93506156ee8385846146a8565b82840190509392505050565b60006157078284866156d5565b91508190509392505050565b61571c81614548565b82525050565b600060a0820190506157376000830188614d3f565b61574460208301876144f2565b6157516040830186615713565b61575e6060830185614d3f565b61576b6080830184614d3f565b9695505050505050565b7f476f7665726e6f723a206f6e6c79476f7665726e616e63650000000000000000600082015250565b60006157ab601883614873565b91506157b682615775565b602082019050919050565b600060208201905081810360008301526157da8161579e565b9050919050565b7f4e487b7100000000000000000000000000000000000000000000000000000000600052602260045260246000fd5b6000600282049050600182168061582857607f821691505b6020821081141561583c5761583b6157e1565b5b50919050565b7f476f7665726e6f723a2070726f706f73616c206e6f742073756363657373667560008201527f6c00000000000000000000000000000000000000000000000000000000000000602082015250565b600061589e602183614873565b91506158a982615842565b604082019050919050565b600060208201905081810360008301526158cd81615891565b9050919050565b6000815190506158e38161451c565b92915050565b6000602082840312156158ff576158fe614423565b5b600061590d848285016158d4565b91505092915050565b600081519050919050565b600082825260208201905092915050565b6000819050602082019050919050565b61594b81614932565b82525050565b600061595d8383615942565b60208301905092915050565b6000602082019050919050565b600061598182615916565b61598b8185615921565b935061599683615932565b8060005b838110156159c75781516159ae8882615951565b97506159b983615969565b92505060018101905061599a565b5085935050505092915050565b600081519050919050565b600082825260208201905092915050565b6000819050602082019050919050565b600081519050919050565b600082825260208201905092915050565b6000615a2782615a00565b615a318185615a0b565b9350615a41818560208601614884565b615a4a816145eb565b840191505092915050565b6000615a618383615a1c565b905092915050565b6000602082019050919050565b6000615a81826159d4565b615a8b81856159df565b935083602082028501615a9d856159f0565b8060005b85811015615ad95784840389528151615aba8582615a55565b9450615ac583615a69565b925060208a01995050600181019050615aa1565b50829750879550505050505092915050565b6000819050919050565b60008160001b9050919050565b6000615b1d615b18615b1384615aeb565b615af5565b614727565b9050919050565b615b2d81615b02565b82525050565b600060a0820190508181036000830152615b4d8188615976565b90508181036020830152615b618187615539565b90508181036040830152615b758186615a76565b9050615b846060830185615b24565b615b916080830184614d3f565b9695505050505050565b600081519050615baa81614731565b92915050565b600060208284031215615bc657615bc5614423565b5b6000615bd484828501615b9b565b91505092915050565b600060c0820190508181036000830152615bf78189615976565b90508181036020830152615c0b8188615539565b90508181036040830152615c1f8187615a76565b9050615c2e6060830186615b24565b615c3b6080830185614d3f565b615c4860a08301846144f2565b979650505050505050565b7f4e487b7100000000000000000000000000000000000000000000000000000000600052601160045260246000fd5b6000615c8d826144e8565b9150615c98836144e8565b9250827fffffffffffffffffffffffffffffffffffffffffffffffffffffffffffffffff03821115615ccd57615ccc615c53565b5b828201905092915050565b6000604082019050615ced60008301856144f2565b615cfa60208301846144f2565b9392505050565b7f476f7665726e6f72436f6e74726163743a20496e73756666696369656e74206660008201527f656520746f2070726f706f7365206120706174656e7400000000000000000000602082015250565b6000615d5d603683614873565b9150615d6882615d01565b604082019050919050565b60006020820190508181036000830152615d8c81615d50565b9050919050565b6000606082019050615da86000830186614d3f565b615db560208301856144f2565b615dc26040830184615713565b949350505050565b6000615dd5826144e8565b9150615de0836144e8565b925082821015615df357615df2615c53565b5b828203905092915050565b7f4e487b7100000000000000000000000000000000000000000000000000000000600052603260045260246000fd5b7f476f7665726e6f72436f6e74726163743a204f6e6c792044414f206d656d626560008201527f72732063616e2061636365737320746869732066756e6374696f6e0000000000602082015250565b6000615e89603b83614873565b9150615e9482615e2d565b604082019050919050565b60006020820190508181036000830152615eb881615e7c565b9050919050565b60006080820190508181036000830152615ed98187615976565b90508181036020830152615eed8186615539565b90508181036040830152615f018185615a76565b9050615f106060830184614d3f565b95945050505050565b7f53616665436173743a2076616c756520646f65736e27742066697420696e203260008201527f3234206269747300000000000000000000000000000000000000000000000000602082015250565b6000615f75602783614873565b9150615f8082615f19565b604082019050919050565b60006020820190508181036000830152615fa481615f68565b9050919050565b7f53616665436173743a2076616c756520646f65736e27742066697420696e203360008201527f3220626974730000000000000000000000000000000000000000000000000000602082015250565b6000616007602683614873565b915061601282615fab565b604082019050919050565b6000602082019050818103600083015261603681615ffa565b9050919050565b7f476f7665726e6f723a20766f7465206e6f742063757272656e746c792061637460008201527f6976650000000000000000000000000000000000000000000000000000000000602082015250565b6000616099602383614873565b91506160a48261603d565b604082019050919050565b600060208201905081810360008301526160c88161608c565b9050919050565b60006080820190506160e460008301876144f2565b6160f16020830186615713565b6160fe60408301856144f2565b818103606083015261611081846148b7565b905095945050505050565b600082825260208201905092915050565b600061613782615a00565b616141818561611b565b9350616151818560208601614884565b61615a816145eb565b840191505092915050565b600060a08201905061617a60008301886144f2565b6161876020830187615713565b61619460408301866144f2565b81810360608301526161a681856148b7565b905081810360808301526161ba818461612c565b90509695505050505050565b7f476f7665726e6f72566f74657351756f72756d4672616374696f6e3a2071756f60008201527f72756d4e756d657261746f72206f7665722071756f72756d44656e6f6d696e6160208201527f746f720000000000000000000000000000000000000000000000000000000000604082015250565b6000616248604383614873565b9150616253826161c6565b606082019050919050565b600060208201905081810360008301526162778161623b565b9050919050565b6000616289826144e8565b91507fffffffffffffffffffffffffffffffffffffffffffffffffffffffffffffffff8214156162bc576162bb615c53565b5b600182019050919050565b6162d0816144b2565b81146162db57600080fd5b50565b6000815190506162ed816162c7565b92915050565b60006020828403121561630957616308614423565b5b6000616317848285016162de565b91505092915050565b7f436865636b706f696e74733a20626c6f636b206e6f7420796574206d696e6564600082015250565b6000616356602083614873565b915061636182616320565b602082019050919050565b6000602082019050818103600083015261638581616349565b9050919050565b7f476f7665726e6f723a2070726f706f73657220766f7465732062656c6f77207060008201527f726f706f73616c207468726573686f6c64000000000000000000000000000000602082015250565b60006163e8603183614873565b91506163f38261638c565b604082019050919050565b60006020820190508181036000830152616417816163db565b9050919050565b7f476f7665726e6f723a20696e76616c69642070726f706f73616c206c656e677460008201527f6800000000000000000000000000000000000000000000000000000000000000602082015250565b600061647a602183614873565b91506164858261641e565b604082019050919050565b600060208201905081810360008301526164a98161646d565b9050919050565b7f476f7665726e6f723a20656d7074792070726f706f73616c0000000000000000600082015250565b60006164e6601883614873565b91506164f1826164b0565b602082019050919050565b60006020820190508181036000830152616515816164d9565b9050919050565b7f476f7665726e6f723a2070726f706f73616c20616c726561647920657869737460008201527f7300000000000000000000000000000000000000000000000000000000000000602082015250565b6000616578602183614873565b91506165838261651c565b604082019050919050565b600060208201905081810360008301526165a78161656b565b9050919050565b600067ffffffffffffffff82169050919050565b60006165cd826165ae565b91506165d8836165ae565b92508267ffffffffffffffff038211156165f5576165f4615c53565b5b828201905092915050565b600081519050919050565b600082825260208201905092915050565b6000819050602082019050919050565b600082825260208201905092915050565b600061664882614868565b616652818561662c565b9350616662818560208601614884565b61666b816145eb565b840191505092915050565b6000616682838361663d565b905092915050565b6000602082019050919050565b60006166a282616600565b6166ac818561660b565b9350836020820285016166be8561661c565b8060005b858110156166fa57848403895281516166db8582616676565b94506166e68361668a565b925060208a019950506001810190506166c2565b50829750879550505050505092915050565b600061672761672261671d846165ae565b615650565b6144e8565b9050919050565b6167378161670c565b82525050565b600061012082019050616753600083018c6144f2565b616760602083018b6154af565b8181036040830152616772818a615976565b905081810360608301526167868189615539565b9050818103608083015261679a8188616697565b905081810360a08301526167ae8187615a76565b90506167bd60c083018661672e565b6167ca60e083018561672e565b8181036101008301526167dd81846148b7565b90509a9950505050505050505050565b600060408201905061680260008301856154af565b61680f60208301846144f2565b9392505050565b600060408201905061682b60008301856154af565b61683860208301846154af565b9392505050565b7f476f7665726e6f7253657474696e67733a20766f74696e6720706572696f642060008201527f746f6f206c6f7700000000000000000000000000000000000000000000000000602082015250565b600061689b602783614873565b91506168a68261683f565b604082019050919050565b600060208201905081810360008301526168ca8161688e565b9050919050565b60006168dc826144e8565b91506168e7836144e8565b9250817fffffffffffffffffffffffffffffffffffffffffffffffffffffffffffffffff04831182151516156169205761691f615c53565b5b828202905092915050565b7f4e487b7100000000000000000000000000000000000000000000000000000000600052601260045260246000fd5b6000616965826144e8565b9150616970836144e8565b9250826169805761697f61692b565b5b828204905092915050565b7f436865636b706f696e743a20696e76616c6964206b6579000000000000000000600082015250565b60006169c1601783614873565b91506169cc8261698b565b602082019050919050565b600060208201905081810360008301526169f0816169b4565b9050919050565b600081905092915050565b7f1901000000000000000000000000000000000000000000000000000000000000600082015250565b6000616a386002836169f7565b9150616a4382616a02565b600282019050919050565b6000819050919050565b616a69616a6482614727565b616a4e565b82525050565b6000616a7a82616a2b565b9150616a868285616a58565b602082019150616a968284616a58565b6020820191508190509392505050565b6000608082019050616abb6000830187614d3f565b616ac86020830186615713565b616ad56040830185614d3f565b616ae26060830184614d3f565b95945050505050565b7f45434453413a20696e76616c6964207369676e61747572650000000000000000600082015250565b6000616b21601883614873565b9150616b2c82616aeb565b602082019050919050565b60006020820190508181036000830152616b5081616b14565b9050919050565b7f45434453413a20696e76616c6964207369676e6174757265206c656e67746800600082015250565b6000616b8d601f83614873565b9150616b9882616b57565b602082019050919050565b60006020820190508181036000830152616bbc81616b80565b9050919050565b7f45434453413a20696e76616c6964207369676e6174757265202773272076616c60008201527f7565000000000000000000000000000000000000000000000000000000000000602082015250565b6000616c1f602283614873565b9150616c2a82616bc3565b604082019050919050565b60006020820190508181036000830152616c4e81616c12565b9050919050565b7f476f7665726e6f72566f74696e6753696d706c653a20766f746520616c72656160008201527f6479206361737400000000000000000000000000000000000000000000000000602082015250565b6000616cb1602783614873565b9150616cbc82616c55565b604082019050919050565b60006020820190508181036000830152616ce081616ca4565b9050919050565b7f476f7665726e6f72566f74696e6753696d706c653a20696e76616c696420766160008201527f6c756520666f7220656e756d20566f7465547970650000000000000000000000602082015250565b6000616d43603583614873565b9150616d4e82616ce7565b604082019050919050565b60006020820190508181036000830152616d7281616d36565b9050919050565b7f476f7665726e6f723a20756e6b6e6f776e2070726f706f73616c206964000000600082015250565b6000616daf601d83614873565b9150616dba82616d79565b602082019050919050565b60006020820190508181036000830152616dde81616da2565b9050919050565b7f53616665436173743a2076616c756520646f65736e27742066697420696e203660008201527f3420626974730000000000000000000000000000000000000000000000000000602082015250565b6000616e41602683614873565b9150616e4c82616de5565b604082019050919050565b60006020820190508181036000830152616e7081616e34565b9050919050565b600060a082019050616e8c6000830188614d3f565b616e996020830187614d3f565b616ea66040830186614d3f565b616eb360608301856144f2565b616ec060808301846154af565b969550505050505056fe476f7665726e6f723a2072656c617920726576657274656420776974686f7574206d657373616765a26469706673582212201d84b6a94b17714d4043eb736fc203f5a99de315072d28d001cf9f083209634d64736f6c63430008090033",
  "devdoc": {
    "errors": {
      "Empty()": [
        {
          "details": "An operation (e.g. {front}) couldn't be completed due to the queue being empty."
        }
      ]
    },
    "kind": "dev",
    "methods": {
      "COUNTING_MODE()": {
        "details": "See {IGovernor-COUNTING_MODE}."
      },
      "castVote(uint256,uint8)": {
        "details": "See {IGovernor-castVote}."
      },
      "castVoteBySig(uint256,uint8,uint8,bytes32,bytes32)": {
        "details": "See {IGovernor-castVoteBySig}."
      },
      "castVoteWithReason(uint256,uint8,string)": {
        "details": "See {IGovernor-castVoteWithReason}."
      },
      "castVoteWithReasonAndParams(uint256,uint8,string,bytes)": {
        "details": "See {IGovernor-castVoteWithReasonAndParams}."
      },
      "castVoteWithReasonAndParamsBySig(uint256,uint8,string,bytes,uint8,bytes32,bytes32)": {
        "details": "See {IGovernor-castVoteWithReasonAndParamsBySig}."
      },
      "execute(address[],uint256[],bytes[],bytes32)": {
        "details": "See {IGovernor-execute}."
      },
      "getVotesWithParams(address,uint256,bytes)": {
        "details": "See {IGovernor-getVotesWithParams}."
      },
      "hasVoted(uint256,address)": {
        "details": "See {IGovernor-hasVoted}."
      },
      "hashProposal(address[],uint256[],bytes[],bytes32)": {
        "details": "See {IGovernor-hashProposal}. The proposal id is produced by hashing the ABI encoded `targets` array, the `values` array, the `calldatas` array and the descriptionHash (bytes32 which itself is the keccak256 hash of the description string). This proposal id can be produced from the proposal data which is part of the {ProposalCreated} event. It can even be computed in advance, before the proposal is submitted. Note that the chainId and the governor address are not part of the proposal id computation. Consequently, the same proposal (with same operation and same description) will have the same id if submitted on multiple governors across multiple networks. This also means that in order to execute the same operation twice (on the same governor) the proposer will have to change the description in order to avoid proposal id conflicts."
      },
      "name()": {
        "details": "See {IGovernor-name}."
      },
      "onERC1155BatchReceived(address,address,uint256[],uint256[],bytes)": {
        "details": "See {IERC1155Receiver-onERC1155BatchReceived}."
      },
      "onERC1155Received(address,address,uint256,uint256,bytes)": {
        "details": "See {IERC1155Receiver-onERC1155Received}."
      },
      "onERC721Received(address,address,uint256,bytes)": {
        "details": "See {IERC721Receiver-onERC721Received}."
      },
      "proposalDeadline(uint256)": {
        "details": "See {IGovernor-proposalDeadline}."
      },
      "proposalEta(uint256)": {
        "details": "Public accessor to check the eta of a queued proposal"
      },
      "proposalSnapshot(uint256)": {
        "details": "See {IGovernor-proposalSnapshot}."
      },
      "proposalVotes(uint256)": {
        "details": "Accessor to the internal vote counts."
      },
      "queue(address[],uint256[],bytes[],bytes32)": {
        "details": "Function to queue a proposal to the timelock."
      },
      "quorumDenominator()": {
        "details": "Returns the quorum denominator. Defaults to 100, but may be overridden."
      },
      "quorumNumerator()": {
        "details": "Returns the current quorum numerator. See {quorumDenominator}."
      },
      "quorumNumerator(uint256)": {
        "details": "Returns the quorum numerator at a specific block number. See {quorumDenominator}."
      },
      "relay(address,uint256,bytes)": {
        "details": "Relays a transaction or function call to an arbitrary target. In cases where the governance executor is some contract other than the governor itself, like when using a timelock, this function can be invoked in a governance proposal to recover tokens or Ether that was sent to the governor contract by mistake. Note that if the executor is simply the governor itself, use of `relay` is redundant."
      },
      "setProposalThreshold(uint256)": {
        "details": "Update the proposal threshold. This operation can only be performed through a governance proposal. Emits a {ProposalThresholdSet} event."
      },
      "setVotingDelay(uint256)": {
        "details": "Update the voting delay. This operation can only be performed through a governance proposal. Emits a {VotingDelaySet} event."
      },
      "setVotingPeriod(uint256)": {
        "details": "Update the voting period. This operation can only be performed through a governance proposal. Emits a {VotingPeriodSet} event."
      },
      "timelock()": {
        "details": "Public accessor to check the address of the timelock"
      },
      "updateQuorumNumerator(uint256)": {
        "details": "Changes the quorum numerator. Emits a {QuorumNumeratorUpdated} event. Requirements: - Must be called through a governance proposal. - New numerator must be smaller or equal to the denominator."
      },
      "updateTimelock(address)": {
        "details": "Public endpoint to update the underlying timelock instance. Restricted to the timelock itself, so updates must be proposed, scheduled, and executed through governance proposals. CAUTION: It is not recommended to change the timelock while there are other queued governance proposals."
      },
      "version()": {
        "details": "See {IGovernor-version}."
      }
    },
    "version": 1
  },
  "userdoc": {
    "kind": "user",
    "methods": {},
    "version": 1
  },
  "storageLayout": {
    "storage": [
      {
        "astId": 448,
        "contract": "contracts/governance/GovernorContract.sol:GovernorContract",
        "label": "_name",
        "offset": 0,
        "slot": "0",
        "type": "t_string_storage"
      },
      {
        "astId": 453,
        "contract": "contracts/governance/GovernorContract.sol:GovernorContract",
        "label": "_proposals",
        "offset": 0,
        "slot": "1",
        "type": "t_mapping(t_uint256,t_struct(ProposalCore)446_storage)"
      },
      {
        "astId": 456,
        "contract": "contracts/governance/GovernorContract.sol:GovernorContract",
        "label": "_governanceCall",
        "offset": 0,
        "slot": "2",
        "type": "t_struct(Bytes32Deque)9199_storage"
      },
      {
        "astId": 3141,
        "contract": "contracts/governance/GovernorContract.sol:GovernorContract",
        "label": "_votingDelay",
        "offset": 0,
        "slot": "4",
        "type": "t_uint256"
      },
      {
        "astId": 3143,
        "contract": "contracts/governance/GovernorContract.sol:GovernorContract",
        "label": "_votingPeriod",
        "offset": 0,
        "slot": "5",
        "type": "t_uint256"
      },
      {
        "astId": 3145,
        "contract": "contracts/governance/GovernorContract.sol:GovernorContract",
        "label": "_proposalThreshold",
        "offset": 0,
        "slot": "6",
        "type": "t_uint256"
      },
      {
        "astId": 2933,
        "contract": "contracts/governance/GovernorContract.sol:GovernorContract",
        "label": "_proposalVotes",
        "offset": 0,
        "slot": "7",
        "type": "t_mapping(t_uint256,t_struct(ProposalVote)2928_storage)"
      },
      {
        "astId": 3744,
        "contract": "contracts/governance/GovernorContract.sol:GovernorContract",
        "label": "_quorumNumerator",
        "offset": 0,
        "slot": "8",
        "type": "t_uint256"
      },
      {
        "astId": 3747,
        "contract": "contracts/governance/GovernorContract.sol:GovernorContract",
        "label": "_quorumNumeratorHistory",
        "offset": 0,
        "slot": "9",
        "type": "t_struct(History)4451_storage"
      },
      {
        "astId": 3324,
        "contract": "contracts/governance/GovernorContract.sol:GovernorContract",
        "label": "_timelock",
        "offset": 0,
        "slot": "10",
        "type": "t_contract(TimelockController)2907"
      },
      {
        "astId": 3328,
        "contract": "contracts/governance/GovernorContract.sol:GovernorContract",
        "label": "_timelockIds",
        "offset": 0,
        "slot": "11",
        "type": "t_mapping(t_uint256,t_bytes32)"
      },
      {
        "astId": 9545,
        "contract": "contracts/governance/GovernorContract.sol:GovernorContract",
        "label": "isDAOMember",
        "offset": 0,
        "slot": "12",
        "type": "t_mapping(t_address,t_bool)"
      },
      {
        "astId": 9550,
        "contract": "contracts/governance/GovernorContract.sol:GovernorContract",
        "label": "userToPatentClaims",
        "offset": 0,
        "slot": "13",
        "type": "t_mapping(t_address,t_array(t_uint256)dyn_storage)"
      }
    ],
    "types": {
      "t_address": {
        "encoding": "inplace",
        "label": "address",
        "numberOfBytes": "20"
      },
      "t_array(t_struct(Checkpoint)4456_storage)dyn_storage": {
        "base": "t_struct(Checkpoint)4456_storage",
        "encoding": "dynamic_array",
        "label": "struct Checkpoints.Checkpoint[]",
        "numberOfBytes": "32"
      },
      "t_array(t_uint256)dyn_storage": {
        "base": "t_uint256",
        "encoding": "dynamic_array",
        "label": "uint256[]",
        "numberOfBytes": "32"
      },
      "t_bool": {
        "encoding": "inplace",
        "label": "bool",
        "numberOfBytes": "1"
      },
      "t_bytes32": {
        "encoding": "inplace",
        "label": "bytes32",
        "numberOfBytes": "32"
      },
      "t_contract(TimelockController)2907": {
        "encoding": "inplace",
        "label": "contract TimelockController",
        "numberOfBytes": "20"
      },
      "t_int128": {
        "encoding": "inplace",
        "label": "int128",
        "numberOfBytes": "16"
      },
      "t_mapping(t_address,t_array(t_uint256)dyn_storage)": {
        "encoding": "mapping",
        "key": "t_address",
        "label": "mapping(address => uint256[])",
        "numberOfBytes": "32",
        "value": "t_array(t_uint256)dyn_storage"
      },
      "t_mapping(t_address,t_bool)": {
        "encoding": "mapping",
        "key": "t_address",
        "label": "mapping(address => bool)",
        "numberOfBytes": "32",
        "value": "t_bool"
      },
      "t_mapping(t_int128,t_bytes32)": {
        "encoding": "mapping",
        "key": "t_int128",
        "label": "mapping(int128 => bytes32)",
        "numberOfBytes": "32",
        "value": "t_bytes32"
      },
      "t_mapping(t_uint256,t_bytes32)": {
        "encoding": "mapping",
        "key": "t_uint256",
        "label": "mapping(uint256 => bytes32)",
        "numberOfBytes": "32",
        "value": "t_bytes32"
      },
      "t_mapping(t_uint256,t_struct(ProposalCore)446_storage)": {
        "encoding": "mapping",
        "key": "t_uint256",
        "label": "mapping(uint256 => struct Governor.ProposalCore)",
        "numberOfBytes": "32",
        "value": "t_struct(ProposalCore)446_storage"
      },
      "t_mapping(t_uint256,t_struct(ProposalVote)2928_storage)": {
        "encoding": "mapping",
        "key": "t_uint256",
        "label": "mapping(uint256 => struct GovernorCountingSimple.ProposalVote)",
        "numberOfBytes": "32",
        "value": "t_struct(ProposalVote)2928_storage"
      },
      "t_string_storage": {
        "encoding": "bytes",
        "label": "string",
        "numberOfBytes": "32"
      },
      "t_struct(BlockNumber)6120_storage": {
        "encoding": "inplace",
        "label": "struct Timers.BlockNumber",
        "members": [
          {
            "astId": 6119,
            "contract": "contracts/governance/GovernorContract.sol:GovernorContract",
            "label": "_deadline",
            "offset": 0,
            "slot": "0",
            "type": "t_uint64"
          }
        ],
        "numberOfBytes": "32"
      },
      "t_struct(Bytes32Deque)9199_storage": {
        "encoding": "inplace",
        "label": "struct DoubleEndedQueue.Bytes32Deque",
        "members": [
          {
            "astId": 9192,
            "contract": "contracts/governance/GovernorContract.sol:GovernorContract",
            "label": "_begin",
            "offset": 0,
            "slot": "0",
            "type": "t_int128"
          },
          {
            "astId": 9194,
            "contract": "contracts/governance/GovernorContract.sol:GovernorContract",
            "label": "_end",
            "offset": 16,
            "slot": "0",
            "type": "t_int128"
          },
          {
            "astId": 9198,
            "contract": "contracts/governance/GovernorContract.sol:GovernorContract",
            "label": "_data",
            "offset": 0,
            "slot": "1",
            "type": "t_mapping(t_int128,t_bytes32)"
          }
        ],
        "numberOfBytes": "64"
      },
      "t_struct(Checkpoint)4456_storage": {
        "encoding": "inplace",
        "label": "struct Checkpoints.Checkpoint",
        "members": [
          {
            "astId": 4453,
            "contract": "contracts/governance/GovernorContract.sol:GovernorContract",
            "label": "_blockNumber",
            "offset": 0,
            "slot": "0",
            "type": "t_uint32"
          },
          {
            "astId": 4455,
            "contract": "contracts/governance/GovernorContract.sol:GovernorContract",
            "label": "_value",
            "offset": 4,
            "slot": "0",
            "type": "t_uint224"
          }
        ],
        "numberOfBytes": "32"
      },
      "t_struct(History)4451_storage": {
        "encoding": "inplace",
        "label": "struct Checkpoints.History",
        "members": [
          {
            "astId": 4450,
            "contract": "contracts/governance/GovernorContract.sol:GovernorContract",
            "label": "_checkpoints",
            "offset": 0,
            "slot": "0",
            "type": "t_array(t_struct(Checkpoint)4456_storage)dyn_storage"
          }
        ],
        "numberOfBytes": "32"
      },
      "t_struct(ProposalCore)446_storage": {
        "encoding": "inplace",
        "label": "struct Governor.ProposalCore",
        "members": [
          {
            "astId": 438,
            "contract": "contracts/governance/GovernorContract.sol:GovernorContract",
            "label": "voteStart",
            "offset": 0,
            "slot": "0",
            "type": "t_struct(BlockNumber)6120_storage"
          },
          {
            "astId": 441,
            "contract": "contracts/governance/GovernorContract.sol:GovernorContract",
            "label": "voteEnd",
            "offset": 0,
            "slot": "1",
            "type": "t_struct(BlockNumber)6120_storage"
          },
          {
            "astId": 443,
            "contract": "contracts/governance/GovernorContract.sol:GovernorContract",
            "label": "executed",
            "offset": 0,
            "slot": "2",
            "type": "t_bool"
          },
          {
            "astId": 445,
            "contract": "contracts/governance/GovernorContract.sol:GovernorContract",
            "label": "canceled",
            "offset": 1,
            "slot": "2",
            "type": "t_bool"
          }
        ],
        "numberOfBytes": "96"
      },
      "t_struct(ProposalVote)2928_storage": {
        "encoding": "inplace",
        "label": "struct GovernorCountingSimple.ProposalVote",
        "members": [
          {
            "astId": 2919,
            "contract": "contracts/governance/GovernorContract.sol:GovernorContract",
            "label": "againstVotes",
            "offset": 0,
            "slot": "0",
            "type": "t_uint256"
          },
          {
            "astId": 2921,
            "contract": "contracts/governance/GovernorContract.sol:GovernorContract",
            "label": "forVotes",
            "offset": 0,
            "slot": "1",
            "type": "t_uint256"
          },
          {
            "astId": 2923,
            "contract": "contracts/governance/GovernorContract.sol:GovernorContract",
            "label": "abstainVotes",
            "offset": 0,
            "slot": "2",
            "type": "t_uint256"
          },
          {
            "astId": 2927,
            "contract": "contracts/governance/GovernorContract.sol:GovernorContract",
            "label": "hasVoted",
            "offset": 0,
            "slot": "3",
            "type": "t_mapping(t_address,t_bool)"
          }
        ],
        "numberOfBytes": "128"
      },
      "t_uint224": {
        "encoding": "inplace",
        "label": "uint224",
        "numberOfBytes": "28"
      },
      "t_uint256": {
        "encoding": "inplace",
        "label": "uint256",
        "numberOfBytes": "32"
      },
      "t_uint32": {
        "encoding": "inplace",
        "label": "uint32",
        "numberOfBytes": "4"
      },
      "t_uint64": {
        "encoding": "inplace",
        "label": "uint64",
        "numberOfBytes": "8"
      }
    }
  }
}