{
  "_format": "hh-sol-artifact-1",
  "contractName": "GovernorContract",
  "sourceName": "contracts/governance/GovernorContract.sol",
  "abi": [
    {
      "inputs": [
        {
          "internalType": "string",
          "name": "deployerName",
          "type": "string"
        },
        {
          "internalType": "contract TimelockController",
          "name": "_timelock",
          "type": "address"
        },
        {
          "internalType": "uint256",
          "name": "_votingPeriod",
          "type": "uint256"
        },
        {
          "internalType": "uint256",
          "name": "_votingDelay",
          "type": "uint256"
        },
        {
          "internalType": "uint256",
          "name": "_quorumPercentage",
          "type": "uint256"
        }
      ],
      "stateMutability": "payable",
      "type": "constructor"
    },
    {
      "inputs": [],
      "name": "Empty",
      "type": "error"
    },
    {
      "anonymous": false,
      "inputs": [
        {
          "indexed": false,
          "internalType": "uint256",
          "name": "proposalId",
          "type": "uint256"
        }
      ],
      "name": "ProposalCanceled",
      "type": "event"
    },
    {
      "anonymous": false,
      "inputs": [
        {
          "indexed": false,
          "internalType": "uint256",
          "name": "proposalId",
          "type": "uint256"
        },
        {
          "indexed": false,
          "internalType": "address",
          "name": "proposer",
          "type": "address"
        },
        {
          "indexed": false,
          "internalType": "address[]",
          "name": "targets",
          "type": "address[]"
        },
        {
          "indexed": false,
          "internalType": "uint256[]",
          "name": "values",
          "type": "uint256[]"
        },
        {
          "indexed": false,
          "internalType": "string[]",
          "name": "signatures",
          "type": "string[]"
        },
        {
          "indexed": false,
          "internalType": "bytes[]",
          "name": "calldatas",
          "type": "bytes[]"
        },
        {
          "indexed": false,
          "internalType": "uint256",
          "name": "startBlock",
          "type": "uint256"
        },
        {
          "indexed": false,
          "internalType": "uint256",
          "name": "endBlock",
          "type": "uint256"
        },
        {
          "indexed": false,
          "internalType": "string",
          "name": "description",
          "type": "string"
        }
      ],
      "name": "ProposalCreated",
      "type": "event"
    },
    {
      "anonymous": false,
      "inputs": [
        {
          "indexed": false,
          "internalType": "uint256",
          "name": "proposalId",
          "type": "uint256"
        }
      ],
      "name": "ProposalExecuted",
      "type": "event"
    },
    {
      "anonymous": false,
      "inputs": [
        {
          "indexed": false,
          "internalType": "uint256",
          "name": "proposalId",
          "type": "uint256"
        },
        {
          "indexed": false,
          "internalType": "uint256",
          "name": "eta",
          "type": "uint256"
        }
      ],
      "name": "ProposalQueued",
      "type": "event"
    },
    {
      "anonymous": false,
      "inputs": [
        {
          "indexed": false,
          "internalType": "uint256",
          "name": "oldProposalThreshold",
          "type": "uint256"
        },
        {
          "indexed": false,
          "internalType": "uint256",
          "name": "newProposalThreshold",
          "type": "uint256"
        }
      ],
      "name": "ProposalThresholdSet",
      "type": "event"
    },
    {
      "anonymous": false,
      "inputs": [
        {
          "indexed": false,
          "internalType": "address",
          "name": "oldTimelock",
          "type": "address"
        },
        {
          "indexed": false,
          "internalType": "address",
          "name": "newTimelock",
          "type": "address"
        }
      ],
      "name": "TimelockChange",
      "type": "event"
    },
    {
      "anonymous": false,
      "inputs": [
        {
          "indexed": true,
          "internalType": "address",
          "name": "voter",
          "type": "address"
        },
        {
          "indexed": false,
          "internalType": "uint256",
          "name": "proposalId",
          "type": "uint256"
        },
        {
          "indexed": false,
          "internalType": "uint8",
          "name": "support",
          "type": "uint8"
        },
        {
          "indexed": false,
          "internalType": "uint256",
          "name": "weight",
          "type": "uint256"
        },
        {
          "indexed": false,
          "internalType": "string",
          "name": "reason",
          "type": "string"
        }
      ],
      "name": "VoteCast",
      "type": "event"
    },
    {
      "anonymous": false,
      "inputs": [
        {
          "indexed": true,
          "internalType": "address",
          "name": "voter",
          "type": "address"
        },
        {
          "indexed": false,
          "internalType": "uint256",
          "name": "proposalId",
          "type": "uint256"
        },
        {
          "indexed": false,
          "internalType": "uint8",
          "name": "support",
          "type": "uint8"
        },
        {
          "indexed": false,
          "internalType": "uint256",
          "name": "weight",
          "type": "uint256"
        },
        {
          "indexed": false,
          "internalType": "string",
          "name": "reason",
          "type": "string"
        },
        {
          "indexed": false,
          "internalType": "bytes",
          "name": "params",
          "type": "bytes"
        }
      ],
      "name": "VoteCastWithParams",
      "type": "event"
    },
    {
      "anonymous": false,
      "inputs": [
        {
          "indexed": false,
          "internalType": "uint256",
          "name": "oldVotingDelay",
          "type": "uint256"
        },
        {
          "indexed": false,
          "internalType": "uint256",
          "name": "newVotingDelay",
          "type": "uint256"
        }
      ],
      "name": "VotingDelaySet",
      "type": "event"
    },
    {
      "anonymous": false,
      "inputs": [
        {
          "indexed": false,
          "internalType": "uint256",
          "name": "oldVotingPeriod",
          "type": "uint256"
        },
        {
          "indexed": false,
          "internalType": "uint256",
          "name": "newVotingPeriod",
          "type": "uint256"
        }
      ],
      "name": "VotingPeriodSet",
      "type": "event"
    },
    {
      "inputs": [],
      "name": "BALLOT_TYPEHASH",
      "outputs": [
        {
          "internalType": "bytes32",
          "name": "",
          "type": "bytes32"
        }
      ],
      "stateMutability": "view",
      "type": "function"
    },
    {
      "inputs": [],
      "name": "COUNTING_MODE",
      "outputs": [
        {
          "internalType": "string",
          "name": "",
          "type": "string"
        }
      ],
      "stateMutability": "pure",
      "type": "function"
    },
    {
      "inputs": [],
      "name": "EXTENDED_BALLOT_TYPEHASH",
      "outputs": [
        {
          "internalType": "bytes32",
          "name": "",
          "type": "bytes32"
        }
      ],
      "stateMutability": "view",
      "type": "function"
    },
    {
      "inputs": [],
      "name": "FALSE_CLAIM_FEE",
      "outputs": [
        {
          "internalType": "uint256",
          "name": "",
          "type": "uint256"
        }
      ],
      "stateMutability": "view",
      "type": "function"
    },
    {
      "inputs": [],
      "name": "PROPOSAL_FEE",
      "outputs": [
        {
          "internalType": "uint256",
          "name": "",
          "type": "uint256"
        }
      ],
      "stateMutability": "view",
      "type": "function"
    },
    {
      "inputs": [
        {
          "internalType": "address",
          "name": "newMember",
          "type": "address"
        },
        {
          "internalType": "string",
          "name": "name",
          "type": "string"
        }
      ],
      "name": "addDAOMember",
      "outputs": [],
      "stateMutability": "nonpayable",
      "type": "function"
    },
    {
      "inputs": [
        {
          "internalType": "address",
          "name": "",
          "type": "address"
        }
      ],
      "name": "addressToDaoMembers",
      "outputs": [
        {
          "internalType": "uint256",
          "name": "",
          "type": "uint256"
        }
      ],
      "stateMutability": "view",
      "type": "function"
    },
    {
      "inputs": [
        {
          "internalType": "uint256",
          "name": "",
          "type": "uint256"
        }
      ],
      "name": "allProposals",
      "outputs": [
        {
          "internalType": "uint256",
          "name": "",
          "type": "uint256"
        }
      ],
      "stateMutability": "view",
      "type": "function"
    },
    {
      "inputs": [],
      "name": "applicationsPointer",
      "outputs": [
        {
          "internalType": "uint256",
          "name": "",
          "type": "uint256"
        }
      ],
      "stateMutability": "view",
      "type": "function"
    },
    {
      "inputs": [
        {
          "internalType": "uint256",
          "name": "applierPatentTokenId",
          "type": "uint256"
        },
        {
          "internalType": "uint256",
          "name": "falsePatentTokenId",
          "type": "uint256"
        },
        {
          "internalType": "string",
          "name": "metadataURI",
          "type": "string"
        }
      ],
      "name": "applyFalseClaim",
      "outputs": [],
      "stateMutability": "payable",
      "type": "function"
    },
    {
      "inputs": [
        {
          "internalType": "string",
          "name": "metadataURI",
          "type": "string"
        }
      ],
      "name": "applyPatent",
      "outputs": [],
      "stateMutability": "payable",
      "type": "function"
    },
    {
      "inputs": [
        {
          "internalType": "uint256",
          "name": "proposalId",
          "type": "uint256"
        },
        {
          "internalType": "uint8",
          "name": "support",
          "type": "uint8"
        }
      ],
      "name": "castVote",
      "outputs": [
        {
          "internalType": "uint256",
          "name": "",
          "type": "uint256"
        }
      ],
      "stateMutability": "nonpayable",
      "type": "function"
    },
    {
      "inputs": [
        {
          "internalType": "uint256",
          "name": "proposalId",
          "type": "uint256"
        },
        {
          "internalType": "uint8",
          "name": "support",
          "type": "uint8"
        },
        {
          "internalType": "uint8",
          "name": "v",
          "type": "uint8"
        },
        {
          "internalType": "bytes32",
          "name": "r",
          "type": "bytes32"
        },
        {
          "internalType": "bytes32",
          "name": "s",
          "type": "bytes32"
        }
      ],
      "name": "castVoteBySig",
      "outputs": [
        {
          "internalType": "uint256",
          "name": "",
          "type": "uint256"
        }
      ],
      "stateMutability": "nonpayable",
      "type": "function"
    },
    {
      "inputs": [
        {
          "internalType": "uint256",
          "name": "proposalId",
          "type": "uint256"
        },
        {
          "internalType": "uint8",
          "name": "support",
          "type": "uint8"
        },
        {
          "internalType": "string",
          "name": "reason",
          "type": "string"
        }
      ],
      "name": "castVoteWithReason",
      "outputs": [
        {
          "internalType": "uint256",
          "name": "",
          "type": "uint256"
        }
      ],
      "stateMutability": "nonpayable",
      "type": "function"
    },
    {
      "inputs": [
        {
          "internalType": "uint256",
          "name": "proposalId",
          "type": "uint256"
        },
        {
          "internalType": "uint8",
          "name": "support",
          "type": "uint8"
        },
        {
          "internalType": "string",
          "name": "reason",
          "type": "string"
        },
        {
          "internalType": "bytes",
          "name": "params",
          "type": "bytes"
        }
      ],
      "name": "castVoteWithReasonAndParams",
      "outputs": [
        {
          "internalType": "uint256",
          "name": "",
          "type": "uint256"
        }
      ],
      "stateMutability": "nonpayable",
      "type": "function"
    },
    {
      "inputs": [
        {
          "internalType": "uint256",
          "name": "proposalId",
          "type": "uint256"
        },
        {
          "internalType": "uint8",
          "name": "support",
          "type": "uint8"
        },
        {
          "internalType": "string",
          "name": "reason",
          "type": "string"
        },
        {
          "internalType": "bytes",
          "name": "params",
          "type": "bytes"
        },
        {
          "internalType": "uint8",
          "name": "v",
          "type": "uint8"
        },
        {
          "internalType": "bytes32",
          "name": "r",
          "type": "bytes32"
        },
        {
          "internalType": "bytes32",
          "name": "s",
          "type": "bytes32"
        }
      ],
      "name": "castVoteWithReasonAndParamsBySig",
      "outputs": [
        {
          "internalType": "uint256",
          "name": "",
          "type": "uint256"
        }
      ],
      "stateMutability": "nonpayable",
      "type": "function"
    },
    {
      "inputs": [],
      "name": "daoMemberCount",
      "outputs": [
        {
          "internalType": "uint256",
          "name": "",
          "type": "uint256"
        }
      ],
      "stateMutability": "view",
      "type": "function"
    },
    {
      "inputs": [
        {
          "internalType": "address[]",
          "name": "targets",
          "type": "address[]"
        },
        {
          "internalType": "uint256[]",
          "name": "values",
          "type": "uint256[]"
        },
        {
          "internalType": "bytes[]",
          "name": "calldatas",
          "type": "bytes[]"
        },
        {
          "internalType": "bytes32",
          "name": "descriptionHash",
          "type": "bytes32"
        }
      ],
      "name": "execute",
      "outputs": [
        {
          "internalType": "uint256",
          "name": "",
          "type": "uint256"
        }
      ],
      "stateMutability": "payable",
      "type": "function"
    },
    {
      "inputs": [],
      "name": "falseClaimPointer",
      "outputs": [
        {
          "internalType": "uint256",
          "name": "",
          "type": "uint256"
        }
      ],
      "stateMutability": "view",
      "type": "function"
    },
    {
      "inputs": [],
      "name": "getAllDaoMembers",
      "outputs": [
        {
          "components": [
            {
              "internalType": "string",
              "name": "name",
              "type": "string"
            },
            {
              "internalType": "address",
              "name": "walletAddress",
              "type": "address"
            },
            {
              "internalType": "uint256",
              "name": "joinedAt",
              "type": "uint256"
            },
            {
              "internalType": "uint256",
              "name": "leftAt",
              "type": "uint256"
            }
          ],
          "internalType": "struct GovernorContract.DAOMember[]",
          "name": "_daoMembers",
          "type": "tuple[]"
        }
      ],
      "stateMutability": "view",
      "type": "function"
    },
    {
      "inputs": [],
      "name": "getAllProposals",
      "outputs": [
        {
          "components": [
            {
              "internalType": "uint256",
              "name": "proposalId",
              "type": "uint256"
            },
            {
              "internalType": "string",
              "name": "description",
              "type": "string"
            },
            {
              "internalType": "enum IGovernor.ProposalState",
              "name": "state",
              "type": "uint8"
            },
            {
              "components": [
                {
                  "internalType": "uint256",
                  "name": "againstVotes",
                  "type": "uint256"
                },
                {
                  "internalType": "uint256",
                  "name": "forVotes",
                  "type": "uint256"
                },
                {
                  "internalType": "uint256",
                  "name": "abstainVotes",
                  "type": "uint256"
                }
              ],
              "internalType": "struct GovernorContract.Votes",
              "name": "votes",
              "type": "tuple"
            }
          ],
          "internalType": "struct GovernorContract.Proposal[]",
          "name": "_proposals",
          "type": "tuple[]"
        }
      ],
      "stateMutability": "view",
      "type": "function"
    },
    {
      "inputs": [
        {
          "internalType": "address",
          "name": "user",
          "type": "address"
        }
      ],
      "name": "getFalseClaims",
      "outputs": [
        {
          "components": [
            {
              "internalType": "address",
              "name": "claimerWalletAddress",
              "type": "address"
            },
            {
              "internalType": "uint256",
              "name": "applierTokenId",
              "type": "uint256"
            },
            {
              "internalType": "uint256",
              "name": "falsePatentTokenId",
              "type": "uint256"
            },
            {
              "internalType": "string",
              "name": "metadata",
              "type": "string"
            },
            {
              "internalType": "uint256",
              "name": "claimedOn",
              "type": "uint256"
            }
          ],
          "internalType": "struct GovernorContract.FalseClaim[]",
          "name": "_falseClaims",
          "type": "tuple[]"
        }
      ],
      "stateMutability": "view",
      "type": "function"
    },
    {
      "inputs": [
        {
          "internalType": "address",
          "name": "user",
          "type": "address"
        }
      ],
      "name": "getPatentClaims",
      "outputs": [
        {
          "components": [
            {
              "internalType": "address",
              "name": "walletAddress",
              "type": "address"
            },
            {
              "internalType": "string",
              "name": "metadata",
              "type": "string"
            },
            {
              "internalType": "uint256",
              "name": "appliedOn",
              "type": "uint256"
            }
          ],
          "internalType": "struct GovernorContract.Application[]",
          "name": "_applications",
          "type": "tuple[]"
        }
      ],
      "stateMutability": "view",
      "type": "function"
    },
    {
      "inputs": [
        {
          "internalType": "uint256",
          "name": "proposalId",
          "type": "uint256"
        },
        {
          "internalType": "address",
          "name": "account",
          "type": "address"
        }
      ],
      "name": "hasVoted",
      "outputs": [
        {
          "internalType": "bool",
          "name": "",
          "type": "bool"
        }
      ],
      "stateMutability": "view",
      "type": "function"
    },
    {
      "inputs": [
        {
          "internalType": "address[]",
          "name": "targets",
          "type": "address[]"
        },
        {
          "internalType": "uint256[]",
          "name": "values",
          "type": "uint256[]"
        },
        {
          "internalType": "bytes[]",
          "name": "calldatas",
          "type": "bytes[]"
        },
        {
          "internalType": "bytes32",
          "name": "descriptionHash",
          "type": "bytes32"
        }
      ],
      "name": "hashProposal",
      "outputs": [
        {
          "internalType": "uint256",
          "name": "",
          "type": "uint256"
        }
      ],
      "stateMutability": "pure",
      "type": "function"
    },
    {
      "inputs": [
        {
          "internalType": "address",
          "name": "",
          "type": "address"
        }
      ],
      "name": "isDAOMember",
      "outputs": [
        {
          "internalType": "bool",
          "name": "",
          "type": "bool"
        }
      ],
      "stateMutability": "view",
      "type": "function"
    },
    {
      "inputs": [],
      "name": "leaveDAO",
      "outputs": [],
      "stateMutability": "nonpayable",
      "type": "function"
    },
    {
      "inputs": [],
      "name": "name",
      "outputs": [
        {
          "internalType": "string",
          "name": "",
          "type": "string"
        }
      ],
      "stateMutability": "view",
      "type": "function"
    },
    {
      "inputs": [
        {
          "internalType": "address",
          "name": "",
          "type": "address"
        },
        {
          "internalType": "address",
          "name": "",
          "type": "address"
        },
        {
          "internalType": "uint256[]",
          "name": "",
          "type": "uint256[]"
        },
        {
          "internalType": "uint256[]",
          "name": "",
          "type": "uint256[]"
        },
        {
          "internalType": "bytes",
          "name": "",
          "type": "bytes"
        }
      ],
      "name": "onERC1155BatchReceived",
      "outputs": [
        {
          "internalType": "bytes4",
          "name": "",
          "type": "bytes4"
        }
      ],
      "stateMutability": "nonpayable",
      "type": "function"
    },
    {
      "inputs": [
        {
          "internalType": "address",
          "name": "",
          "type": "address"
        },
        {
          "internalType": "address",
          "name": "",
          "type": "address"
        },
        {
          "internalType": "uint256",
          "name": "",
          "type": "uint256"
        },
        {
          "internalType": "uint256",
          "name": "",
          "type": "uint256"
        },
        {
          "internalType": "bytes",
          "name": "",
          "type": "bytes"
        }
      ],
      "name": "onERC1155Received",
      "outputs": [
        {
          "internalType": "bytes4",
          "name": "",
          "type": "bytes4"
        }
      ],
      "stateMutability": "nonpayable",
      "type": "function"
    },
    {
      "inputs": [
        {
          "internalType": "address",
          "name": "",
          "type": "address"
        },
        {
          "internalType": "address",
          "name": "",
          "type": "address"
        },
        {
          "internalType": "uint256",
          "name": "",
          "type": "uint256"
        },
        {
          "internalType": "bytes",
          "name": "",
          "type": "bytes"
        }
      ],
      "name": "onERC721Received",
      "outputs": [
        {
          "internalType": "bytes4",
          "name": "",
          "type": "bytes4"
        }
      ],
      "stateMutability": "nonpayable",
      "type": "function"
    },
    {
      "inputs": [
        {
          "internalType": "uint256",
          "name": "proposalId",
          "type": "uint256"
        }
      ],
      "name": "proposalDeadline",
      "outputs": [
        {
          "internalType": "uint256",
          "name": "",
          "type": "uint256"
        }
      ],
      "stateMutability": "view",
      "type": "function"
    },
    {
      "inputs": [
        {
          "internalType": "uint256",
          "name": "proposalId",
          "type": "uint256"
        }
      ],
      "name": "proposalEta",
      "outputs": [
        {
          "internalType": "uint256",
          "name": "",
          "type": "uint256"
        }
      ],
      "stateMutability": "view",
      "type": "function"
    },
    {
      "inputs": [
        {
          "internalType": "uint256",
          "name": "proposalId",
          "type": "uint256"
        }
      ],
      "name": "proposalSnapshot",
      "outputs": [
        {
          "internalType": "uint256",
          "name": "",
          "type": "uint256"
        }
      ],
      "stateMutability": "view",
      "type": "function"
    },
    {
      "inputs": [],
      "name": "proposalThreshold",
      "outputs": [
        {
          "internalType": "uint256",
          "name": "",
          "type": "uint256"
        }
      ],
      "stateMutability": "view",
      "type": "function"
    },
    {
      "inputs": [
        {
          "internalType": "uint256",
          "name": "proposalId",
          "type": "uint256"
        }
      ],
      "name": "proposalVotes",
      "outputs": [
        {
          "internalType": "uint256",
          "name": "againstVotes",
          "type": "uint256"
        },
        {
          "internalType": "uint256",
          "name": "forVotes",
          "type": "uint256"
        },
        {
          "internalType": "uint256",
          "name": "abstainVotes",
          "type": "uint256"
        }
      ],
      "stateMutability": "view",
      "type": "function"
    },
    {
      "inputs": [
        {
          "internalType": "uint256",
          "name": "",
          "type": "uint256"
        }
      ],
      "name": "proposalsDescription",
      "outputs": [
        {
          "internalType": "string",
          "name": "",
          "type": "string"
        }
      ],
      "stateMutability": "view",
      "type": "function"
    },
    {
      "inputs": [
        {
          "internalType": "address[]",
          "name": "targets",
          "type": "address[]"
        },
        {
          "internalType": "uint256[]",
          "name": "values",
          "type": "uint256[]"
        },
        {
          "internalType": "bytes[]",
          "name": "calldatas",
          "type": "bytes[]"
        },
        {
          "internalType": "string",
          "name": "description",
          "type": "string"
        }
      ],
      "name": "propose",
      "outputs": [
        {
          "internalType": "uint256",
          "name": "",
          "type": "uint256"
        }
      ],
      "stateMutability": "nonpayable",
      "type": "function"
    },
    {
      "inputs": [
        {
          "internalType": "address[]",
          "name": "targets",
          "type": "address[]"
        },
        {
          "internalType": "uint256[]",
          "name": "values",
          "type": "uint256[]"
        },
        {
          "internalType": "bytes[]",
          "name": "calldatas",
          "type": "bytes[]"
        },
        {
          "internalType": "bytes32",
          "name": "descriptionHash",
          "type": "bytes32"
        }
      ],
      "name": "queue",
      "outputs": [
        {
          "internalType": "uint256",
          "name": "",
          "type": "uint256"
        }
      ],
      "stateMutability": "nonpayable",
      "type": "function"
    },
    {
      "inputs": [],
      "name": "quorum",
      "outputs": [
        {
          "internalType": "uint256",
          "name": "",
          "type": "uint256"
        }
      ],
      "stateMutability": "view",
      "type": "function"
    },
    {
      "inputs": [],
      "name": "quorumPercentage",
      "outputs": [
        {
          "internalType": "uint256",
          "name": "",
          "type": "uint256"
        }
      ],
      "stateMutability": "view",
      "type": "function"
    },
    {
      "inputs": [
        {
          "internalType": "address",
          "name": "target",
          "type": "address"
        },
        {
          "internalType": "uint256",
          "name": "value",
          "type": "uint256"
        },
        {
          "internalType": "bytes",
          "name": "data",
          "type": "bytes"
        }
      ],
      "name": "relay",
      "outputs": [],
      "stateMutability": "payable",
      "type": "function"
    },
    {
      "inputs": [
        {
          "internalType": "uint256",
          "name": "newProposalThreshold",
          "type": "uint256"
        }
      ],
      "name": "setProposalThreshold",
      "outputs": [],
      "stateMutability": "nonpayable",
      "type": "function"
    },
    {
      "inputs": [
        {
          "internalType": "uint256",
          "name": "newVotingDelay",
          "type": "uint256"
        }
      ],
      "name": "setVotingDelay",
      "outputs": [],
      "stateMutability": "nonpayable",
      "type": "function"
    },
    {
      "inputs": [
        {
          "internalType": "uint256",
          "name": "newVotingPeriod",
          "type": "uint256"
        }
      ],
      "name": "setVotingPeriod",
      "outputs": [],
      "stateMutability": "nonpayable",
      "type": "function"
    },
    {
      "inputs": [
        {
          "internalType": "uint256",
          "name": "proposalId",
          "type": "uint256"
        }
      ],
      "name": "state",
      "outputs": [
        {
          "internalType": "enum IGovernor.ProposalState",
          "name": "",
          "type": "uint8"
        }
      ],
      "stateMutability": "view",
      "type": "function"
    },
    {
      "inputs": [
        {
          "internalType": "bytes4",
          "name": "interfaceId",
          "type": "bytes4"
        }
      ],
      "name": "supportsInterface",
      "outputs": [
        {
          "internalType": "bool",
          "name": "",
          "type": "bool"
        }
      ],
      "stateMutability": "view",
      "type": "function"
    },
    {
      "inputs": [],
      "name": "timelock",
      "outputs": [
        {
          "internalType": "address",
          "name": "",
          "type": "address"
        }
      ],
      "stateMutability": "view",
      "type": "function"
    },
    {
      "inputs": [],
      "name": "treasury",
      "outputs": [
        {
          "internalType": "uint256",
          "name": "",
          "type": "uint256"
        }
      ],
      "stateMutability": "view",
      "type": "function"
    },
    {
      "inputs": [
        {
          "internalType": "contract TimelockController",
          "name": "newTimelock",
          "type": "address"
        }
      ],
      "name": "updateTimelock",
      "outputs": [],
      "stateMutability": "nonpayable",
      "type": "function"
    },
    {
      "inputs": [
        {
          "internalType": "address",
          "name": "",
          "type": "address"
        },
        {
          "internalType": "uint256",
          "name": "",
          "type": "uint256"
        }
      ],
      "name": "userToFalseClaims",
      "outputs": [
        {
          "internalType": "uint256",
          "name": "",
          "type": "uint256"
        }
      ],
      "stateMutability": "view",
      "type": "function"
    },
    {
      "inputs": [
        {
          "internalType": "address",
          "name": "",
          "type": "address"
        },
        {
          "internalType": "uint256",
          "name": "",
          "type": "uint256"
        }
      ],
      "name": "userToPatentClaims",
      "outputs": [
        {
          "internalType": "uint256",
          "name": "",
          "type": "uint256"
        }
      ],
      "stateMutability": "view",
      "type": "function"
    },
    {
      "inputs": [],
      "name": "version",
      "outputs": [
        {
          "internalType": "string",
          "name": "",
          "type": "string"
        }
      ],
      "stateMutability": "view",
      "type": "function"
    },
    {
      "inputs": [],
      "name": "votingDelay",
      "outputs": [
        {
          "internalType": "uint256",
          "name": "",
          "type": "uint256"
        }
      ],
      "stateMutability": "view",
      "type": "function"
    },
    {
      "inputs": [],
      "name": "votingPeriod",
      "outputs": [
        {
          "internalType": "uint256",
          "name": "",
          "type": "uint256"
        }
      ],
      "stateMutability": "view",
      "type": "function"
    },
    {
      "stateMutability": "payable",
      "type": "receive"
    }
  ],
  "bytecode": "0x6101406040526040516200830f3803806200830f83398181016040528101906200002a9190620008b6565b83828460006040518060400160405280601081526020017f476f7665726e6f72436f6e74726163740000000000000000000000000000000081525080620000766200038060201b60201c565b60008280519060200120905060008280519060200120905060007f8b73c3c69bb8fe3d512ecc4cf759cc79239f7b179b0ffacaa9a75d522b39400f90508260e081815250508161010081815250504660a08181525050620000df818484620003bd60201b60201c565b608081815250503073ffffffffffffffffffffffffffffffffffffffff1660c08173ffffffffffffffffffffffffffffffffffffffff16815250508061012081815250505050505050806000908051906020019062000140929190620005b5565b50506200015383620003f960201b60201c565b62000164826200044060201b60201c565b6200017581620004cd60201b60201c565b50505062000189816200051460201b60201c565b5083601a60006101000a81548173ffffffffffffffffffffffffffffffffffffffff021916908373ffffffffffffffffffffffffffffffffffffffff16021790555080600b8190555034600a6000828254620001e691906200098c565b92505081905550600c80549050600d60003373ffffffffffffffffffffffffffffffffffffffff1673ffffffffffffffffffffffffffffffffffffffff16815260200190815260200160002081905550600c60405180608001604052808781526020013373ffffffffffffffffffffffffffffffffffffffff168152602001428152602001600081525090806001815401808255809150506001900390600052602060002090600402016000909190919091506000820151816000019080519060200190620002b7929190620005b5565b5060208201518160010160006101000a81548173ffffffffffffffffffffffffffffffffffffffff021916908373ffffffffffffffffffffffffffffffffffffffff160217905550604082015181600201556060820151816003015550506001600e819055506001601960003373ffffffffffffffffffffffffffffffffffffffff1673ffffffffffffffffffffffffffffffffffffffff16815260200190815260200160002060006101000a81548160ff021916908315150217905550505050505062000bff565b60606040518060400160405280600181526020017f3100000000000000000000000000000000000000000000000000000000000000815250905090565b60008383834630604051602001620003da95949392919062000a3a565b6040516020818303038152906040528051906020012090509392505050565b7fc565b045403dc03c2eea82b81a0465edad9e2e7fc4d97e11421c209da93d7a93600454826040516200042e92919062000a97565b60405180910390a18060048190555050565b6000811162000486576040517f08c379a00000000000000000000000000000000000000000000000000000000081526004016200047d9062000b4b565b60405180910390fd5b7f7e3f7f0708a84de9203036abaa450dccc85ad5ff52f78c170f3edb55cf5e882860055482604051620004bb92919062000a97565b60405180910390a18060058190555050565b7fccb45da8d5717e6c4544694297c4ba5cf151d455c9bb0ed4fc7a38411bc05461600654826040516200050292919062000a97565b60405180910390a18060068190555050565b7f08f74ea46ef7894f65eabfb5e6e695de773a000b47c529ab559178069b226401600860009054906101000a900473ffffffffffffffffffffffffffffffffffffffff16826040516200056992919062000b6d565b60405180910390a180600860006101000a81548173ffffffffffffffffffffffffffffffffffffffff021916908373ffffffffffffffffffffffffffffffffffffffff16021790555050565b828054620005c39062000bc9565b90600052602060002090601f016020900481019282620005e7576000855562000633565b82601f106200060257805160ff191683800117855562000633565b8280016001018555821562000633579182015b828111156200063257825182559160200191906001019062000615565b5b50905062000642919062000646565b5090565b5b808211156200066157600081600090555060010162000647565b5090565b6000604051905090565b600080fd5b600080fd5b600080fd5b600080fd5b6000601f19601f8301169050919050565b7f4e487b7100000000000000000000000000000000000000000000000000000000600052604160045260246000fd5b620006ce8262000683565b810181811067ffffffffffffffff82111715620006f057620006ef62000694565b5b80604052505050565b60006200070562000665565b9050620007138282620006c3565b919050565b600067ffffffffffffffff82111562000736576200073562000694565b5b620007418262000683565b9050602081019050919050565b60005b838110156200076e57808201518184015260208101905062000751565b838111156200077e576000848401525b50505050565b60006200079b620007958462000718565b620006f9565b905082815260208101848484011115620007ba57620007b96200067e565b5b620007c78482856200074e565b509392505050565b600082601f830112620007e757620007e662000679565b5b8151620007f984826020860162000784565b91505092915050565b600073ffffffffffffffffffffffffffffffffffffffff82169050919050565b60006200082f8262000802565b9050919050565b6000620008438262000822565b9050919050565b620008558162000836565b81146200086157600080fd5b50565b60008151905062000875816200084a565b92915050565b6000819050919050565b62000890816200087b565b81146200089c57600080fd5b50565b600081519050620008b08162000885565b92915050565b600080600080600060a08688031215620008d557620008d46200066f565b5b600086015167ffffffffffffffff811115620008f657620008f562000674565b5b6200090488828901620007cf565b9550506020620009178882890162000864565b94505060406200092a888289016200089f565b93505060606200093d888289016200089f565b925050608062000950888289016200089f565b9150509295509295909350565b7f4e487b7100000000000000000000000000000000000000000000000000000000600052601160045260246000fd5b600062000999826200087b565b9150620009a6836200087b565b9250827fffffffffffffffffffffffffffffffffffffffffffffffffffffffffffffffff03821115620009de57620009dd6200095d565b5b828201905092915050565b6000819050919050565b620009fe81620009e9565b82525050565b62000a0f816200087b565b82525050565b600062000a228262000802565b9050919050565b62000a348162000a15565b82525050565b600060a08201905062000a516000830188620009f3565b62000a606020830187620009f3565b62000a6f6040830186620009f3565b62000a7e606083018562000a04565b62000a8d608083018462000a29565b9695505050505050565b600060408201905062000aae600083018562000a04565b62000abd602083018462000a04565b9392505050565b600082825260208201905092915050565b7f476f7665726e6f7253657474696e67733a20766f74696e6720706572696f642060008201527f746f6f206c6f7700000000000000000000000000000000000000000000000000602082015250565b600062000b3360278362000ac4565b915062000b408262000ad5565b604082019050919050565b6000602082019050818103600083015262000b668162000b24565b9050919050565b600060408201905062000b84600083018562000a29565b62000b93602083018462000a29565b9392505050565b7f4e487b7100000000000000000000000000000000000000000000000000000000600052602260045260246000fd5b6000600282049050600182168062000be257607f821691505b6020821081141562000bf95762000bf862000b9a565b5b50919050565b60805160a05160c05160e05161010051610120516176c062000c4f6000396000613dae01526000613df001526000613dcf01526000613d0401526000613d5a01526000613d8301526176c06000f3fe6080604052600436106103545760003560e01c80637d5e81e2116101c6578063c59057e4116100f7578063e0a10f2a11610095578063ea868a001161006f578063ea868a0014610dbf578063ece40cc114610ddb578063f23a6e6114610e04578063ff47540014610e415761039a565b8063e0a10f2a14610d30578063e2dbf63714610d6d578063ea0217cf14610d965761039a565b8063d7b6e9d4116100d1578063d7b6e9d414610c81578063dce4c1c114610c9d578063dd4e2ba514610cda578063deaaa7cc14610d055761039a565b8063c59057e414610bee578063cceb68f514610c2b578063d33219b414610c565761039a565b8063af9221b411610164578063bc197c811161013e578063bc197c8114610b2d578063bed37c5114610b6a578063c01f9e3714610b95578063c28bc2fa14610bd25761039a565b8063af9221b414610a9a578063b1e44d8f14610ac5578063b58131b014610b025761039a565b8063938351b8116101a0578063938351b8146109ba578063a890c910146109f7578063a98c14b914610a20578063ab58fb8e14610a5d5761039a565b80637d5e81e21461090357806389a58fcb146109405780638c139d6c1461097d5761039a565b80632fe3e261116102a0578063544ffc9c1161023e5780635f398a14116102185780635f398a141461083557806361d027b31461087257806370b0f6601461089d5780637b3c71d3146108c65761039a565b8063544ffc9c1461078e57806354fd4d50146107cd57806356781388146107f85761039a565b80633bccf4fd1161027a5780633bccf4fd146106ac5780633e4f49e6146106e957806343859632146107265780634fa76ec9146107635761039a565b80632fe3e2611461062b578063335d51ac146106565780633932abb1146106815761039a565b8063160cbed71161030d578063233f625c116102e7578063233f625c146105685780632656227d146105935780632b6da37e146105c35780632d63f693146105ee5761039a565b8063160cbed7146104e95780631703a018146105265780631de7df41146105515761039a565b806301ffc9a71461039f57806302a251a3146103dc578063034201811461040757806306fdde031461044457806311dceb281461046f578063150b7a02146104ac5761039a565b3661039a573073ffffffffffffffffffffffffffffffffffffffff16610378610e6c565b73ffffffffffffffffffffffffffffffffffffffff161461039857600080fd5b005b600080fd5b3480156103ab57600080fd5b506103c660048036038101906103c191906148ad565b610e7b565b6040516103d391906148f5565b60405180910390f35b3480156103e857600080fd5b506103f1610e8d565b6040516103fe9190614929565b60405180910390f35b34801561041357600080fd5b5061042e60048036038101906104299190614b85565b610e9c565b60405161043b9190614929565b60405180910390f35b34801561045057600080fd5b50610459610f81565b6040516104669190614ceb565b60405180910390f35b34801561047b57600080fd5b5061049660048036038101906104919190614d6b565b611013565b6040516104a39190614f38565b60405180910390f35b3480156104b857600080fd5b506104d360048036038101906104ce9190614f5a565b6111bc565b6040516104e09190614fec565b60405180910390f35b3480156104f557600080fd5b50610510600480360381019061050b919061526e565b6111d0565b60405161051d9190614929565b60405180910390f35b34801561053257600080fd5b5061053b6114a8565b6040516105489190614929565b60405180910390f35b34801561055d57600080fd5b506105666114cb565b005b34801561057457600080fd5b5061057d6116bb565b60405161058a9190614929565b60405180910390f35b6105ad60048036038101906105a8919061526e565b6116c7565b6040516105ba9190614929565b60405180910390f35b3480156105cf57600080fd5b506105d8611814565b6040516105e59190614929565b60405180910390f35b3480156105fa57600080fd5b5061061560048036038101906106109190615329565b61181a565b6040516106229190614929565b60405180910390f35b34801561063757600080fd5b50610640611888565b60405161064d9190615365565b60405180910390f35b34801561066257600080fd5b5061066b6118ac565b6040516106789190614929565b60405180910390f35b34801561068d57600080fd5b506106966118b8565b6040516106a39190614929565b60405180910390f35b3480156106b857600080fd5b506106d360048036038101906106ce9190615380565b6118c7565b6040516106e09190614929565b60405180910390f35b3480156106f557600080fd5b50610710600480360381019061070b9190615329565b611951565b60405161071d9190615472565b60405180910390f35b34801561073257600080fd5b5061074d6004803603810190610748919061548d565b611963565b60405161075a91906148f5565b60405180910390f35b34801561076f57600080fd5b506107786119ce565b6040516107859190614929565b60405180910390f35b34801561079a57600080fd5b506107b560048036038101906107b09190615329565b6119d4565b6040516107c4939291906154cd565b60405180910390f35b3480156107d957600080fd5b506107e2611a0c565b6040516107ef9190614ceb565b60405180910390f35b34801561080457600080fd5b5061081f600480360381019061081a9190615504565b611a49565b60405161082c9190614929565b60405180910390f35b34801561084157600080fd5b5061085c60048036038101906108579190615544565b611a7a565b6040516108699190614929565b60405180910390f35b34801561087e57600080fd5b50610887611ae4565b6040516108949190614929565b60405180910390f35b3480156108a957600080fd5b506108c460048036038101906108bf9190615329565b611aea565b005b3480156108d257600080fd5b506108ed60048036038101906108e891906155e8565b611be6565b6040516108fa9190614929565b60405180910390f35b34801561090f57600080fd5b5061092a600480360381019061092591906156fd565b611c4e565b6040516109379190614929565b60405180910390f35b34801561094c57600080fd5b5061096760048036038101906109629190614d6b565b611d5c565b6040516109749190614929565b60405180910390f35b34801561098957600080fd5b506109a4600480360381019061099f9190615329565b611d74565b6040516109b19190614ceb565b60405180910390f35b3480156109c657600080fd5b506109e160048036038101906109dc9190615329565b611e20565b6040516109ee9190614929565b60405180910390f35b348015610a0357600080fd5b50610a1e6004803603810190610a199190615824565b611e44565b005b348015610a2c57600080fd5b50610a476004803603810190610a429190615851565b611f40565b604051610a549190614929565b60405180910390f35b348015610a6957600080fd5b50610a846004803603810190610a7f9190615329565b611f71565b604051610a919190614929565b60405180910390f35b348015610aa657600080fd5b50610aaf61204d565b604051610abc9190614929565b60405180910390f35b348015610ad157600080fd5b50610aec6004803603810190610ae79190614d6b565b612053565b604051610af991906148f5565b60405180910390f35b348015610b0e57600080fd5b50610b17612073565b604051610b249190614929565b60405180910390f35b348015610b3957600080fd5b50610b546004803603810190610b4f9190615891565b612082565b604051610b619190614fec565b60405180910390f35b348015610b7657600080fd5b50610b7f612097565b604051610b8c9190614929565b60405180910390f35b348015610ba157600080fd5b50610bbc6004803603810190610bb79190615329565b61209d565b604051610bc99190614929565b60405180910390f35b610bec6004803603810190610be791906159b6565b61210b565b005b348015610bfa57600080fd5b50610c156004803603810190610c10919061526e565b612299565b604051610c229190614929565b60405180910390f35b348015610c3757600080fd5b50610c406122d5565b604051610c4d9190615ba0565b60405180910390f35b348015610c6257600080fd5b50610c6b612470565b604051610c789190615bd1565b60405180910390f35b610c9b6004803603810190610c969190615bec565b61249a565b005b348015610ca957600080fd5b50610cc46004803603810190610cbf9190615851565b61264d565b604051610cd19190614929565b60405180910390f35b348015610ce657600080fd5b50610cef61267e565b604051610cfc9190614ceb565b60405180910390f35b348015610d1157600080fd5b50610d1a6126bb565b604051610d279190615365565b60405180910390f35b348015610d3c57600080fd5b50610d576004803603810190610d529190614d6b565b6126df565b604051610d649190615d47565b60405180910390f35b348015610d7957600080fd5b50610d946004803603810190610d8f9190615d69565b612874565b005b348015610da257600080fd5b50610dbd6004803603810190610db89190615329565b612aa0565b005b610dd96004803603810190610dd49190615dc5565b612b9c565b005b348015610de757600080fd5b50610e026004803603810190610dfd9190615329565b612d71565b005b348015610e1057600080fd5b50610e2b6004803603810190610e269190615e34565b612e6d565b604051610e389190614fec565b60405180910390f35b348015610e4d57600080fd5b50610e56612e82565b604051610e639190615ff0565b60405180910390f35b6000610e76613032565b905090565b6000610e868261305c565b9050919050565b6000610e976130d6565b905090565b600080610f1f610f177fb3b3f3b703cd84ce352197dcff232b1b5d3cfb2025ce47cf04742d0651f1af888c8c8c8c604051610ed8929190616042565b60405180910390208b80519060200120604051602001610efc95949392919061606a565b604051602081830303815290604052805190602001206130e0565b8686866130fa565b9050610f728a828b8b8b8080601f016020809104026020016040519081016040528093929190818152602001838380828437600081840152601f19601f820116905080830192505050505050508a613125565b91505098975050505050505050565b606060008054610f90906160ec565b80601f0160208091040260200160405190810160405280929190818152602001828054610fbc906160ec565b80156110095780601f10610fde57610100808354040283529160200191611009565b820191906000526020600020905b815481529060010190602001808311610fec57829003601f168201915b5050505050905090565b60606000805b6015548110156111b557600015156016600083815260200190815260200160002060009054906101000a900460ff16151514156111a257601460008281526020019081526020016000206040518060a00160405290816000820160009054906101000a900473ffffffffffffffffffffffffffffffffffffffff1673ffffffffffffffffffffffffffffffffffffffff1673ffffffffffffffffffffffffffffffffffffffff16815260200160018201548152602001600282015481526020016003820180546110e8906160ec565b80601f0160208091040260200160405190810160405280929190818152602001828054611114906160ec565b80156111615780601f1061113657610100808354040283529160200191611161565b820191906000526020600020905b81548152906001019060200180831161114457829003601f168201915b505050505081526020016004820154815250508383815181106111875761118661611e565b5b602002602001018190525060018261119f919061617c565b91505b80806111ad906161d2565b915050611019565b5050919050565b600063150b7a0260e01b9050949350505050565b6000806111df86868686612299565b9050600460078111156111f5576111f46153fb565b5b6111fe82611951565b60078111156112105761120f6153fb565b5b14611250576040517f08c379a00000000000000000000000000000000000000000000000000000000081526004016112479061628d565b60405180910390fd5b6000600860009054906101000a900473ffffffffffffffffffffffffffffffffffffffff1673ffffffffffffffffffffffffffffffffffffffff1663f27a0c926040518163ffffffff1660e01b815260040160206040518083038186803b1580156112ba57600080fd5b505afa1580156112ce573d6000803e3d6000fd5b505050506040513d601f19601f820116820180604052508101906112f291906162c2565b9050600860009054906101000a900473ffffffffffffffffffffffffffffffffffffffff1673ffffffffffffffffffffffffffffffffffffffff1663b1c5f4278888886000896040518663ffffffff1660e01b81526004016113589594939291906165ac565b60206040518083038186803b15801561137057600080fd5b505afa158015611384573d6000803e3d6000fd5b505050506040513d601f19601f820116820180604052508101906113a89190616629565b6009600084815260200190815260200160002081905550600860009054906101000a900473ffffffffffffffffffffffffffffffffffffffff1673ffffffffffffffffffffffffffffffffffffffff16638f2a0bb0888888600089876040518763ffffffff1660e01b815260040161142596959493929190616656565b600060405180830381600087803b15801561143f57600080fd5b505af1158015611453573d6000803e3d6000fd5b505050507f9a2e42fd6722813d69113e7d0079d3d940171428df7373df9c7f7617cfda2892828242611485919061617c565b6040516114939291906166cc565b60405180910390a18192505050949350505050565b60006064600e54600b546114bc91906166f5565b6114c6919061677e565b905090565b33601960008273ffffffffffffffffffffffffffffffffffffffff1673ffffffffffffffffffffffffffffffffffffffff16815260200190815260200160002060009054906101000a900460ff16611558576040517f08c379a000000000000000000000000000000000000000000000000000000000815260040161154f90616821565b60405180910390fd5b6000601960003373ffffffffffffffffffffffffffffffffffffffff1673ffffffffffffffffffffffffffffffffffffffff16815260200190815260200160002060006101000a81548160ff02191690831515021790555042600c600d60003373ffffffffffffffffffffffffffffffffffffffff1673ffffffffffffffffffffffffffffffffffffffff16815260200190815260200160002054815481106116045761160361611e565b5b9060005260206000209060040201600301819055506000600e54600a5461162b919061677e565b90506001600e60008282546116409190616841565b925050819055506000803373ffffffffffffffffffffffffffffffffffffffff168360405161166e9061689b565b60006040518083038185875af1925050503d80600081146116ab576040519150601f19603f3d011682016040523d82523d6000602084013e6116b0565b606091505b509150915050505050565b671bc16d674ec8000081565b6000806116d686868686612299565b905060006116e382611951565b9050600460078111156116f9576116f86153fb565b5b81600781111561170c5761170b6153fb565b5b148061173c575060056007811115611727576117266153fb565b5b81600781111561173a576117396153fb565b5b145b61177b576040517f08c379a00000000000000000000000000000000000000000000000000000000081526004016117729061628d565b60405180910390fd5b600180600084815260200190815260200160002060020160006101000a81548160ff0219169083151502179055507f712ae1383f79ac853f8d882153778e0260ef8f03b504e2866e0593e04d2b291f826040516117d89190614929565b60405180910390a16117ed8288888888613270565b6117fa8288888888613354565b6118078288888888613368565b8192505050949350505050565b60155481565b6000611877600160008481526020019081526020016000206000016040518060200160405290816000820160009054906101000a900467ffffffffffffffff1667ffffffffffffffff1667ffffffffffffffff16815250506133c3565b67ffffffffffffffff169050919050565b7fb3b3f3b703cd84ce352197dcff232b1b5d3cfb2025ce47cf04742d0651f1af8881565b670de0b6b3a764000081565b60006118c26133d1565b905090565b6000806119286119207f150214d74d59b7d1e90c73fc22ef3d991dd0a76b046543d4d80ab92d2a50328f8989604051602001611905939291906168b0565b604051602081830303815290604052805190602001206130e0565b8686866130fa565b9050611945878288604051806020016040528060008152506133db565b91505095945050505050565b600061195c826133fb565b9050919050565b60006007600084815260200190815260200160002060030160008373ffffffffffffffffffffffffffffffffffffffff1673ffffffffffffffffffffffffffffffffffffffff16815260200190815260200160002060009054906101000a900460ff16905092915050565b600b5481565b600080600080600760008681526020019081526020016000209050806000015481600101548260020154935093509350509193909250565b60606040518060400160405280600181526020017f3100000000000000000000000000000000000000000000000000000000000000815250905090565b600080611a546135ed565b9050611a71848285604051806020016040528060008152506133db565b91505092915050565b600080611a856135ed565b9050611ad887828888888080601f016020809104026020016040519081016040528093929190818152602001838380828437600081840152601f19601f8201169050808301925050505050505087613125565b91505095945050505050565b600a5481565b611af2610e6c565b73ffffffffffffffffffffffffffffffffffffffff16611b106135ed565b73ffffffffffffffffffffffffffffffffffffffff1614611b66576040517f08c379a0000000000000000000000000000000000000000000000000000000008152600401611b5d90616933565b60405180910390fd5b3073ffffffffffffffffffffffffffffffffffffffff16611b85610e6c565b73ffffffffffffffffffffffffffffffffffffffff1614611bda576000611baa6135f5565b604051611bb8929190616042565b604051809103902090505b80611bce6002613602565b14611bd857611bc3565b505b611be3816136de565b50565b600080611bf16135ed565b9050611c4386828787878080601f016020809104026020016040519081016040528093929190818152602001838380828437600081840152601f19601f820116905080830192505050505050506133db565b915050949350505050565b600033601960008273ffffffffffffffffffffffffffffffffffffffff1673ffffffffffffffffffffffffffffffffffffffff16815260200190815260200160002060009054906101000a900460ff16611cdd576040517f08c379a0000000000000000000000000000000000000000000000000000000008152600401611cd490616821565b60405180910390fd5b6000611ceb87878787613723565b9050600f819080600181540180825580915050600190039060005260206000200160009091909190915055601084908060018154018082558091505060019003906000526020600020016000909190919091509080519060200190611d5192919061479e565b505050949350505050565b600d6020528060005260406000206000915090505481565b60108181548110611d8457600080fd5b906000526020600020016000915090508054611d9f906160ec565b80601f0160208091040260200160405190810160405280929190818152602001828054611dcb906160ec565b8015611e185780601f10611ded57610100808354040283529160200191611e18565b820191906000526020600020905b815481529060010190602001808311611dfb57829003601f168201915b505050505081565b600f8181548110611e3057600080fd5b906000526020600020016000915090505481565b611e4c610e6c565b73ffffffffffffffffffffffffffffffffffffffff16611e6a6135ed565b73ffffffffffffffffffffffffffffffffffffffff1614611ec0576040517f08c379a0000000000000000000000000000000000000000000000000000000008152600401611eb790616933565b60405180910390fd5b3073ffffffffffffffffffffffffffffffffffffffff16611edf610e6c565b73ffffffffffffffffffffffffffffffffffffffff1614611f34576000611f046135f5565b604051611f12929190616042565b604051809103902090505b80611f286002613602565b14611f3257611f1d565b505b611f3d81613a0c565b50565b601b6020528160005260406000208181548110611f5c57600080fd5b90600052602060002001600091509150505481565b600080600860009054906101000a900473ffffffffffffffffffffffffffffffffffffffff1673ffffffffffffffffffffffffffffffffffffffff1663d45c443560096000868152602001908152602001600020546040518263ffffffff1660e01b8152600401611fe29190615365565b60206040518083038186803b158015611ffa57600080fd5b505afa15801561200e573d6000803e3d6000fd5b505050506040513d601f19601f8201168201806040525081019061203291906162c2565b9050600181146120425780612045565b60005b915050919050565b600e5481565b60196020528060005260406000206000915054906101000a900460ff1681565b600061207d613aab565b905090565b600063bc197c8160e01b905095945050505050565b60125481565b60006120fa600160008481526020019081526020016000206001016040518060200160405290816000820160009054906101000a900467ffffffffffffffff1667ffffffffffffffff1667ffffffffffffffff16815250506133c3565b67ffffffffffffffff169050919050565b612113610e6c565b73ffffffffffffffffffffffffffffffffffffffff166121316135ed565b73ffffffffffffffffffffffffffffffffffffffff1614612187576040517f08c379a000000000000000000000000000000000000000000000000000000000815260040161217e90616933565b60405180910390fd5b3073ffffffffffffffffffffffffffffffffffffffff166121a6610e6c565b73ffffffffffffffffffffffffffffffffffffffff16146121fb5760006121cb6135f5565b6040516121d9929190616042565b604051809103902090505b806121ef6002613602565b146121f9576121e4565b505b6000808573ffffffffffffffffffffffffffffffffffffffff16858585604051612226929190616042565b60006040518083038185875af1925050503d8060008114612263576040519150601f19603f3d011682016040523d82523d6000602084013e612268565b606091505b5091509150612290828260405180606001604052806028815260200161766360289139613ab5565b50505050505050565b6000848484846040516020016122b29493929190616953565b6040516020818303038152906040528051906020012060001c9050949350505050565b606060005b600f8054905081101561246c576000600f82815481106122fd576122fc61611e565b5b906000526020600020015490506000806000612336600f86815481106123265761232561611e565b5b90600052602060002001546119d4565b9250925092506040518060800160405280858152602001601087815481106123615761236061611e565b5b906000526020600020018054612376906160ec565b80601f01602080910402602001604051908101604052809291908181526020018280546123a2906160ec565b80156123ef5780601f106123c4576101008083540402835291602001916123ef565b820191906000526020600020905b8154815290600101906020018083116123d257829003601f168201915b5050505050815260200161240286611951565b6007811115612414576124136153fb565b5b815260200160405180606001604052808681526020018581526020018481525081525086868151811061244a5761244961611e565b5b6020026020010181905250505050508080612464906161d2565b9150506122da565b5090565b6000600860009054906101000a900473ffffffffffffffffffffffffffffffffffffffff16905090565b671bc16d674ec800003410156124e5576040517f08c379a00000000000000000000000000000000000000000000000000000000081526004016124dc90616a1f565b60405180910390fd5b671bc16d674ec80000346124f99190616841565b600a600082825461250a919061617c565b9250508190555060405180606001604052803373ffffffffffffffffffffffffffffffffffffffff1681526020018281526020014281525060116000601254815260200190815260200160002060008201518160000160006101000a81548173ffffffffffffffffffffffffffffffffffffffff021916908373ffffffffffffffffffffffffffffffffffffffff16021790555060208201518160010190805190602001906125ba92919061479e565b5060408201518160020155905050601b60003373ffffffffffffffffffffffffffffffffffffffff1673ffffffffffffffffffffffffffffffffffffffff1681526020019081526020016000206012549080600181540180825580915050600190039060005260206000200160009091909190915055600160126000828254612643919061617c565b9250508190555050565b601c602052816000526040600020818154811061266957600080fd5b90600052602060002001600091509150505481565b60606040518060400160405280602081526020017f737570706f72743d627261766f2671756f72756d3d666f722c6162737461696e815250905090565b7f150214d74d59b7d1e90c73fc22ef3d991dd0a76b046543d4d80ab92d2a50328f81565b60606000805b60125481101561286d57600015156013600083815260200190815260200160002060009054906101000a900460ff161515141561285a57601160008281526020019081526020016000206040518060600160405290816000820160009054906101000a900473ffffffffffffffffffffffffffffffffffffffff1673ffffffffffffffffffffffffffffffffffffffff1673ffffffffffffffffffffffffffffffffffffffff1681526020016001820180546127a0906160ec565b80601f01602080910402602001604051908101604052809291908181526020018280546127cc906160ec565b80156128195780601f106127ee57610100808354040283529160200191612819565b820191906000526020600020905b8154815290600101906020018083116127fc57829003601f168201915b5050505050815260200160028201548152505083838151811061283f5761283e61611e565b5b6020026020010181905250600182612857919061617c565b91505b8080612865906161d2565b9150506126e5565b5050919050565b601a60009054906101000a900473ffffffffffffffffffffffffffffffffffffffff1673ffffffffffffffffffffffffffffffffffffffff163373ffffffffffffffffffffffffffffffffffffffff1614612904576040517f08c379a00000000000000000000000000000000000000000000000000000000081526004016128fb90616ab1565b60405180910390fd5b600c80549050600d60003373ffffffffffffffffffffffffffffffffffffffff1673ffffffffffffffffffffffffffffffffffffffff16815260200190815260200160002081905550600c60405180608001604052808381526020018473ffffffffffffffffffffffffffffffffffffffff1681526020014281526020016000815250908060018154018082558091505060019003906000526020600020906004020160009091909190915060008201518160000190805190602001906129cc92919061479e565b5060208201518160010160006101000a81548173ffffffffffffffffffffffffffffffffffffffff021916908373ffffffffffffffffffffffffffffffffffffffff160217905550604082015181600201556060820151816003015550506001600e6000828254612a3d919061617c565b925050819055506001601960008473ffffffffffffffffffffffffffffffffffffffff1673ffffffffffffffffffffffffffffffffffffffff16815260200190815260200160002060006101000a81548160ff0219169083151502179055505050565b612aa8610e6c565b73ffffffffffffffffffffffffffffffffffffffff16612ac66135ed565b73ffffffffffffffffffffffffffffffffffffffff1614612b1c576040517f08c379a0000000000000000000000000000000000000000000000000000000008152600401612b1390616933565b60405180910390fd5b3073ffffffffffffffffffffffffffffffffffffffff16612b3b610e6c565b73ffffffffffffffffffffffffffffffffffffffff1614612b90576000612b606135f5565b604051612b6e929190616042565b604051809103902090505b80612b846002613602565b14612b8e57612b79565b505b612b9981613ad7565b50565b670de0b6b3a7640000341015612be7576040517f08c379a0000000000000000000000000000000000000000000000000000000008152600401612bde90616b43565b60405180910390fd5b670de0b6b3a764000034612bfb9190616841565b600a6000828254612c0c919061617c565b925050819055506040518060a001604052803373ffffffffffffffffffffffffffffffffffffffff1681526020018481526020018381526020018281526020014281525060146000601554815260200190815260200160002060008201518160000160006101000a81548173ffffffffffffffffffffffffffffffffffffffff021916908373ffffffffffffffffffffffffffffffffffffffff16021790555060208201518160010155604082015181600201556060820151816003019080519060200190612cdc92919061479e565b5060808201518160040155905050601c60003373ffffffffffffffffffffffffffffffffffffffff1673ffffffffffffffffffffffffffffffffffffffff1681526020019081526020016000206015549080600181540180825580915050600190039060005260206000200160009091909190915055600160156000828254612d65919061617c565b92505081905550505050565b612d79610e6c565b73ffffffffffffffffffffffffffffffffffffffff16612d976135ed565b73ffffffffffffffffffffffffffffffffffffffff1614612ded576040517f08c379a0000000000000000000000000000000000000000000000000000000008152600401612de490616933565b60405180910390fd5b3073ffffffffffffffffffffffffffffffffffffffff16612e0c610e6c565b73ffffffffffffffffffffffffffffffffffffffff1614612e61576000612e316135f5565b604051612e3f929190616042565b604051809103902090505b80612e556002613602565b14612e5f57612e4a565b505b612e6a81613b5f565b50565b600063f23a6e6160e01b905095945050505050565b60606000805b600c8054905081101561302d576000600c8281548110612eab57612eaa61611e565b5b906000526020600020906004020160030154141561301a57600c8181548110612ed757612ed661611e565b5b9060005260206000209060040201604051806080016040529081600082018054612f00906160ec565b80601f0160208091040260200160405190810160405280929190818152602001828054612f2c906160ec565b8015612f795780601f10612f4e57610100808354040283529160200191612f79565b820191906000526020600020905b815481529060010190602001808311612f5c57829003601f168201915b505050505081526020016001820160009054906101000a900473ffffffffffffffffffffffffffffffffffffffff1673ffffffffffffffffffffffffffffffffffffffff1673ffffffffffffffffffffffffffffffffffffffff16815260200160028201548152602001600382015481525050838381518110612fff57612ffe61611e565b5b6020026020010181905250600182613017919061617c565b91505b8080613025906161d2565b915050612e88565b505090565b6000600860009054906101000a900473ffffffffffffffffffffffffffffffffffffffff16905090565b60007f6e665ced000000000000000000000000000000000000000000000000000000007bffffffffffffffffffffffffffffffffffffffffffffffffffffffff1916827bffffffffffffffffffffffffffffffffffffffffffffffffffffffff191614806130cf57506130ce82613ba4565b5b9050919050565b6000600554905090565b60006130f36130ed613d00565b83613e1a565b9050919050565b600080600061310b87878787613e4d565b9150915061311881613f30565b8192505050949350505050565b60006001600781111561313b5761313a6153fb565b5b61314487611951565b6007811115613156576131556153fb565b5b14613196576040517f08c379a000000000000000000000000000000000000000000000000000000000815260040161318d90616bd5565b60405180910390fd5b6000600190506131a9878787848761409e565b60008351141561320c578573ffffffffffffffffffffffffffffffffffffffff167fb8e138887d0aa13bab447e82de9d5c1777041ecd21ca36ba824ff1e6c07ddda4888784886040516131ff9493929190616bf5565b60405180910390a2613263565b8573ffffffffffffffffffffffffffffffffffffffff167fe2babfbac5889a709b63bb7f598b324e08bc5a4fb9ec647fb3cbc9ec07eb8712888784888860405161325a959493929190616c8b565b60405180910390a25b8091505095945050505050565b3073ffffffffffffffffffffffffffffffffffffffff1661328f610e6c565b73ffffffffffffffffffffffffffffffffffffffff161461334d5760005b845181101561334b573073ffffffffffffffffffffffffffffffffffffffff168582815181106132e0576132df61611e565b5b602002602001015173ffffffffffffffffffffffffffffffffffffffff16141561333a5761333983828151811061331a5761331961611e565b5b60200260200101518051906020012060026142a590919063ffffffff16565b5b80613344906161d2565b90506132ad565b505b5050505050565b6133618585858585614321565b5050505050565b3073ffffffffffffffffffffffffffffffffffffffff16613387610e6c565b73ffffffffffffffffffffffffffffffffffffffff16146133bc576133ac60026143bf565b6133bb576133ba60026143f4565b5b5b5050505050565b600081600001519050919050565b6000600454905090565b60006133f1858585856133ec614475565b613125565b9050949350505050565b6000806134078361448c565b90506004600781111561341d5761341c6153fb565b5b8160078111156134305761342f6153fb565b5b1461343e57809150506135e8565b6000600960008581526020019081526020016000205490506000801b81141561346b5781925050506135e8565b600860009054906101000a900473ffffffffffffffffffffffffffffffffffffffff1673ffffffffffffffffffffffffffffffffffffffff16632ab0f529826040518263ffffffff1660e01b81526004016134c69190615365565b60206040518083038186803b1580156134de57600080fd5b505afa1580156134f2573d6000803e3d6000fd5b505050506040513d601f19601f820116820180604052508101906135169190616d18565b15613526576007925050506135e8565b600860009054906101000a900473ffffffffffffffffffffffffffffffffffffffff1673ffffffffffffffffffffffffffffffffffffffff1663584b153e826040518263ffffffff1660e01b81526004016135819190615365565b60206040518083038186803b15801561359957600080fd5b505afa1580156135ad573d6000803e3d6000fd5b505050506040513d601f19601f820116820180604052508101906135d19190616d18565b156135e1576005925050506135e8565b6002925050505b919050565b600033905090565b3660008036915091509091565b600061360d826143bf565b15613644576040517f3db2a12a00000000000000000000000000000000000000000000000000000000815260040160405180910390fd5b60008260000160009054906101000a9004600f0b905082600101600082600f0b600f0b815260200190815260200160002054915082600101600082600f0b600f0b815260200190815260200160002060009055600181018360000160006101000a8154816fffffffffffffffffffffffffffffffff0219169083600f0b6fffffffffffffffffffffffffffffffff16021790555050919050565b7fc565b045403dc03c2eea82b81a0465edad9e2e7fc4d97e11421c209da93d7a93600454826040516137119291906166cc565b60405180910390a18060048190555050565b60008061372e6135ed565b905060006137458787878780519060200120612299565b9050855187511461378b576040517f08c379a000000000000000000000000000000000000000000000000000000000815260040161378290616db7565b60405180910390fd5b84518751146137cf576040517f08c379a00000000000000000000000000000000000000000000000000000000081526004016137c690616db7565b60405180910390fd5b6000875111613813576040517f08c379a000000000000000000000000000000000000000000000000000000000815260040161380a90616e23565b60405180910390fd5b6000600160008381526020019081526020016000209050613873816000016040518060200160405290816000820160009054906101000a900467ffffffffffffffff1667ffffffffffffffff1667ffffffffffffffff16815250506145a1565b6138b2576040517f08c379a00000000000000000000000000000000000000000000000000000000081526004016138a990616eb5565b60405180910390fd5b60006138c46138bf6118b8565b6145bb565b6138cd436145bb565b6138d79190616ee9565b905060006138eb6138e6610e8d565b6145bb565b826138f69190616ee9565b905061390e828460000161461290919063ffffffff16565b613924818460010161461290919063ffffffff16565b848360020160026101000a81548173ffffffffffffffffffffffffffffffffffffffff021916908373ffffffffffffffffffffffffffffffffffffffff1602179055507f7d84a6263ae0d98d3329bd7b46bb4e8d6f98cd35a7adb45c274c8b7fd5ebd5e084868c8c8e5167ffffffffffffffff8111156139a7576139a6614a24565b5b6040519080825280602002602001820160405280156139da57816020015b60608152602001906001900390816139c55790505b508d88888f6040516139f499989796959493929190617024565b60405180910390a18395505050505050949350505050565b7f08f74ea46ef7894f65eabfb5e6e695de773a000b47c529ab559178069b226401600860009054906101000a900473ffffffffffffffffffffffffffffffffffffffff1682604051613a5f9291906170d4565b60405180910390a180600860006101000a81548173ffffffffffffffffffffffffffffffffffffffff021916908373ffffffffffffffffffffffffffffffffffffffff16021790555050565b6000600654905090565b60608315613ac557829050613ad0565b613acf8383614641565b5b9392505050565b60008111613b1a576040517f08c379a0000000000000000000000000000000000000000000000000000000008152600401613b119061716f565b60405180910390fd5b7f7e3f7f0708a84de9203036abaa450dccc85ad5ff52f78c170f3edb55cf5e882860055482604051613b4d9291906166cc565b60405180910390a18060058190555050565b7fccb45da8d5717e6c4544694297c4ba5cf151d455c9bb0ed4fc7a38411bc0546160065482604051613b929291906166cc565b60405180910390a18060068190555050565b6000630342018160e01b635f398a1460e01b7fe700bcc40000000000000000000000000000000000000000000000000000000018187bffffffffffffffffffffffffffffffffffffffffffffffffffffffff1916827bffffffffffffffffffffffffffffffffffffffffffffffffffffffff19161480613c8157507fe700bcc4000000000000000000000000000000000000000000000000000000007bffffffffffffffffffffffffffffffffffffffffffffffffffffffff1916827bffffffffffffffffffffffffffffffffffffffffffffffffffffffff1916145b80613ce957507f4e2312e0000000000000000000000000000000000000000000000000000000007bffffffffffffffffffffffffffffffffffffffffffffffffffffffff1916827bffffffffffffffffffffffffffffffffffffffffffffffffffffffff1916145b80613cf95750613cf882614691565b5b9050919050565b60007f000000000000000000000000000000000000000000000000000000000000000073ffffffffffffffffffffffffffffffffffffffff163073ffffffffffffffffffffffffffffffffffffffff16148015613d7c57507f000000000000000000000000000000000000000000000000000000000000000046145b15613da9577f00000000000000000000000000000000000000000000000000000000000000009050613e17565b613e147f00000000000000000000000000000000000000000000000000000000000000007f00000000000000000000000000000000000000000000000000000000000000007f00000000000000000000000000000000000000000000000000000000000000006146fb565b90505b90565b60008282604051602001613e2f929190617207565b60405160208183030381529060405280519060200120905092915050565b6000807f7fffffffffffffffffffffffffffffff5d576e7357a4501ddfe92f46681b20a08360001c1115613e88576000600391509150613f27565b600060018787878760405160008152602001604052604051613ead949392919061723e565b6020604051602081039080840390855afa158015613ecf573d6000803e3d6000fd5b505050602060405103519050600073ffffffffffffffffffffffffffffffffffffffff168173ffffffffffffffffffffffffffffffffffffffff161415613f1e57600060019250925050613f27565b80600092509250505b94509492505050565b60006004811115613f4457613f436153fb565b5b816004811115613f5757613f566153fb565b5b1415613f625761409b565b60016004811115613f7657613f756153fb565b5b816004811115613f8957613f886153fb565b5b1415613fca576040517f08c379a0000000000000000000000000000000000000000000000000000000008152600401613fc1906172cf565b60405180910390fd5b60026004811115613fde57613fdd6153fb565b5b816004811115613ff157613ff06153fb565b5b1415614032576040517f08c379a00000000000000000000000000000000000000000000000000000000081526004016140299061733b565b60405180910390fd5b60036004811115614046576140456153fb565b5b816004811115614059576140586153fb565b5b141561409a576040517f08c379a0000000000000000000000000000000000000000000000000000000008152600401614091906173cd565b60405180910390fd5b5b50565b60006007600087815260200190815260200160002090508060030160008673ffffffffffffffffffffffffffffffffffffffff1673ffffffffffffffffffffffffffffffffffffffff16815260200190815260200160002060009054906101000a900460ff1615614144576040517f08c379a000000000000000000000000000000000000000000000000000000000815260040161413b9061745f565b60405180910390fd5b60018160030160008773ffffffffffffffffffffffffffffffffffffffff1673ffffffffffffffffffffffffffffffffffffffff16815260200190815260200160002060006101000a81548160ff021916908315150217905550600060028111156141b2576141b16153fb565b5b60ff168460ff1614156141df57828160000160008282546141d3919061617c565b9250508190555061429d565b600160028111156141f3576141f26153fb565b5b60ff168460ff1614156142205782816001016000828254614214919061617c565b9250508190555061429c565b600280811115614233576142326153fb565b5b60ff168460ff1614156142605782816002016000828254614254919061617c565b9250508190555061429b565b6040517f08c379a0000000000000000000000000000000000000000000000000000000008152600401614292906174f1565b60405180910390fd5b5b5b505050505050565b60008260000160109054906101000a9004600f0b90508183600101600083600f0b600f0b815260200190815260200160002081905550600181018360000160106101000a8154816fffffffffffffffffffffffffffffffff0219169083600f0b6fffffffffffffffffffffffffffffffff160217905550505050565b600860009054906101000a900473ffffffffffffffffffffffffffffffffffffffff1673ffffffffffffffffffffffffffffffffffffffff1663e38335e5348686866000876040518763ffffffff1660e01b81526004016143869594939291906165ac565b6000604051808303818588803b15801561439f57600080fd5b505af11580156143b3573d6000803e3d6000fd5b50505050505050505050565b60008160000160009054906101000a9004600f0b600f0b8260000160109054906101000a9004600f0b600f0b13159050919050565b60008160000160006101000a8154816fffffffffffffffffffffffffffffffff0219169083600f0b6fffffffffffffffffffffffffffffffff16021790555060008160000160106101000a8154816fffffffffffffffffffffffffffffffff0219169083600f0b6fffffffffffffffffffffffffffffffff16021790555050565b606060405180602001604052806000815250905090565b6000806001600084815260200190815260200160002090508060020160009054906101000a900460ff16156144c557600791505061459c565b8060020160019054906101000a900460ff16156144e657600291505061459c565b60006144f18461181a565b90506000811415614537576040517f08c379a000000000000000000000000000000000000000000000000000000000815260040161452e9061755d565b60405180910390fd5b4381106145495760009250505061459c565b60006145548561209d565b9050438110614569576001935050505061459c565b61457285614735565b8015614583575061458285614773565b5b15614594576004935050505061459c565b600393505050505b919050565b600080826000015167ffffffffffffffff16149050919050565b600067ffffffffffffffff801682111561460a576040517f08c379a0000000000000000000000000000000000000000000000000000000008152600401614601906175ef565b60405180910390fd5b819050919050565b808260000160006101000a81548167ffffffffffffffff021916908367ffffffffffffffff1602179055505050565b6000825111156146545781518083602001fd5b806040517f08c379a00000000000000000000000000000000000000000000000000000000081526004016146889190614ceb565b60405180910390fd5b60007f01ffc9a7000000000000000000000000000000000000000000000000000000007bffffffffffffffffffffffffffffffffffffffffffffffffffffffff1916827bffffffffffffffffffffffffffffffffffffffffffffffffffffffff1916149050919050565b6000838383463060405160200161471695949392919061760f565b6040516020818303038152906040528051906020012090509392505050565b60008060076000848152602001908152602001600020905080600201548160010154614761919061617c565b6147696114a8565b1115915050919050565b6000806007600084815260200190815260200160002090508060000154816001015411915050919050565b8280546147aa906160ec565b90600052602060002090601f0160209004810192826147cc5760008555614813565b82601f106147e557805160ff1916838001178555614813565b82800160010185558215614813579182015b828111156148125782518255916020019190600101906147f7565b5b5090506148209190614824565b5090565b5b8082111561483d576000816000905550600101614825565b5090565b6000604051905090565b600080fd5b600080fd5b60007fffffffff0000000000000000000000000000000000000000000000000000000082169050919050565b61488a81614855565b811461489557600080fd5b50565b6000813590506148a781614881565b92915050565b6000602082840312156148c3576148c261484b565b5b60006148d184828501614898565b91505092915050565b60008115159050919050565b6148ef816148da565b82525050565b600060208201905061490a60008301846148e6565b92915050565b6000819050919050565b61492381614910565b82525050565b600060208201905061493e600083018461491a565b92915050565b61494d81614910565b811461495857600080fd5b50565b60008135905061496a81614944565b92915050565b600060ff82169050919050565b61498681614970565b811461499157600080fd5b50565b6000813590506149a38161497d565b92915050565b600080fd5b600080fd5b600080fd5b60008083601f8401126149ce576149cd6149a9565b5b8235905067ffffffffffffffff8111156149eb576149ea6149ae565b5b602083019150836001820283011115614a0757614a066149b3565b5b9250929050565b600080fd5b6000601f19601f8301169050919050565b7f4e487b7100000000000000000000000000000000000000000000000000000000600052604160045260246000fd5b614a5c82614a13565b810181811067ffffffffffffffff82111715614a7b57614a7a614a24565b5b80604052505050565b6000614a8e614841565b9050614a9a8282614a53565b919050565b600067ffffffffffffffff821115614aba57614ab9614a24565b5b614ac382614a13565b9050602081019050919050565b82818337600083830152505050565b6000614af2614aed84614a9f565b614a84565b905082815260208101848484011115614b0e57614b0d614a0e565b5b614b19848285614ad0565b509392505050565b600082601f830112614b3657614b356149a9565b5b8135614b46848260208601614adf565b91505092915050565b6000819050919050565b614b6281614b4f565b8114614b6d57600080fd5b50565b600081359050614b7f81614b59565b92915050565b60008060008060008060008060e0898b031215614ba557614ba461484b565b5b6000614bb38b828c0161495b565b9850506020614bc48b828c01614994565b975050604089013567ffffffffffffffff811115614be557614be4614850565b5b614bf18b828c016149b8565b9650965050606089013567ffffffffffffffff811115614c1457614c13614850565b5b614c208b828c01614b21565b9450506080614c318b828c01614994565b93505060a0614c428b828c01614b70565b92505060c0614c538b828c01614b70565b9150509295985092959890939650565b600081519050919050565b600082825260208201905092915050565b60005b83811015614c9d578082015181840152602081019050614c82565b83811115614cac576000848401525b50505050565b6000614cbd82614c63565b614cc78185614c6e565b9350614cd7818560208601614c7f565b614ce081614a13565b840191505092915050565b60006020820190508181036000830152614d058184614cb2565b905092915050565b600073ffffffffffffffffffffffffffffffffffffffff82169050919050565b6000614d3882614d0d565b9050919050565b614d4881614d2d565b8114614d5357600080fd5b50565b600081359050614d6581614d3f565b92915050565b600060208284031215614d8157614d8061484b565b5b6000614d8f84828501614d56565b91505092915050565b600081519050919050565b600082825260208201905092915050565b6000819050602082019050919050565b614dcd81614d2d565b82525050565b614ddc81614910565b82525050565b600082825260208201905092915050565b6000614dfe82614c63565b614e088185614de2565b9350614e18818560208601614c7f565b614e2181614a13565b840191505092915050565b600060a083016000830151614e446000860182614dc4565b506020830151614e576020860182614dd3565b506040830151614e6a6040860182614dd3565b5060608301518482036060860152614e828282614df3565b9150506080830151614e976080860182614dd3565b508091505092915050565b6000614eae8383614e2c565b905092915050565b6000602082019050919050565b6000614ece82614d98565b614ed88185614da3565b935083602082028501614eea85614db4565b8060005b85811015614f265784840389528151614f078582614ea2565b9450614f1283614eb6565b925060208a01995050600181019050614eee565b50829750879550505050505092915050565b60006020820190508181036000830152614f528184614ec3565b905092915050565b60008060008060808587031215614f7457614f7361484b565b5b6000614f8287828801614d56565b9450506020614f9387828801614d56565b9350506040614fa48782880161495b565b925050606085013567ffffffffffffffff811115614fc557614fc4614850565b5b614fd187828801614b21565b91505092959194509250565b614fe681614855565b82525050565b60006020820190506150016000830184614fdd565b92915050565b600067ffffffffffffffff82111561502257615021614a24565b5b602082029050602081019050919050565b600061504661504184615007565b614a84565b90508083825260208201905060208402830185811115615069576150686149b3565b5b835b81811015615092578061507e8882614d56565b84526020840193505060208101905061506b565b5050509392505050565b600082601f8301126150b1576150b06149a9565b5b81356150c1848260208601615033565b91505092915050565b600067ffffffffffffffff8211156150e5576150e4614a24565b5b602082029050602081019050919050565b6000615109615104846150ca565b614a84565b9050808382526020820190506020840283018581111561512c5761512b6149b3565b5b835b818110156151555780615141888261495b565b84526020840193505060208101905061512e565b5050509392505050565b600082601f830112615174576151736149a9565b5b81356151848482602086016150f6565b91505092915050565b600067ffffffffffffffff8211156151a8576151a7614a24565b5b602082029050602081019050919050565b60006151cc6151c78461518d565b614a84565b905080838252602082019050602084028301858111156151ef576151ee6149b3565b5b835b8181101561523657803567ffffffffffffffff811115615214576152136149a9565b5b8086016152218982614b21565b855260208501945050506020810190506151f1565b5050509392505050565b600082601f830112615255576152546149a9565b5b81356152658482602086016151b9565b91505092915050565b600080600080608085870312156152885761528761484b565b5b600085013567ffffffffffffffff8111156152a6576152a5614850565b5b6152b28782880161509c565b945050602085013567ffffffffffffffff8111156152d3576152d2614850565b5b6152df8782880161515f565b935050604085013567ffffffffffffffff811115615300576152ff614850565b5b61530c87828801615240565b925050606061531d87828801614b70565b91505092959194509250565b60006020828403121561533f5761533e61484b565b5b600061534d8482850161495b565b91505092915050565b61535f81614b4f565b82525050565b600060208201905061537a6000830184615356565b92915050565b600080600080600060a0868803121561539c5761539b61484b565b5b60006153aa8882890161495b565b95505060206153bb88828901614994565b94505060406153cc88828901614994565b93505060606153dd88828901614b70565b92505060806153ee88828901614b70565b9150509295509295909350565b7f4e487b7100000000000000000000000000000000000000000000000000000000600052602160045260246000fd5b6008811061543b5761543a6153fb565b5b50565b600081905061544c8261542a565b919050565b600061545c8261543e565b9050919050565b61546c81615451565b82525050565b60006020820190506154876000830184615463565b92915050565b600080604083850312156154a4576154a361484b565b5b60006154b28582860161495b565b92505060206154c385828601614d56565b9150509250929050565b60006060820190506154e2600083018661491a565b6154ef602083018561491a565b6154fc604083018461491a565b949350505050565b6000806040838503121561551b5761551a61484b565b5b60006155298582860161495b565b925050602061553a85828601614994565b9150509250929050565b6000806000806000608086880312156155605761555f61484b565b5b600061556e8882890161495b565b955050602061557f88828901614994565b945050604086013567ffffffffffffffff8111156155a05761559f614850565b5b6155ac888289016149b8565b9350935050606086013567ffffffffffffffff8111156155cf576155ce614850565b5b6155db88828901614b21565b9150509295509295909350565b600080600080606085870312156156025761560161484b565b5b60006156108782880161495b565b945050602061562187828801614994565b935050604085013567ffffffffffffffff81111561564257615641614850565b5b61564e878288016149b8565b925092505092959194509250565b600067ffffffffffffffff82111561567757615676614a24565b5b61568082614a13565b9050602081019050919050565b60006156a061569b8461565c565b614a84565b9050828152602081018484840111156156bc576156bb614a0e565b5b6156c7848285614ad0565b509392505050565b600082601f8301126156e4576156e36149a9565b5b81356156f484826020860161568d565b91505092915050565b600080600080608085870312156157175761571661484b565b5b600085013567ffffffffffffffff81111561573557615734614850565b5b6157418782880161509c565b945050602085013567ffffffffffffffff81111561576257615761614850565b5b61576e8782880161515f565b935050604085013567ffffffffffffffff81111561578f5761578e614850565b5b61579b87828801615240565b925050606085013567ffffffffffffffff8111156157bc576157bb614850565b5b6157c8878288016156cf565b91505092959194509250565b60006157df82614d0d565b9050919050565b60006157f1826157d4565b9050919050565b615801816157e6565b811461580c57600080fd5b50565b60008135905061581e816157f8565b92915050565b60006020828403121561583a5761583961484b565b5b60006158488482850161580f565b91505092915050565b600080604083850312156158685761586761484b565b5b600061587685828601614d56565b92505060206158878582860161495b565b9150509250929050565b600080600080600060a086880312156158ad576158ac61484b565b5b60006158bb88828901614d56565b95505060206158cc88828901614d56565b945050604086013567ffffffffffffffff8111156158ed576158ec614850565b5b6158f98882890161515f565b935050606086013567ffffffffffffffff81111561591a57615919614850565b5b6159268882890161515f565b925050608086013567ffffffffffffffff81111561594757615946614850565b5b61595388828901614b21565b9150509295509295909350565b60008083601f840112615976576159756149a9565b5b8235905067ffffffffffffffff811115615993576159926149ae565b5b6020830191508360018202830111156159af576159ae6149b3565b5b9250929050565b600080600080606085870312156159d0576159cf61484b565b5b60006159de87828801614d56565b94505060206159ef8782880161495b565b935050604085013567ffffffffffffffff811115615a1057615a0f614850565b5b615a1c87828801615960565b925092505092959194509250565b600081519050919050565b600082825260208201905092915050565b6000819050602082019050919050565b615a5f81615451565b82525050565b606082016000820151615a7b6000850182614dd3565b506020820151615a8e6020850182614dd3565b506040820151615aa16040850182614dd3565b50505050565b600060c083016000830151615abf6000860182614dd3565b5060208301518482036020860152615ad78282614df3565b9150506040830151615aec6040860182615a56565b506060830151615aff6060860182615a65565b508091505092915050565b6000615b168383615aa7565b905092915050565b6000602082019050919050565b6000615b3682615a2a565b615b408185615a35565b935083602082028501615b5285615a46565b8060005b85811015615b8e5784840389528151615b6f8582615b0a565b9450615b7a83615b1e565b925060208a01995050600181019050615b56565b50829750879550505050505092915050565b60006020820190508181036000830152615bba8184615b2b565b905092915050565b615bcb81614d2d565b82525050565b6000602082019050615be66000830184615bc2565b92915050565b600060208284031215615c0257615c0161484b565b5b600082013567ffffffffffffffff811115615c2057615c1f614850565b5b615c2c848285016156cf565b91505092915050565b600081519050919050565b600082825260208201905092915050565b6000819050602082019050919050565b6000606083016000830151615c796000860182614dc4565b5060208301518482036020860152615c918282614df3565b9150506040830151615ca66040860182614dd3565b508091505092915050565b6000615cbd8383615c61565b905092915050565b6000602082019050919050565b6000615cdd82615c35565b615ce78185615c40565b935083602082028501615cf985615c51565b8060005b85811015615d355784840389528151615d168582615cb1565b9450615d2183615cc5565b925060208a01995050600181019050615cfd565b50829750879550505050505092915050565b60006020820190508181036000830152615d618184615cd2565b905092915050565b60008060408385031215615d8057615d7f61484b565b5b6000615d8e85828601614d56565b925050602083013567ffffffffffffffff811115615daf57615dae614850565b5b615dbb858286016156cf565b9150509250929050565b600080600060608486031215615dde57615ddd61484b565b5b6000615dec8682870161495b565b9350506020615dfd8682870161495b565b925050604084013567ffffffffffffffff811115615e1e57615e1d614850565b5b615e2a868287016156cf565b9150509250925092565b600080600080600060a08688031215615e5057615e4f61484b565b5b6000615e5e88828901614d56565b9550506020615e6f88828901614d56565b9450506040615e808882890161495b565b9350506060615e918882890161495b565b925050608086013567ffffffffffffffff811115615eb257615eb1614850565b5b615ebe88828901614b21565b9150509295509295909350565b600081519050919050565b600082825260208201905092915050565b6000819050602082019050919050565b60006080830160008301518482036000860152615f148282614df3565b9150506020830151615f296020860182614dc4565b506040830151615f3c6040860182614dd3565b506060830151615f4f6060860182614dd3565b508091505092915050565b6000615f668383615ef7565b905092915050565b6000602082019050919050565b6000615f8682615ecb565b615f908185615ed6565b935083602082028501615fa285615ee7565b8060005b85811015615fde5784840389528151615fbf8582615f5a565b9450615fca83615f6e565b925060208a01995050600181019050615fa6565b50829750879550505050505092915050565b6000602082019050818103600083015261600a8184615f7b565b905092915050565b600081905092915050565b60006160298385616012565b9350616036838584614ad0565b82840190509392505050565b600061604f82848661601d565b91508190509392505050565b61606481614970565b82525050565b600060a08201905061607f6000830188615356565b61608c602083018761491a565b616099604083018661605b565b6160a66060830185615356565b6160b36080830184615356565b9695505050505050565b7f4e487b7100000000000000000000000000000000000000000000000000000000600052602260045260246000fd5b6000600282049050600182168061610457607f821691505b60208210811415616118576161176160bd565b5b50919050565b7f4e487b7100000000000000000000000000000000000000000000000000000000600052603260045260246000fd5b7f4e487b7100000000000000000000000000000000000000000000000000000000600052601160045260246000fd5b600061618782614910565b915061619283614910565b9250827fffffffffffffffffffffffffffffffffffffffffffffffffffffffffffffffff038211156161c7576161c661614d565b5b828201905092915050565b60006161dd82614910565b91507fffffffffffffffffffffffffffffffffffffffffffffffffffffffffffffffff8214156162105761620f61614d565b5b600182019050919050565b7f476f7665726e6f723a2070726f706f73616c206e6f742073756363657373667560008201527f6c00000000000000000000000000000000000000000000000000000000000000602082015250565b6000616277602183614c6e565b91506162828261621b565b604082019050919050565b600060208201905081810360008301526162a68161626a565b9050919050565b6000815190506162bc81614944565b92915050565b6000602082840312156162d8576162d761484b565b5b60006162e6848285016162ad565b91505092915050565b600081519050919050565b600082825260208201905092915050565b6000819050602082019050919050565b60006163278383614dc4565b60208301905092915050565b6000602082019050919050565b600061634b826162ef565b61635581856162fa565b93506163608361630b565b8060005b83811015616391578151616378888261631b565b975061638383616333565b925050600181019050616364565b5085935050505092915050565b600081519050919050565b600082825260208201905092915050565b6000819050602082019050919050565b60006163d68383614dd3565b60208301905092915050565b6000602082019050919050565b60006163fa8261639e565b61640481856163a9565b935061640f836163ba565b8060005b8381101561644057815161642788826163ca565b9750616432836163e2565b925050600181019050616413565b5085935050505092915050565b600081519050919050565b600082825260208201905092915050565b6000819050602082019050919050565b600081519050919050565b600082825260208201905092915050565b60006164a082616479565b6164aa8185616484565b93506164ba818560208601614c7f565b6164c381614a13565b840191505092915050565b60006164da8383616495565b905092915050565b6000602082019050919050565b60006164fa8261644d565b6165048185616458565b93508360208202850161651685616469565b8060005b85811015616552578484038952815161653385826164ce565b945061653e836164e2565b925060208a0199505060018101905061651a565b50829750879550505050505092915050565b6000819050919050565b60008160001b9050919050565b600061659661659161658c84616564565b61656e565b614b4f565b9050919050565b6165a68161657b565b82525050565b600060a08201905081810360008301526165c68188616340565b905081810360208301526165da81876163ef565b905081810360408301526165ee81866164ef565b90506165fd606083018561659d565b61660a6080830184615356565b9695505050505050565b60008151905061662381614b59565b92915050565b60006020828403121561663f5761663e61484b565b5b600061664d84828501616614565b91505092915050565b600060c08201905081810360008301526166708189616340565b9050818103602083015261668481886163ef565b9050818103604083015261669881876164ef565b90506166a7606083018661659d565b6166b46080830185615356565b6166c160a083018461491a565b979650505050505050565b60006040820190506166e1600083018561491a565b6166ee602083018461491a565b9392505050565b600061670082614910565b915061670b83614910565b9250817fffffffffffffffffffffffffffffffffffffffffffffffffffffffffffffffff04831182151516156167445761674361614d565b5b828202905092915050565b7f4e487b7100000000000000000000000000000000000000000000000000000000600052601260045260246000fd5b600061678982614910565b915061679483614910565b9250826167a4576167a361674f565b5b828204905092915050565b7f476f7665726e6f72436f6e74726163743a204f6e6c792044414f206d656d626560008201527f72732063616e2061636365737320746869732066756e6374696f6e0000000000602082015250565b600061680b603b83614c6e565b9150616816826167af565b604082019050919050565b6000602082019050818103600083015261683a816167fe565b9050919050565b600061684c82614910565b915061685783614910565b92508282101561686a5761686961614d565b5b828203905092915050565b50565b6000616885600083616012565b915061689082616875565b600082019050919050565b60006168a682616878565b9150819050919050565b60006060820190506168c56000830186615356565b6168d2602083018561491a565b6168df604083018461605b565b949350505050565b7f476f7665726e6f723a206f6e6c79476f7665726e616e63650000000000000000600082015250565b600061691d601883614c6e565b9150616928826168e7565b602082019050919050565b6000602082019050818103600083015261694c81616910565b9050919050565b6000608082019050818103600083015261696d8187616340565b9050818103602083015261698181866163ef565b9050818103604083015261699581856164ef565b90506169a46060830184615356565b95945050505050565b7f496e73756666696369656e742046656520746f206170706c7920666f7220612060008201527f706174656e740000000000000000000000000000000000000000000000000000602082015250565b6000616a09602683614c6e565b9150616a14826169ad565b604082019050919050565b60006020820190508181036000830152616a38816169fc565b9050919050565b7f54696d654c6f636b2063616e206f6e6c7920696e766f6b65207468697320667560008201527f6e6374696f6e0000000000000000000000000000000000000000000000000000602082015250565b6000616a9b602683614c6e565b9150616aa682616a3f565b604082019050919050565b60006020820190508181036000830152616aca81616a8e565b9050919050565b7f496e73756666696369656e742046756e647320666f722046616c736520436c6160008201527f696d000000000000000000000000000000000000000000000000000000000000602082015250565b6000616b2d602283614c6e565b9150616b3882616ad1565b604082019050919050565b60006020820190508181036000830152616b5c81616b20565b9050919050565b7f476f7665726e6f723a20766f7465206e6f742063757272656e746c792061637460008201527f6976650000000000000000000000000000000000000000000000000000000000602082015250565b6000616bbf602383614c6e565b9150616bca82616b63565b604082019050919050565b60006020820190508181036000830152616bee81616bb2565b9050919050565b6000608082019050616c0a600083018761491a565b616c17602083018661605b565b616c24604083018561491a565b8181036060830152616c368184614cb2565b905095945050505050565b600082825260208201905092915050565b6000616c5d82616479565b616c678185616c41565b9350616c77818560208601614c7f565b616c8081614a13565b840191505092915050565b600060a082019050616ca0600083018861491a565b616cad602083018761605b565b616cba604083018661491a565b8181036060830152616ccc8185614cb2565b90508181036080830152616ce08184616c52565b90509695505050505050565b616cf5816148da565b8114616d0057600080fd5b50565b600081519050616d1281616cec565b92915050565b600060208284031215616d2e57616d2d61484b565b5b6000616d3c84828501616d03565b91505092915050565b7f476f7665726e6f723a20696e76616c69642070726f706f73616c206c656e677460008201527f6800000000000000000000000000000000000000000000000000000000000000602082015250565b6000616da1602183614c6e565b9150616dac82616d45565b604082019050919050565b60006020820190508181036000830152616dd081616d94565b9050919050565b7f476f7665726e6f723a20656d7074792070726f706f73616c0000000000000000600082015250565b6000616e0d601883614c6e565b9150616e1882616dd7565b602082019050919050565b60006020820190508181036000830152616e3c81616e00565b9050919050565b7f476f7665726e6f723a2070726f706f73616c20616c726561647920657869737460008201527f7300000000000000000000000000000000000000000000000000000000000000602082015250565b6000616e9f602183614c6e565b9150616eaa82616e43565b604082019050919050565b60006020820190508181036000830152616ece81616e92565b9050919050565b600067ffffffffffffffff82169050919050565b6000616ef482616ed5565b9150616eff83616ed5565b92508267ffffffffffffffff03821115616f1c57616f1b61614d565b5b828201905092915050565b600081519050919050565b600082825260208201905092915050565b6000819050602082019050919050565b6000616f5f8383614df3565b905092915050565b6000602082019050919050565b6000616f7f82616f27565b616f898185616f32565b935083602082028501616f9b85616f43565b8060005b85811015616fd75784840389528151616fb88582616f53565b9450616fc383616f67565b925060208a01995050600181019050616f9f565b50829750879550505050505092915050565b6000819050919050565b600061700e61700961700484616ed5565b616fe9565b614910565b9050919050565b61701e81616ff3565b82525050565b60006101208201905061703a600083018c61491a565b617047602083018b615bc2565b8181036040830152617059818a616340565b9050818103606083015261706d81896163ef565b905081810360808301526170818188616f74565b905081810360a083015261709581876164ef565b90506170a460c0830186617015565b6170b160e0830185617015565b8181036101008301526170c48184614cb2565b90509a9950505050505050505050565b60006040820190506170e96000830185615bc2565b6170f66020830184615bc2565b9392505050565b7f476f7665726e6f7253657474696e67733a20766f74696e6720706572696f642060008201527f746f6f206c6f7700000000000000000000000000000000000000000000000000602082015250565b6000617159602783614c6e565b9150617164826170fd565b604082019050919050565b600060208201905081810360008301526171888161714c565b9050919050565b600081905092915050565b7f1901000000000000000000000000000000000000000000000000000000000000600082015250565b60006171d060028361718f565b91506171db8261719a565b600282019050919050565b6000819050919050565b6172016171fc82614b4f565b6171e6565b82525050565b6000617212826171c3565b915061721e82856171f0565b60208201915061722e82846171f0565b6020820191508190509392505050565b60006080820190506172536000830187615356565b617260602083018661605b565b61726d6040830185615356565b61727a6060830184615356565b95945050505050565b7f45434453413a20696e76616c6964207369676e61747572650000000000000000600082015250565b60006172b9601883614c6e565b91506172c482617283565b602082019050919050565b600060208201905081810360008301526172e8816172ac565b9050919050565b7f45434453413a20696e76616c6964207369676e6174757265206c656e67746800600082015250565b6000617325601f83614c6e565b9150617330826172ef565b602082019050919050565b6000602082019050818103600083015261735481617318565b9050919050565b7f45434453413a20696e76616c6964207369676e6174757265202773272076616c60008201527f7565000000000000000000000000000000000000000000000000000000000000602082015250565b60006173b7602283614c6e565b91506173c28261735b565b604082019050919050565b600060208201905081810360008301526173e6816173aa565b9050919050565b7f476f7665726e6f72566f74696e6753696d706c653a20766f746520616c72656160008201527f6479206361737400000000000000000000000000000000000000000000000000602082015250565b6000617449602783614c6e565b9150617454826173ed565b604082019050919050565b600060208201905081810360008301526174788161743c565b9050919050565b7f476f7665726e6f72566f74696e6753696d706c653a20696e76616c696420766160008201527f6c756520666f7220656e756d20566f7465547970650000000000000000000000602082015250565b60006174db603583614c6e565b91506174e68261747f565b604082019050919050565b6000602082019050818103600083015261750a816174ce565b9050919050565b7f476f7665726e6f723a20756e6b6e6f776e2070726f706f73616c206964000000600082015250565b6000617547601d83614c6e565b915061755282617511565b602082019050919050565b600060208201905081810360008301526175768161753a565b9050919050565b7f53616665436173743a2076616c756520646f65736e27742066697420696e203660008201527f3420626974730000000000000000000000000000000000000000000000000000602082015250565b60006175d9602683614c6e565b91506175e48261757d565b604082019050919050565b60006020820190508181036000830152617608816175cc565b9050919050565b600060a0820190506176246000830188615356565b6176316020830187615356565b61763e6040830186615356565b61764b606083018561491a565b6176586080830184615bc2565b969550505050505056fe476f7665726e6f723a2072656c617920726576657274656420776974686f7574206d657373616765a2646970667358221220b6d052edf7b0066412d7bdb20bedfb556aaab884e8ccfd4309829484795b721c64736f6c63430008090033",
  "linkReferences": {},
  "deployedLinkReferences": {}
}