{
  "_format": "hh-sol-artifact-1",
  "contractName": "GovernorContract",
  "sourceName": "contracts/governance/GovernorContract.sol",
  "abi": [
    {
      "inputs": [
        {
          "internalType": "contract IVotes",
          "name": "_token",
          "type": "address"
        },
        {
          "internalType": "contract TimelockController",
          "name": "_timelock",
          "type": "address"
        },
        {
          "internalType": "uint256",
          "name": "_quorumPercentage",
          "type": "uint256"
        },
        {
          "internalType": "uint256",
          "name": "_votingPeriod",
          "type": "uint256"
        },
        {
          "internalType": "uint256",
          "name": "_votingDelay",
          "type": "uint256"
        }
      ],
      "stateMutability": "nonpayable",
      "type": "constructor"
    },
    {
      "inputs": [],
      "name": "Empty",
      "type": "error"
    },
    {
      "anonymous": false,
      "inputs": [
        {
          "indexed": true,
          "internalType": "uint256",
          "name": "applicationId",
          "type": "uint256"
        },
        {
          "indexed": false,
          "internalType": "address",
          "name": "applicant",
          "type": "address"
        },
        {
          "indexed": false,
          "internalType": "string",
          "name": "metadata",
          "type": "string"
        },
        {
          "indexed": false,
          "internalType": "uint256",
          "name": "timestamp",
          "type": "uint256"
        }
      ],
      "name": "PatentApplied",
      "type": "event"
    },
    {
      "anonymous": false,
      "inputs": [
        {
          "indexed": false,
          "internalType": "uint256",
          "name": "proposalId",
          "type": "uint256"
        }
      ],
      "name": "ProposalCanceled",
      "type": "event"
    },
    {
      "anonymous": false,
      "inputs": [
        {
          "indexed": false,
          "internalType": "uint256",
          "name": "proposalId",
          "type": "uint256"
        },
        {
          "indexed": false,
          "internalType": "address",
          "name": "proposer",
          "type": "address"
        },
        {
          "indexed": false,
          "internalType": "address[]",
          "name": "targets",
          "type": "address[]"
        },
        {
          "indexed": false,
          "internalType": "uint256[]",
          "name": "values",
          "type": "uint256[]"
        },
        {
          "indexed": false,
          "internalType": "string[]",
          "name": "signatures",
          "type": "string[]"
        },
        {
          "indexed": false,
          "internalType": "bytes[]",
          "name": "calldatas",
          "type": "bytes[]"
        },
        {
          "indexed": false,
          "internalType": "uint256",
          "name": "startBlock",
          "type": "uint256"
        },
        {
          "indexed": false,
          "internalType": "uint256",
          "name": "endBlock",
          "type": "uint256"
        },
        {
          "indexed": false,
          "internalType": "string",
          "name": "description",
          "type": "string"
        }
      ],
      "name": "ProposalCreated",
      "type": "event"
    },
    {
      "anonymous": false,
      "inputs": [
        {
          "indexed": false,
          "internalType": "uint256",
          "name": "proposalId",
          "type": "uint256"
        }
      ],
      "name": "ProposalExecuted",
      "type": "event"
    },
    {
      "anonymous": false,
      "inputs": [
        {
          "indexed": false,
          "internalType": "uint256",
          "name": "proposalId",
          "type": "uint256"
        },
        {
          "indexed": false,
          "internalType": "uint256",
          "name": "eta",
          "type": "uint256"
        }
      ],
      "name": "ProposalQueued",
      "type": "event"
    },
    {
      "anonymous": false,
      "inputs": [
        {
          "indexed": false,
          "internalType": "uint256",
          "name": "oldProposalThreshold",
          "type": "uint256"
        },
        {
          "indexed": false,
          "internalType": "uint256",
          "name": "newProposalThreshold",
          "type": "uint256"
        }
      ],
      "name": "ProposalThresholdSet",
      "type": "event"
    },
    {
      "anonymous": false,
      "inputs": [
        {
          "indexed": false,
          "internalType": "uint256",
          "name": "oldQuorumNumerator",
          "type": "uint256"
        },
        {
          "indexed": false,
          "internalType": "uint256",
          "name": "newQuorumNumerator",
          "type": "uint256"
        }
      ],
      "name": "QuorumNumeratorUpdated",
      "type": "event"
    },
    {
      "anonymous": false,
      "inputs": [
        {
          "indexed": false,
          "internalType": "address",
          "name": "oldTimelock",
          "type": "address"
        },
        {
          "indexed": false,
          "internalType": "address",
          "name": "newTimelock",
          "type": "address"
        }
      ],
      "name": "TimelockChange",
      "type": "event"
    },
    {
      "anonymous": false,
      "inputs": [
        {
          "indexed": true,
          "internalType": "address",
          "name": "voter",
          "type": "address"
        },
        {
          "indexed": false,
          "internalType": "uint256",
          "name": "proposalId",
          "type": "uint256"
        },
        {
          "indexed": false,
          "internalType": "uint8",
          "name": "support",
          "type": "uint8"
        },
        {
          "indexed": false,
          "internalType": "uint256",
          "name": "weight",
          "type": "uint256"
        },
        {
          "indexed": false,
          "internalType": "string",
          "name": "reason",
          "type": "string"
        }
      ],
      "name": "VoteCast",
      "type": "event"
    },
    {
      "anonymous": false,
      "inputs": [
        {
          "indexed": true,
          "internalType": "address",
          "name": "voter",
          "type": "address"
        },
        {
          "indexed": false,
          "internalType": "uint256",
          "name": "proposalId",
          "type": "uint256"
        },
        {
          "indexed": false,
          "internalType": "uint8",
          "name": "support",
          "type": "uint8"
        },
        {
          "indexed": false,
          "internalType": "uint256",
          "name": "weight",
          "type": "uint256"
        },
        {
          "indexed": false,
          "internalType": "string",
          "name": "reason",
          "type": "string"
        },
        {
          "indexed": false,
          "internalType": "bytes",
          "name": "params",
          "type": "bytes"
        }
      ],
      "name": "VoteCastWithParams",
      "type": "event"
    },
    {
      "anonymous": false,
      "inputs": [
        {
          "indexed": false,
          "internalType": "uint256",
          "name": "oldVotingDelay",
          "type": "uint256"
        },
        {
          "indexed": false,
          "internalType": "uint256",
          "name": "newVotingDelay",
          "type": "uint256"
        }
      ],
      "name": "VotingDelaySet",
      "type": "event"
    },
    {
      "anonymous": false,
      "inputs": [
        {
          "indexed": false,
          "internalType": "uint256",
          "name": "oldVotingPeriod",
          "type": "uint256"
        },
        {
          "indexed": false,
          "internalType": "uint256",
          "name": "newVotingPeriod",
          "type": "uint256"
        }
      ],
      "name": "VotingPeriodSet",
      "type": "event"
    },
    {
      "inputs": [],
      "name": "APPLICATION_FEE",
      "outputs": [
        {
          "internalType": "uint256",
          "name": "",
          "type": "uint256"
        }
      ],
      "stateMutability": "view",
      "type": "function"
    },
    {
      "inputs": [],
      "name": "BALLOT_TYPEHASH",
      "outputs": [
        {
          "internalType": "bytes32",
          "name": "",
          "type": "bytes32"
        }
      ],
      "stateMutability": "view",
      "type": "function"
    },
    {
      "inputs": [],
      "name": "COUNTING_MODE",
      "outputs": [
        {
          "internalType": "string",
          "name": "",
          "type": "string"
        }
      ],
      "stateMutability": "pure",
      "type": "function"
    },
    {
      "inputs": [],
      "name": "EXTENDED_BALLOT_TYPEHASH",
      "outputs": [
        {
          "internalType": "bytes32",
          "name": "",
          "type": "bytes32"
        }
      ],
      "stateMutability": "view",
      "type": "function"
    },
    {
      "inputs": [],
      "name": "applicationsPointer",
      "outputs": [
        {
          "internalType": "uint256",
          "name": "",
          "type": "uint256"
        }
      ],
      "stateMutability": "view",
      "type": "function"
    },
    {
      "inputs": [
        {
          "internalType": "string",
          "name": "metadataURI",
          "type": "string"
        }
      ],
      "name": "applyPatent",
      "outputs": [],
      "stateMutability": "payable",
      "type": "function"
    },
    {
      "inputs": [
        {
          "internalType": "uint256",
          "name": "proposalId",
          "type": "uint256"
        },
        {
          "internalType": "uint8",
          "name": "support",
          "type": "uint8"
        }
      ],
      "name": "castVote",
      "outputs": [
        {
          "internalType": "uint256",
          "name": "",
          "type": "uint256"
        }
      ],
      "stateMutability": "nonpayable",
      "type": "function"
    },
    {
      "inputs": [
        {
          "internalType": "uint256",
          "name": "proposalId",
          "type": "uint256"
        },
        {
          "internalType": "uint8",
          "name": "support",
          "type": "uint8"
        },
        {
          "internalType": "uint8",
          "name": "v",
          "type": "uint8"
        },
        {
          "internalType": "bytes32",
          "name": "r",
          "type": "bytes32"
        },
        {
          "internalType": "bytes32",
          "name": "s",
          "type": "bytes32"
        }
      ],
      "name": "castVoteBySig",
      "outputs": [
        {
          "internalType": "uint256",
          "name": "",
          "type": "uint256"
        }
      ],
      "stateMutability": "nonpayable",
      "type": "function"
    },
    {
      "inputs": [
        {
          "internalType": "uint256",
          "name": "proposalId",
          "type": "uint256"
        },
        {
          "internalType": "uint8",
          "name": "support",
          "type": "uint8"
        },
        {
          "internalType": "string",
          "name": "reason",
          "type": "string"
        }
      ],
      "name": "castVoteWithReason",
      "outputs": [
        {
          "internalType": "uint256",
          "name": "",
          "type": "uint256"
        }
      ],
      "stateMutability": "nonpayable",
      "type": "function"
    },
    {
      "inputs": [
        {
          "internalType": "uint256",
          "name": "proposalId",
          "type": "uint256"
        },
        {
          "internalType": "uint8",
          "name": "support",
          "type": "uint8"
        },
        {
          "internalType": "string",
          "name": "reason",
          "type": "string"
        },
        {
          "internalType": "bytes",
          "name": "params",
          "type": "bytes"
        }
      ],
      "name": "castVoteWithReasonAndParams",
      "outputs": [
        {
          "internalType": "uint256",
          "name": "",
          "type": "uint256"
        }
      ],
      "stateMutability": "nonpayable",
      "type": "function"
    },
    {
      "inputs": [
        {
          "internalType": "uint256",
          "name": "proposalId",
          "type": "uint256"
        },
        {
          "internalType": "uint8",
          "name": "support",
          "type": "uint8"
        },
        {
          "internalType": "string",
          "name": "reason",
          "type": "string"
        },
        {
          "internalType": "bytes",
          "name": "params",
          "type": "bytes"
        },
        {
          "internalType": "uint8",
          "name": "v",
          "type": "uint8"
        },
        {
          "internalType": "bytes32",
          "name": "r",
          "type": "bytes32"
        },
        {
          "internalType": "bytes32",
          "name": "s",
          "type": "bytes32"
        }
      ],
      "name": "castVoteWithReasonAndParamsBySig",
      "outputs": [
        {
          "internalType": "uint256",
          "name": "",
          "type": "uint256"
        }
      ],
      "stateMutability": "nonpayable",
      "type": "function"
    },
    {
      "inputs": [
        {
          "internalType": "address",
          "name": "",
          "type": "address"
        },
        {
          "internalType": "uint256",
          "name": "",
          "type": "uint256"
        }
      ],
      "name": "claimerToClaims",
      "outputs": [
        {
          "internalType": "bool",
          "name": "",
          "type": "bool"
        }
      ],
      "stateMutability": "view",
      "type": "function"
    },
    {
      "inputs": [
        {
          "internalType": "address[]",
          "name": "targets",
          "type": "address[]"
        },
        {
          "internalType": "uint256[]",
          "name": "values",
          "type": "uint256[]"
        },
        {
          "internalType": "bytes[]",
          "name": "calldatas",
          "type": "bytes[]"
        },
        {
          "internalType": "bytes32",
          "name": "descriptionHash",
          "type": "bytes32"
        }
      ],
      "name": "execute",
      "outputs": [
        {
          "internalType": "uint256",
          "name": "",
          "type": "uint256"
        }
      ],
      "stateMutability": "payable",
      "type": "function"
    },
    {
      "inputs": [
        {
          "internalType": "address",
          "name": "account",
          "type": "address"
        },
        {
          "internalType": "uint256",
          "name": "blockNumber",
          "type": "uint256"
        }
      ],
      "name": "getVotes",
      "outputs": [
        {
          "internalType": "uint256",
          "name": "",
          "type": "uint256"
        }
      ],
      "stateMutability": "view",
      "type": "function"
    },
    {
      "inputs": [
        {
          "internalType": "address",
          "name": "account",
          "type": "address"
        },
        {
          "internalType": "uint256",
          "name": "blockNumber",
          "type": "uint256"
        },
        {
          "internalType": "bytes",
          "name": "params",
          "type": "bytes"
        }
      ],
      "name": "getVotesWithParams",
      "outputs": [
        {
          "internalType": "uint256",
          "name": "",
          "type": "uint256"
        }
      ],
      "stateMutability": "view",
      "type": "function"
    },
    {
      "inputs": [
        {
          "internalType": "uint256",
          "name": "proposalId",
          "type": "uint256"
        },
        {
          "internalType": "address",
          "name": "account",
          "type": "address"
        }
      ],
      "name": "hasVoted",
      "outputs": [
        {
          "internalType": "bool",
          "name": "",
          "type": "bool"
        }
      ],
      "stateMutability": "view",
      "type": "function"
    },
    {
      "inputs": [
        {
          "internalType": "address[]",
          "name": "targets",
          "type": "address[]"
        },
        {
          "internalType": "uint256[]",
          "name": "values",
          "type": "uint256[]"
        },
        {
          "internalType": "bytes[]",
          "name": "calldatas",
          "type": "bytes[]"
        },
        {
          "internalType": "bytes32",
          "name": "descriptionHash",
          "type": "bytes32"
        }
      ],
      "name": "hashProposal",
      "outputs": [
        {
          "internalType": "uint256",
          "name": "",
          "type": "uint256"
        }
      ],
      "stateMutability": "pure",
      "type": "function"
    },
    {
      "inputs": [],
      "name": "name",
      "outputs": [
        {
          "internalType": "string",
          "name": "",
          "type": "string"
        }
      ],
      "stateMutability": "view",
      "type": "function"
    },
    {
      "inputs": [
        {
          "internalType": "address",
          "name": "",
          "type": "address"
        },
        {
          "internalType": "address",
          "name": "",
          "type": "address"
        },
        {
          "internalType": "uint256[]",
          "name": "",
          "type": "uint256[]"
        },
        {
          "internalType": "uint256[]",
          "name": "",
          "type": "uint256[]"
        },
        {
          "internalType": "bytes",
          "name": "",
          "type": "bytes"
        }
      ],
      "name": "onERC1155BatchReceived",
      "outputs": [
        {
          "internalType": "bytes4",
          "name": "",
          "type": "bytes4"
        }
      ],
      "stateMutability": "nonpayable",
      "type": "function"
    },
    {
      "inputs": [
        {
          "internalType": "address",
          "name": "",
          "type": "address"
        },
        {
          "internalType": "address",
          "name": "",
          "type": "address"
        },
        {
          "internalType": "uint256",
          "name": "",
          "type": "uint256"
        },
        {
          "internalType": "uint256",
          "name": "",
          "type": "uint256"
        },
        {
          "internalType": "bytes",
          "name": "",
          "type": "bytes"
        }
      ],
      "name": "onERC1155Received",
      "outputs": [
        {
          "internalType": "bytes4",
          "name": "",
          "type": "bytes4"
        }
      ],
      "stateMutability": "nonpayable",
      "type": "function"
    },
    {
      "inputs": [
        {
          "internalType": "address",
          "name": "",
          "type": "address"
        },
        {
          "internalType": "address",
          "name": "",
          "type": "address"
        },
        {
          "internalType": "uint256",
          "name": "",
          "type": "uint256"
        },
        {
          "internalType": "bytes",
          "name": "",
          "type": "bytes"
        }
      ],
      "name": "onERC721Received",
      "outputs": [
        {
          "internalType": "bytes4",
          "name": "",
          "type": "bytes4"
        }
      ],
      "stateMutability": "nonpayable",
      "type": "function"
    },
    {
      "inputs": [
        {
          "internalType": "uint256",
          "name": "proposalId",
          "type": "uint256"
        }
      ],
      "name": "proposalDeadline",
      "outputs": [
        {
          "internalType": "uint256",
          "name": "",
          "type": "uint256"
        }
      ],
      "stateMutability": "view",
      "type": "function"
    },
    {
      "inputs": [
        {
          "internalType": "uint256",
          "name": "proposalId",
          "type": "uint256"
        }
      ],
      "name": "proposalEta",
      "outputs": [
        {
          "internalType": "uint256",
          "name": "",
          "type": "uint256"
        }
      ],
      "stateMutability": "view",
      "type": "function"
    },
    {
      "inputs": [
        {
          "internalType": "uint256",
          "name": "proposalId",
          "type": "uint256"
        }
      ],
      "name": "proposalSnapshot",
      "outputs": [
        {
          "internalType": "uint256",
          "name": "",
          "type": "uint256"
        }
      ],
      "stateMutability": "view",
      "type": "function"
    },
    {
      "inputs": [],
      "name": "proposalThreshold",
      "outputs": [
        {
          "internalType": "uint256",
          "name": "",
          "type": "uint256"
        }
      ],
      "stateMutability": "pure",
      "type": "function"
    },
    {
      "inputs": [
        {
          "internalType": "uint256",
          "name": "proposalId",
          "type": "uint256"
        }
      ],
      "name": "proposalVotes",
      "outputs": [
        {
          "internalType": "uint256",
          "name": "againstVotes",
          "type": "uint256"
        },
        {
          "internalType": "uint256",
          "name": "forVotes",
          "type": "uint256"
        },
        {
          "internalType": "uint256",
          "name": "abstainVotes",
          "type": "uint256"
        }
      ],
      "stateMutability": "view",
      "type": "function"
    },
    {
      "inputs": [
        {
          "internalType": "address[]",
          "name": "targets",
          "type": "address[]"
        },
        {
          "internalType": "uint256[]",
          "name": "values",
          "type": "uint256[]"
        },
        {
          "internalType": "bytes[]",
          "name": "calldatas",
          "type": "bytes[]"
        },
        {
          "internalType": "string",
          "name": "description",
          "type": "string"
        }
      ],
      "name": "propose",
      "outputs": [
        {
          "internalType": "uint256",
          "name": "",
          "type": "uint256"
        }
      ],
      "stateMutability": "nonpayable",
      "type": "function"
    },
    {
      "inputs": [
        {
          "internalType": "address[]",
          "name": "targets",
          "type": "address[]"
        },
        {
          "internalType": "uint256[]",
          "name": "values",
          "type": "uint256[]"
        },
        {
          "internalType": "bytes[]",
          "name": "calldatas",
          "type": "bytes[]"
        },
        {
          "internalType": "bytes32",
          "name": "descriptionHash",
          "type": "bytes32"
        }
      ],
      "name": "queue",
      "outputs": [
        {
          "internalType": "uint256",
          "name": "",
          "type": "uint256"
        }
      ],
      "stateMutability": "nonpayable",
      "type": "function"
    },
    {
      "inputs": [
        {
          "internalType": "uint256",
          "name": "blockNumber",
          "type": "uint256"
        }
      ],
      "name": "quorum",
      "outputs": [
        {
          "internalType": "uint256",
          "name": "",
          "type": "uint256"
        }
      ],
      "stateMutability": "view",
      "type": "function"
    },
    {
      "inputs": [],
      "name": "quorumDenominator",
      "outputs": [
        {
          "internalType": "uint256",
          "name": "",
          "type": "uint256"
        }
      ],
      "stateMutability": "view",
      "type": "function"
    },
    {
      "inputs": [
        {
          "internalType": "uint256",
          "name": "blockNumber",
          "type": "uint256"
        }
      ],
      "name": "quorumNumerator",
      "outputs": [
        {
          "internalType": "uint256",
          "name": "",
          "type": "uint256"
        }
      ],
      "stateMutability": "view",
      "type": "function"
    },
    {
      "inputs": [],
      "name": "quorumNumerator",
      "outputs": [
        {
          "internalType": "uint256",
          "name": "",
          "type": "uint256"
        }
      ],
      "stateMutability": "view",
      "type": "function"
    },
    {
      "inputs": [
        {
          "internalType": "address",
          "name": "target",
          "type": "address"
        },
        {
          "internalType": "uint256",
          "name": "value",
          "type": "uint256"
        },
        {
          "internalType": "bytes",
          "name": "data",
          "type": "bytes"
        }
      ],
      "name": "relay",
      "outputs": [],
      "stateMutability": "payable",
      "type": "function"
    },
    {
      "inputs": [
        {
          "internalType": "uint256",
          "name": "newProposalThreshold",
          "type": "uint256"
        }
      ],
      "name": "setProposalThreshold",
      "outputs": [],
      "stateMutability": "nonpayable",
      "type": "function"
    },
    {
      "inputs": [
        {
          "internalType": "uint256",
          "name": "newVotingDelay",
          "type": "uint256"
        }
      ],
      "name": "setVotingDelay",
      "outputs": [],
      "stateMutability": "nonpayable",
      "type": "function"
    },
    {
      "inputs": [
        {
          "internalType": "uint256",
          "name": "newVotingPeriod",
          "type": "uint256"
        }
      ],
      "name": "setVotingPeriod",
      "outputs": [],
      "stateMutability": "nonpayable",
      "type": "function"
    },
    {
      "inputs": [
        {
          "internalType": "uint256",
          "name": "proposalId",
          "type": "uint256"
        }
      ],
      "name": "state",
      "outputs": [
        {
          "internalType": "enum IGovernor.ProposalState",
          "name": "",
          "type": "uint8"
        }
      ],
      "stateMutability": "view",
      "type": "function"
    },
    {
      "inputs": [
        {
          "internalType": "bytes4",
          "name": "interfaceId",
          "type": "bytes4"
        }
      ],
      "name": "supportsInterface",
      "outputs": [
        {
          "internalType": "bool",
          "name": "",
          "type": "bool"
        }
      ],
      "stateMutability": "view",
      "type": "function"
    },
    {
      "inputs": [],
      "name": "timelock",
      "outputs": [
        {
          "internalType": "address",
          "name": "",
          "type": "address"
        }
      ],
      "stateMutability": "view",
      "type": "function"
    },
    {
      "inputs": [],
      "name": "token",
      "outputs": [
        {
          "internalType": "contract IVotes",
          "name": "",
          "type": "address"
        }
      ],
      "stateMutability": "view",
      "type": "function"
    },
    {
      "inputs": [],
      "name": "treasury",
      "outputs": [
        {
          "internalType": "uint256",
          "name": "",
          "type": "uint256"
        }
      ],
      "stateMutability": "view",
      "type": "function"
    },
    {
      "inputs": [
        {
          "internalType": "uint256",
          "name": "newQuorumNumerator",
          "type": "uint256"
        }
      ],
      "name": "updateQuorumNumerator",
      "outputs": [],
      "stateMutability": "nonpayable",
      "type": "function"
    },
    {
      "inputs": [
        {
          "internalType": "contract TimelockController",
          "name": "newTimelock",
          "type": "address"
        }
      ],
      "name": "updateTimelock",
      "outputs": [],
      "stateMutability": "nonpayable",
      "type": "function"
    },
    {
      "inputs": [
        {
          "internalType": "address",
          "name": "",
          "type": "address"
        },
        {
          "internalType": "uint256",
          "name": "",
          "type": "uint256"
        }
      ],
      "name": "verifierToApplication",
      "outputs": [
        {
          "internalType": "bool",
          "name": "",
          "type": "bool"
        }
      ],
      "stateMutability": "view",
      "type": "function"
    },
    {
      "inputs": [],
      "name": "version",
      "outputs": [
        {
          "internalType": "string",
          "name": "",
          "type": "string"
        }
      ],
      "stateMutability": "view",
      "type": "function"
    },
    {
      "inputs": [],
      "name": "votingDelay",
      "outputs": [
        {
          "internalType": "uint256",
          "name": "",
          "type": "uint256"
        }
      ],
      "stateMutability": "view",
      "type": "function"
    },
    {
      "inputs": [],
      "name": "votingPeriod",
      "outputs": [
        {
          "internalType": "uint256",
          "name": "",
          "type": "uint256"
        }
      ],
      "stateMutability": "view",
      "type": "function"
    },
    {
      "stateMutability": "payable",
      "type": "receive"
    }
  ],
  "bytecode": "0x6101606040523480156200001257600080fd5b50604051620085de380380620085de833981810160405281019062000038919062000ceb565b838386838560006040518060400160405280601081526020017f476f7665726e6f72436f6e7472616374000000000000000000000000000000008152508062000086620001e660201b60201c565b60008280519060200120905060008280519060200120905060007f8b73c3c69bb8fe3d512ecc4cf759cc79239f7b179b0ffacaa9a75d522b39400f90508260e081815250508161010081815250504660a08181525050620000ef8184846200022360201b60201c565b608081815250503073ffffffffffffffffffffffffffffffffffffffff1660c08173ffffffffffffffffffffffffffffffffffffffff16815250508061012081815250505050505050806000908162000149919062000fe3565b50506200015c836200025f60201b60201c565b6200016d82620002a660201b60201c565b6200017e816200033360201b60201c565b5050508073ffffffffffffffffffffffffffffffffffffffff166101408173ffffffffffffffffffffffffffffffffffffffff168152505050620001c8816200037a60201b60201c565b50620001da816200055960201b60201c565b50505050505062001531565b60606040518060400160405280600181526020017f3100000000000000000000000000000000000000000000000000000000000000815250905090565b600083838346306040516020016200024095949392919062001107565b6040516020818303038152906040528051906020012090509392505050565b7fc565b045403dc03c2eea82b81a0465edad9e2e7fc4d97e11421c209da93d7a93600454826040516200029492919062001164565b60405180910390a18060048190555050565b60008111620002ec576040517f08c379a0000000000000000000000000000000000000000000000000000000008152600401620002e39062001218565b60405180910390fd5b7f7e3f7f0708a84de9203036abaa450dccc85ad5ff52f78c170f3edb55cf5e8828600554826040516200032192919062001164565b60405180910390a18060058190555050565b7fccb45da8d5717e6c4544694297c4ba5cf151d455c9bb0ed4fc7a38411bc05461600654826040516200036892919062001164565b60405180910390a18060068190555050565b6200038a620005fa60201b60201c565b811115620003cf576040517f08c379a0000000000000000000000000000000000000000000000000000000008152600401620003c690620012d6565b60405180910390fd5b6000620003e16200060360201b60201c565b905060008114158015620003fd57506000600960000180549050145b15620004fd5760096000016040518060400160405280600063ffffffff16815260200162000436846200065960201b620021f41760201c565b7bffffffffffffffffffffffffffffffffffffffffffffffffffffffff168152509080600181540180825580915050600190039060005260206000200160009091909190915060008201518160000160006101000a81548163ffffffff021916908363ffffffff16021790555060208201518160000160046101000a8154817bffffffffffffffffffffffffffffffffffffffffffffffffffffffff02191690837bffffffffffffffffffffffffffffffffffffffffffffffffffffffff16021790555050505b62000518826009620006c760201b6200225f1790919060201c565b50507f0553476bf02ef2726e8ce5ced78d63e26e602e4a2257b1f559418e24b463399781836040516200054d92919062001164565b60405180910390a15050565b7f08f74ea46ef7894f65eabfb5e6e695de773a000b47c529ab559178069b226401600a60009054906101000a900473ffffffffffffffffffffffffffffffffffffffff1682604051620005ae929190620012f8565b60405180910390a180600a60006101000a81548173ffffffffffffffffffffffffffffffffffffffff021916908373ffffffffffffffffffffffffffffffffffffffff16021790555050565b60006064905090565b6000806009600001805490501462000650576200062c60096200075760201b620022cd1760201c565b7bffffffffffffffffffffffffffffffffffffffffffffffffffffffff1662000654565b6008545b905090565b60007bffffffffffffffffffffffffffffffffffffffffffffffffffffffff8016821115620006bf576040517f08c379a0000000000000000000000000000000000000000000000000000000008152600401620006b6906200139b565b60405180910390fd5b819050919050565b6000806200070a84600001620006e843620007cd60201b620023371760201c565b620006fe866200065960201b620021f41760201c565b6200082360201b60201c565b817bffffffffffffffffffffffffffffffffffffffffffffffffffffffff169150807bffffffffffffffffffffffffffffffffffffffffffffffffffffffff169050915091509250929050565b6000808260000180549050905060008114620007c2576200079083600001600183620007849190620013ec565b62000bc460201b60201c565b60000160049054906101000a90047bffffffffffffffffffffffffffffffffffffffffffffffffffffffff16620007c5565b60005b915050919050565b600063ffffffff80168211156200081b576040517f08c379a000000000000000000000000000000000000000000000000000000000815260040162000812906200149d565b60405180910390fd5b819050919050565b600080600085805490509050600081111562000ad45760006200085b876001846200084f9190620013ec565b62000bc460201b60201c565b6040518060400160405290816000820160009054906101000a900463ffffffff1663ffffffff1663ffffffff1681526020016000820160049054906101000a90047bffffffffffffffffffffffffffffffffffffffffffffffffffffffff167bffffffffffffffffffffffffffffffffffffffffffffffffffffffff167bffffffffffffffffffffffffffffffffffffffffffffffffffffffff168152505090508563ffffffff16816000015163ffffffff16111562000952576040517f08c379a000000000000000000000000000000000000000000000000000000000815260040162000949906200150f565b60405180910390fd5b8563ffffffff16816000015163ffffffff1603620009e257846200098b886001856200097f9190620013ec565b62000bc460201b60201c565b60000160046101000a8154817bffffffffffffffffffffffffffffffffffffffffffffffffffffffff02191690837bffffffffffffffffffffffffffffffffffffffffffffffffffffffff16021790555062000ac2565b8660405180604001604052808863ffffffff168152602001877bffffffffffffffffffffffffffffffffffffffffffffffffffffffff168152509080600181540180825580915050600190039060005260206000200160009091909190915060008201518160000160006101000a81548163ffffffff021916908363ffffffff16021790555060208201518160000160046101000a8154817bffffffffffffffffffffffffffffffffffffffffffffffffffffffff02191690837bffffffffffffffffffffffffffffffffffffffffffffffffffffffff16021790555050505b80602001518593509350505062000bbc565b8560405180604001604052808763ffffffff168152602001867bffffffffffffffffffffffffffffffffffffffffffffffffffffffff168152509080600181540180825580915050600190039060005260206000200160009091909190915060008201518160000160006101000a81548163ffffffff021916908363ffffffff16021790555060208201518160000160046101000a8154817bffffffffffffffffffffffffffffffffffffffffffffffffffffffff02191690837bffffffffffffffffffffffffffffffffffffffffffffffffffffffff160217905550505060008492509250505b935093915050565b60008260005281602060002001905092915050565b600080fd5b600073ffffffffffffffffffffffffffffffffffffffff82169050919050565b600062000c0b8262000bde565b9050919050565b600062000c1f8262000bfe565b9050919050565b62000c318162000c12565b811462000c3d57600080fd5b50565b60008151905062000c518162000c26565b92915050565b600062000c648262000bde565b9050919050565b600062000c788262000c57565b9050919050565b62000c8a8162000c6b565b811462000c9657600080fd5b50565b60008151905062000caa8162000c7f565b92915050565b6000819050919050565b62000cc58162000cb0565b811462000cd157600080fd5b50565b60008151905062000ce58162000cba565b92915050565b600080600080600060a0868803121562000d0a5762000d0962000bd9565b5b600062000d1a8882890162000c40565b955050602062000d2d8882890162000c99565b945050604062000d408882890162000cd4565b935050606062000d538882890162000cd4565b925050608062000d668882890162000cd4565b9150509295509295909350565b600081519050919050565b7f4e487b7100000000000000000000000000000000000000000000000000000000600052604160045260246000fd5b7f4e487b7100000000000000000000000000000000000000000000000000000000600052602260045260246000fd5b6000600282049050600182168062000df557607f821691505b60208210810362000e0b5762000e0a62000dad565b5b50919050565b60008190508160005260206000209050919050565b60006020601f8301049050919050565b600082821b905092915050565b60006008830262000e757fffffffffffffffffffffffffffffffffffffffffffffffffffffffffffffffff8262000e36565b62000e81868362000e36565b95508019841693508086168417925050509392505050565b6000819050919050565b600062000ec462000ebe62000eb88462000cb0565b62000e99565b62000cb0565b9050919050565b6000819050919050565b62000ee08362000ea3565b62000ef862000eef8262000ecb565b84845462000e43565b825550505050565b600090565b62000f0f62000f00565b62000f1c81848462000ed5565b505050565b5b8181101562000f445762000f3860008262000f05565b60018101905062000f22565b5050565b601f82111562000f935762000f5d8162000e11565b62000f688462000e26565b8101602085101562000f78578190505b62000f9062000f878562000e26565b83018262000f21565b50505b505050565b600082821c905092915050565b600062000fb86000198460080262000f98565b1980831691505092915050565b600062000fd3838362000fa5565b9150826002028217905092915050565b62000fee8262000d73565b67ffffffffffffffff8111156200100a576200100962000d7e565b5b62001016825462000ddc565b6200102382828562000f48565b600060209050601f8311600181146200105b576000841562001046578287015190505b62001052858262000fc5565b865550620010c2565b601f1984166200106b8662000e11565b60005b8281101562001095578489015182556001820191506020850194506020810190506200106e565b86831015620010b55784890151620010b1601f89168262000fa5565b8355505b6001600288020188555050505b505050505050565b6000819050919050565b620010df81620010ca565b82525050565b620010f08162000cb0565b82525050565b620011018162000bfe565b82525050565b600060a0820190506200111e6000830188620010d4565b6200112d6020830187620010d4565b6200113c6040830186620010d4565b6200114b6060830185620010e5565b6200115a6080830184620010f6565b9695505050505050565b60006040820190506200117b6000830185620010e5565b6200118a6020830184620010e5565b9392505050565b600082825260208201905092915050565b7f476f7665726e6f7253657474696e67733a20766f74696e6720706572696f642060008201527f746f6f206c6f7700000000000000000000000000000000000000000000000000602082015250565b60006200120060278362001191565b91506200120d82620011a2565b604082019050919050565b600060208201905081810360008301526200123381620011f1565b9050919050565b7f476f7665726e6f72566f74657351756f72756d4672616374696f6e3a2071756f60008201527f72756d4e756d657261746f72206f7665722071756f72756d44656e6f6d696e6160208201527f746f720000000000000000000000000000000000000000000000000000000000604082015250565b6000620012be60438362001191565b9150620012cb826200123a565b606082019050919050565b60006020820190508181036000830152620012f181620012af565b9050919050565b60006040820190506200130f6000830185620010f6565b6200131e6020830184620010f6565b9392505050565b7f53616665436173743a2076616c756520646f65736e27742066697420696e203260008201527f3234206269747300000000000000000000000000000000000000000000000000602082015250565b60006200138360278362001191565b9150620013908262001325565b604082019050919050565b60006020820190508181036000830152620013b68162001374565b9050919050565b7f4e487b7100000000000000000000000000000000000000000000000000000000600052601160045260246000fd5b6000620013f98262000cb0565b9150620014068362000cb0565b9250828203905081811115620014215762001420620013bd565b5b92915050565b7f53616665436173743a2076616c756520646f65736e27742066697420696e203360008201527f3220626974730000000000000000000000000000000000000000000000000000602082015250565b60006200148560268362001191565b9150620014928262001427565b604082019050919050565b60006020820190508181036000830152620014b88162001476565b9050919050565b7f436865636b706f696e743a20696e76616c6964206b6579000000000000000000600082015250565b6000620014f760178362001191565b91506200150482620014bf565b602082019050919050565b600060208201905081810360008301526200152a81620014e8565b9050919050565b60805160a05160c05160e0516101005161012051610140516170446200159a600039600081816121a30152818161307a01526132dc0152600061393d0152600061397f0152600061395e01526000613893015260006138e90152600061391201526170446000f3fe60806040526004361061028c5760003560e01c80637d5e81e21161015a578063c59057e4116100c1578063eb9019d41161007a578063eb9019d414610b03578063ece40cc114610b40578063f23a6e6114610b69578063f8ce560a14610ba6578063fc0c546a14610be3578063ff7f320114610c0e576102d2565b8063c59057e414610a00578063d33219b414610a3d578063d7b6e9d414610a68578063dd4e2ba514610a84578063deaaa7cc14610aaf578063ea0217cf14610ada576102d2565b8063ab58fb8e11610113578063ab58fb8e146108d7578063b58131b014610914578063bc197c811461093f578063bed37c511461097c578063c01f9e37146109a7578063c28bc2fa146109e4576102d2565b80637d5e81e2146107b35780638ef86c73146107f057806397c3d3341461081b5780639a802a6d14610846578063a7713a7014610883578063a890c910146108ae576102d2565b80633bccf4fd116101fe5780635819f13c116101b75780635819f13c1461066b5780635f398a14146106a857806360c4247f146106e557806361d027b31461072257806370b0f6601461074d5780637b3c71d314610776576102d2565b80633bccf4fd1461050d5780633e4f49e61461054a5780634385963214610587578063544ffc9c146105c457806354fd4d5014610603578063567813881461062e576102d2565b8063150b7a0211610250578063150b7a02146103d0578063160cbed71461040d5780632656227d1461044a5780632d63f6931461047a5780632fe3e261146104b75780633932abb1146104e2576102d2565b806301ffc9a7146102d757806302a251a314610314578063034201811461033f57806306f3f9e61461037c57806306fdde03146103a5576102d2565b366102d2573073ffffffffffffffffffffffffffffffffffffffff166102b0610c4b565b73ffffffffffffffffffffffffffffffffffffffff16146102d057600080fd5b005b600080fd5b3480156102e357600080fd5b506102fe60048036038101906102f9919061442e565b610c5a565b60405161030b9190614476565b60405180910390f35b34801561032057600080fd5b50610329610c6c565b60405161033691906144aa565b60405180910390f35b34801561034b57600080fd5b5061036660048036038101906103619190614706565b610c7b565b60405161037391906144aa565b60405180910390f35b34801561038857600080fd5b506103a3600480360381019061039e91906147e4565b610d60565b005b3480156103b157600080fd5b506103ba610e57565b6040516103c79190614890565b60405180910390f35b3480156103dc57600080fd5b506103f760048036038101906103f29190614910565b610ee9565b60405161040491906149a2565b60405180910390f35b34801561041957600080fd5b50610434600480360381019061042f9190614c24565b610efd565b60405161044191906144aa565b60405180910390f35b610464600480360381019061045f9190614c24565b6111b7565b60405161047191906144aa565b60405180910390f35b34801561048657600080fd5b506104a1600480360381019061049c91906147e4565b611304565b6040516104ae91906144aa565b60405180910390f35b3480156104c357600080fd5b506104cc611372565b6040516104d99190614cee565b60405180910390f35b3480156104ee57600080fd5b506104f7611396565b60405161050491906144aa565b60405180910390f35b34801561051957600080fd5b50610534600480360381019061052f9190614d09565b6113a5565b60405161054191906144aa565b60405180910390f35b34801561055657600080fd5b50610571600480360381019061056c91906147e4565b61142f565b60405161057e9190614dfb565b60405180910390f35b34801561059357600080fd5b506105ae60048036038101906105a99190614e16565b611441565b6040516105bb9190614476565b60405180910390f35b3480156105d057600080fd5b506105eb60048036038101906105e691906147e4565b6114ac565b6040516105fa93929190614e56565b60405180910390f35b34801561060f57600080fd5b506106186114e4565b6040516106259190614890565b60405180910390f35b34801561063a57600080fd5b5061065560048036038101906106509190614e8d565b611521565b60405161066291906144aa565b60405180910390f35b34801561067757600080fd5b50610692600480360381019061068d9190614ecd565b611552565b60405161069f9190614476565b60405180910390f35b3480156106b457600080fd5b506106cf60048036038101906106ca9190614f0d565b611581565b6040516106dc91906144aa565b60405180910390f35b3480156106f157600080fd5b5061070c600480360381019061070791906147e4565b6115eb565b60405161071991906144aa565b60405180910390f35b34801561072e57600080fd5b50610737611737565b60405161074491906144aa565b60405180910390f35b34801561075957600080fd5b50610774600480360381019061076f91906147e4565b61173d565b005b34801561078257600080fd5b5061079d60048036038101906107989190614fb1565b611834565b6040516107aa91906144aa565b60405180910390f35b3480156107bf57600080fd5b506107da60048036038101906107d591906150c6565b61189c565b6040516107e791906144aa565b60405180910390f35b3480156107fc57600080fd5b506108056118b4565b60405161081291906144aa565b60405180910390f35b34801561082757600080fd5b506108306118be565b60405161083d91906144aa565b60405180910390f35b34801561085257600080fd5b5061086d6004803603810190610868919061519d565b6118c7565b60405161087a91906144aa565b60405180910390f35b34801561088f57600080fd5b506108986118dd565b6040516108a591906144aa565b60405180910390f35b3480156108ba57600080fd5b506108d560048036038101906108d0919061525c565b611924565b005b3480156108e357600080fd5b506108fe60048036038101906108f991906147e4565b611a1b565b60405161090b91906144aa565b60405180910390f35b34801561092057600080fd5b50610929611ae8565b60405161093691906144aa565b60405180910390f35b34801561094b57600080fd5b5061096660048036038101906109619190615289565b611af1565b60405161097391906149a2565b60405180910390f35b34801561098857600080fd5b50610991611b06565b60405161099e91906144aa565b60405180910390f35b3480156109b357600080fd5b506109ce60048036038101906109c991906147e4565b611b0c565b6040516109db91906144aa565b60405180910390f35b6109fe60048036038101906109f991906153ae565b611b7a565b005b348015610a0c57600080fd5b50610a276004803603810190610a229190614c24565b611d03565b604051610a3491906144aa565b60405180910390f35b348015610a4957600080fd5b50610a52611d3f565b604051610a5f9190615431565b60405180910390f35b610a826004803603810190610a7d919061544c565b611d69565b005b348015610a9057600080fd5b50610a99611f17565b604051610aa69190614890565b60405180910390f35b348015610abb57600080fd5b50610ac4611f54565b604051610ad19190614cee565b60405180910390f35b348015610ae657600080fd5b50610b016004803603810190610afc91906147e4565b611f78565b005b348015610b0f57600080fd5b50610b2a6004803603810190610b259190614ecd565b61206f565b604051610b3791906144aa565b60405180910390f35b348015610b4c57600080fd5b50610b676004803603810190610b6291906147e4565b612083565b005b348015610b7557600080fd5b50610b906004803603810190610b8b9190615499565b61217a565b604051610b9d91906149a2565b60405180910390f35b348015610bb257600080fd5b50610bcd6004803603810190610bc891906147e4565b61218f565b604051610bda91906144aa565b60405180910390f35b348015610bef57600080fd5b50610bf86121a1565b604051610c05919061558f565b60405180910390f35b348015610c1a57600080fd5b50610c356004803603810190610c309190614ecd565b6121c5565b604051610c429190614476565b60405180910390f35b6000610c5561238a565b905090565b6000610c65826123b4565b9050919050565b6000610c7661242e565b905090565b600080610cfe610cf67fb3b3f3b703cd84ce352197dcff232b1b5d3cfb2025ce47cf04742d0651f1af888c8c8c8c604051610cb79291906155da565b60405180910390208b80519060200120604051602001610cdb959493929190615602565b60405160208183030381529060405280519060200120612438565b868686612452565b9050610d518a828b8b8b8080601f016020809104026020016040519081016040528093929190818152602001838380828437600081840152601f19601f820116905080830192505050505050508a61247d565b91505098975050505050505050565b610d68610c4b565b73ffffffffffffffffffffffffffffffffffffffff16610d86612639565b73ffffffffffffffffffffffffffffffffffffffff1614610ddc576040517f08c379a0000000000000000000000000000000000000000000000000000000008152600401610dd3906156a1565b60405180910390fd5b3073ffffffffffffffffffffffffffffffffffffffff16610dfb610c4b565b73ffffffffffffffffffffffffffffffffffffffff1614610e4b576000610e20612641565b604051610e2e9291906155da565b604051809103902090505b80610e44600261264e565b03610e3957505b610e548161272a565b50565b606060008054610e66906156f0565b80601f0160208091040260200160405190810160405280929190818152602001828054610e92906156f0565b8015610edf5780601f10610eb457610100808354040283529160200191610edf565b820191906000526020600020905b815481529060010190602001808311610ec257829003601f168201915b5050505050905090565b600063150b7a0260e01b9050949350505050565b600080610f0c86868686611d03565b905060046007811115610f2257610f21614d84565b5b610f2b8261142f565b6007811115610f3d57610f3c614d84565b5b14610f7d576040517f08c379a0000000000000000000000000000000000000000000000000000000008152600401610f7490615793565b60405180910390fd5b6000600a60009054906101000a900473ffffffffffffffffffffffffffffffffffffffff1673ffffffffffffffffffffffffffffffffffffffff1663f27a0c926040518163ffffffff1660e01b8152600401602060405180830381865afa158015610fec573d6000803e3d6000fd5b505050506040513d601f19601f8201168201806040525081019061101091906157c8565b9050600a60009054906101000a900473ffffffffffffffffffffffffffffffffffffffff1673ffffffffffffffffffffffffffffffffffffffff1663b1c5f4278888886000896040518663ffffffff1660e01b8152600401611076959493929190615ad0565b602060405180830381865afa158015611093573d6000803e3d6000fd5b505050506040513d601f19601f820116820180604052508101906110b79190615b4d565b600b600084815260200190815260200160002081905550600a60009054906101000a900473ffffffffffffffffffffffffffffffffffffffff1673ffffffffffffffffffffffffffffffffffffffff16638f2a0bb0888888600089876040518763ffffffff1660e01b815260040161113496959493929190615b7a565b600060405180830381600087803b15801561114e57600080fd5b505af1158015611162573d6000803e3d6000fd5b505050507f9a2e42fd6722813d69113e7d0079d3d940171428df7373df9c7f7617cfda28928282426111949190615c1f565b6040516111a2929190615c53565b60405180910390a18192505050949350505050565b6000806111c686868686611d03565b905060006111d38261142f565b9050600460078111156111e9576111e8614d84565b5b8160078111156111fc576111fb614d84565b5b148061122c57506005600781111561121757611216614d84565b5b81600781111561122a57611229614d84565b5b145b61126b576040517f08c379a000000000000000000000000000000000000000000000000000000000815260040161126290615793565b60405180910390fd5b600180600084815260200190815260200160002060020160006101000a81548160ff0219169083151502179055507f712ae1383f79ac853f8d882153778e0260ef8f03b504e2866e0593e04d2b291f826040516112c891906144aa565b60405180910390a16112dd82888888886128de565b6112ea82888888886129c1565b6112f782888888886129d5565b8192505050949350505050565b6000611361600160008481526020019081526020016000206000016040518060200160405290816000820160009054906101000a900467ffffffffffffffff1667ffffffffffffffff1667ffffffffffffffff1681525050612a30565b67ffffffffffffffff169050919050565b7fb3b3f3b703cd84ce352197dcff232b1b5d3cfb2025ce47cf04742d0651f1af8881565b60006113a0612a3e565b905090565b6000806114066113fe7f150214d74d59b7d1e90c73fc22ef3d991dd0a76b046543d4d80ab92d2a50328f89896040516020016113e393929190615c7c565b60405160208183030381529060405280519060200120612438565b868686612452565b905061142387828860405180602001604052806000815250612a48565b91505095945050505050565b600061143a82612a68565b9050919050565b60006007600084815260200190815260200160002060030160008373ffffffffffffffffffffffffffffffffffffffff1673ffffffffffffffffffffffffffffffffffffffff16815260200190815260200160002060009054906101000a900460ff16905092915050565b600080600080600760008681526020019081526020016000209050806000015481600101548260020154935093509350509193909250565b60606040518060400160405280600181526020017f3100000000000000000000000000000000000000000000000000000000000000815250905090565b60008061152c612639565b905061154984828560405180602001604052806000815250612a48565b91505092915050565b60106020528160005260406000206020528060005260406000206000915091509054906101000a900460ff1681565b60008061158c612639565b90506115df87828888888080601f016020809104026020016040519081016040528093929190818152602001838380828437600081840152601f19601f820116905080830192505050505050508761247d565b91505095945050505050565b60008060096000018054905090506000810361160c57600854915050611732565b600060096000016001836116209190615cb3565b8154811061163157611630615ce7565b5b906000526020600020016040518060400160405290816000820160009054906101000a900463ffffffff1663ffffffff1663ffffffff1681526020016000820160049054906101000a90047bffffffffffffffffffffffffffffffffffffffffffffffffffffffff167bffffffffffffffffffffffffffffffffffffffffffffffffffffffff167bffffffffffffffffffffffffffffffffffffffffffffffffffffffff1681525050905083816000015163ffffffff16116117195780602001517bffffffffffffffffffffffffffffffffffffffffffffffffffffffff1692505050611732565b61172d846009612c3b90919063ffffffff16565b925050505b919050565b600c5481565b611745610c4b565b73ffffffffffffffffffffffffffffffffffffffff16611763612639565b73ffffffffffffffffffffffffffffffffffffffff16146117b9576040517f08c379a00000000000000000000000000000000000000000000000000000000081526004016117b0906156a1565b60405180910390fd5b3073ffffffffffffffffffffffffffffffffffffffff166117d8610c4b565b73ffffffffffffffffffffffffffffffffffffffff16146118285760006117fd612641565b60405161180b9291906155da565b604051809103902090505b80611821600261264e565b0361181657505b61183181612d2a565b50565b60008061183f612639565b905061189186828787878080601f016020809104026020016040519081016040528093929190818152602001838380828437600081840152601f19601f82011690508083019250505050505050612a48565b915050949350505050565b60006118aa85858585612d6f565b9050949350505050565b65b5e620f4800081565b60006064905090565b60006118d4848484613076565b90509392505050565b6000806009600001805490501461191b576118f860096122cd565b7bffffffffffffffffffffffffffffffffffffffffffffffffffffffff1661191f565b6008545b905090565b61192c610c4b565b73ffffffffffffffffffffffffffffffffffffffff1661194a612639565b73ffffffffffffffffffffffffffffffffffffffff16146119a0576040517f08c379a0000000000000000000000000000000000000000000000000000000008152600401611997906156a1565b60405180910390fd5b3073ffffffffffffffffffffffffffffffffffffffff166119bf610c4b565b73ffffffffffffffffffffffffffffffffffffffff1614611a0f5760006119e4612641565b6040516119f29291906155da565b604051809103902090505b80611a08600261264e565b036119fd57505b611a188161311d565b50565b600080600a60009054906101000a900473ffffffffffffffffffffffffffffffffffffffff1673ffffffffffffffffffffffffffffffffffffffff1663d45c4435600b6000868152602001908152602001600020546040518263ffffffff1660e01b8152600401611a8c9190614cee565b602060405180830381865afa158015611aa9573d6000803e3d6000fd5b505050506040513d601f19601f82011682018060405250810190611acd91906157c8565b905060018114611add5780611ae0565b60005b915050919050565b60006005905090565b600063bc197c8160e01b905095945050505050565b600e5481565b6000611b69600160008481526020019081526020016000206001016040518060200160405290816000820160009054906101000a900467ffffffffffffffff1667ffffffffffffffff1667ffffffffffffffff1681525050612a30565b67ffffffffffffffff169050919050565b611b82610c4b565b73ffffffffffffffffffffffffffffffffffffffff16611ba0612639565b73ffffffffffffffffffffffffffffffffffffffff1614611bf6576040517f08c379a0000000000000000000000000000000000000000000000000000000008152600401611bed906156a1565b60405180910390fd5b3073ffffffffffffffffffffffffffffffffffffffff16611c15610c4b565b73ffffffffffffffffffffffffffffffffffffffff1614611c65576000611c3a612641565b604051611c489291906155da565b604051809103902090505b80611c5e600261264e565b03611c5357505b6000808573ffffffffffffffffffffffffffffffffffffffff16858585604051611c909291906155da565b60006040518083038185875af1925050503d8060008114611ccd576040519150601f19603f3d011682016040523d82523d6000602084013e611cd2565b606091505b5091509150611cfa8282604051806060016040528060288152602001616fe7602891396131bc565b50505050505050565b600084848484604051602001611d1c9493929190615d16565b6040516020818303038152906040528051906020012060001c9050949350505050565b6000600a60009054906101000a900473ffffffffffffffffffffffffffffffffffffffff16905090565b65b5e620f48000341015611db2576040517f08c379a0000000000000000000000000000000000000000000000000000000008152600401611da990615dbc565b60405180910390fd5b65b5e620f4800034611dc49190615cb3565b600c6000828254611dd59190615c1f565b9250508190555060405180608001604052803373ffffffffffffffffffffffffffffffffffffffff16815260200183838080601f016020809104026020016040519081016040528093929190818152602001838380828437600081840152601f19601f82011690508083019250505050505050815260200142815260200160001515815250600d6000600e54815260200190815260200160002060008201518160000160006101000a81548173ffffffffffffffffffffffffffffffffffffffff021916908373ffffffffffffffffffffffffffffffffffffffff1602179055506020820151816001019081611ecb9190615f7e565b506040820151816002015560608201518160030160006101000a81548160ff0219169083151502179055509050506001600e6000828254611f0c9190615c1f565b925050819055505050565b60606040518060400160405280602081526020017f737570706f72743d627261766f2671756f72756d3d666f722c6162737461696e815250905090565b7f150214d74d59b7d1e90c73fc22ef3d991dd0a76b046543d4d80ab92d2a50328f81565b611f80610c4b565b73ffffffffffffffffffffffffffffffffffffffff16611f9e612639565b73ffffffffffffffffffffffffffffffffffffffff1614611ff4576040517f08c379a0000000000000000000000000000000000000000000000000000000008152600401611feb906156a1565b60405180910390fd5b3073ffffffffffffffffffffffffffffffffffffffff16612013610c4b565b73ffffffffffffffffffffffffffffffffffffffff1614612063576000612038612641565b6040516120469291906155da565b604051809103902090505b8061205c600261264e565b0361205157505b61206c816131de565b50565b600061207b8383613266565b905092915050565b61208b610c4b565b73ffffffffffffffffffffffffffffffffffffffff166120a9612639565b73ffffffffffffffffffffffffffffffffffffffff16146120ff576040517f08c379a00000000000000000000000000000000000000000000000000000000081526004016120f6906156a1565b60405180910390fd5b3073ffffffffffffffffffffffffffffffffffffffff1661211e610c4b565b73ffffffffffffffffffffffffffffffffffffffff161461216e576000612143612641565b6040516121519291906155da565b604051809103902090505b80612167600261264e565b0361215c57505b61217781613282565b50565b600063f23a6e6160e01b905095945050505050565b600061219a826132c7565b9050919050565b7f000000000000000000000000000000000000000000000000000000000000000081565b600f6020528160005260406000206020528060005260406000206000915091509054906101000a900460ff1681565b60007bffffffffffffffffffffffffffffffffffffffffffffffffffffffff8016821115612257576040517f08c379a000000000000000000000000000000000000000000000000000000000815260040161224e906160c2565b60405180910390fd5b819050919050565b6000806122808460000161227243612337565b61227b866121f4565b61338f565b817bffffffffffffffffffffffffffffffffffffffffffffffffffffffff169150807bffffffffffffffffffffffffffffffffffffffffffffffffffffffff169050915091509250929050565b600080826000018054905090506000811461232c576122fb836000016001836122f69190615cb3565b613715565b60000160049054906101000a90047bffffffffffffffffffffffffffffffffffffffffffffffffffffffff1661232f565b60005b915050919050565b600063ffffffff8016821115612382576040517f08c379a000000000000000000000000000000000000000000000000000000000815260040161237990616154565b60405180910390fd5b819050919050565b6000600a60009054906101000a900473ffffffffffffffffffffffffffffffffffffffff16905090565b60007f6e665ced000000000000000000000000000000000000000000000000000000007bffffffffffffffffffffffffffffffffffffffffffffffffffffffff1916827bffffffffffffffffffffffffffffffffffffffffffffffffffffffff1916148061242757506124268261372a565b5b9050919050565b6000600554905090565b600061244b61244561388f565b836139a9565b9050919050565b6000806000612463878787876139dc565b9150915061247081613abe565b8192505050949350505050565b600080600160008881526020019081526020016000209050600160078111156124a9576124a8614d84565b5b6124b28861142f565b60078111156124c4576124c3614d84565b5b14612504576040517f08c379a00000000000000000000000000000000000000000000000000000000081526004016124fb906161e6565b60405180910390fd5b600061256387612553846000016040518060200160405290816000820160009054906101000a900467ffffffffffffffff1667ffffffffffffffff1667ffffffffffffffff1681525050612a30565b67ffffffffffffffff1686613076565b90506125728888888488613c24565b60008451036125d4578673ffffffffffffffffffffffffffffffffffffffff167fb8e138887d0aa13bab447e82de9d5c1777041ecd21ca36ba824ff1e6c07ddda4898884896040516125c79493929190616206565b60405180910390a261262b565b8673ffffffffffffffffffffffffffffffffffffffff167fe2babfbac5889a709b63bb7f598b324e08bc5a4fb9ec647fb3cbc9ec07eb8712898884898960405161262295949392919061629c565b60405180910390a25b809250505095945050505050565b600033905090565b3660008036915091509091565b600061265982613e28565b15612690576040517f3db2a12a00000000000000000000000000000000000000000000000000000000815260040160405180910390fd5b60008260000160009054906101000a9004600f0b905082600101600082600f0b600f0b815260200190815260200160002054915082600101600082600f0b600f0b815260200190815260200160002060009055600181018360000160006101000a8154816fffffffffffffffffffffffffffffffff0219169083600f0b6fffffffffffffffffffffffffffffffff16021790555050919050565b6127326118be565b811115612774576040517f08c379a000000000000000000000000000000000000000000000000000000000815260040161276b90616395565b60405180910390fd5b600061277e6118dd565b90506000811415801561279957506000600960000180549050145b1561288b5760096000016040518060400160405280600063ffffffff1681526020016127c4846121f4565b7bffffffffffffffffffffffffffffffffffffffffffffffffffffffff168152509080600181540180825580915050600190039060005260206000200160009091909190915060008201518160000160006101000a81548163ffffffff021916908363ffffffff16021790555060208201518160000160046101000a8154817bffffffffffffffffffffffffffffffffffffffffffffffffffffffff02191690837bffffffffffffffffffffffffffffffffffffffffffffffffffffffff16021790555050505b61289f82600961225f90919063ffffffff16565b50507f0553476bf02ef2726e8ce5ced78d63e26e602e4a2257b1f559418e24b463399781836040516128d2929190615c53565b60405180910390a15050565b3073ffffffffffffffffffffffffffffffffffffffff166128fd610c4b565b73ffffffffffffffffffffffffffffffffffffffff16146129ba5760005b84518110156129b8573073ffffffffffffffffffffffffffffffffffffffff1685828151811061294e5761294d615ce7565b5b602002602001015173ffffffffffffffffffffffffffffffffffffffff16036129a7576129a683828151811061298757612986615ce7565b5b6020026020010151805190602001206002613e5d90919063ffffffff16565b5b806129b1906163b5565b905061291b565b505b5050505050565b6129ce8585858585613ed9565b5050505050565b3073ffffffffffffffffffffffffffffffffffffffff166129f4610c4b565b73ffffffffffffffffffffffffffffffffffffffff1614612a2957612a196002613e28565b612a2857612a276002613f77565b5b5b5050505050565b600081600001519050919050565b6000600454905090565b6000612a5e85858585612a59613ff8565b61247d565b9050949350505050565b600080612a748361400f565b905060046007811115612a8a57612a89614d84565b5b816007811115612a9d57612a9c614d84565b5b14612aab5780915050612c36565b6000600b60008581526020019081526020016000205490506000801b8103612ad7578192505050612c36565b600a60009054906101000a900473ffffffffffffffffffffffffffffffffffffffff1673ffffffffffffffffffffffffffffffffffffffff16632ab0f529826040518263ffffffff1660e01b8152600401612b329190614cee565b602060405180830381865afa158015612b4f573d6000803e3d6000fd5b505050506040513d601f19601f82011682018060405250810190612b739190616429565b15612b8357600792505050612c36565b600a60009054906101000a900473ffffffffffffffffffffffffffffffffffffffff1673ffffffffffffffffffffffffffffffffffffffff1663584b153e826040518263ffffffff1660e01b8152600401612bde9190614cee565b602060405180830381865afa158015612bfb573d6000803e3d6000fd5b505050506040513d601f19601f82011682018060405250810190612c1f9190616429565b15612c2f57600592505050612c36565b6002925050505b919050565b6000438210612c7f576040517f08c379a0000000000000000000000000000000000000000000000000000000008152600401612c76906164a2565b60405180910390fd5b6000612c8a83612337565b90506000846000018054905090506000612caa8660000184600085614123565b905060008114612cfe57612ccd86600001600183612cc89190615cb3565b613715565b60000160049054906101000a90047bffffffffffffffffffffffffffffffffffffffffffffffffffffffff16612d01565b60005b7bffffffffffffffffffffffffffffffffffffffffffffffffffffffff16935050505092915050565b7fc565b045403dc03c2eea82b81a0465edad9e2e7fc4d97e11421c209da93d7a9360045482604051612d5d929190615c53565b60405180910390a18060048190555050565b6000612d79611ae8565b612d96612d84612639565b600143612d919190615cb3565b61206f565b1015612dd7576040517f08c379a0000000000000000000000000000000000000000000000000000000008152600401612dce90616534565b60405180910390fd5b6000612dec8686868680519060200120611d03565b90508451865114612e32576040517f08c379a0000000000000000000000000000000000000000000000000000000008152600401612e29906165c6565b60405180910390fd5b8351865114612e76576040517f08c379a0000000000000000000000000000000000000000000000000000000008152600401612e6d906165c6565b60405180910390fd5b6000865111612eba576040517f08c379a0000000000000000000000000000000000000000000000000000000008152600401612eb190616632565b60405180910390fd5b6000600160008381526020019081526020016000209050612f1a816000016040518060200160405290816000820160009054906101000a900467ffffffffffffffff1667ffffffffffffffff1667ffffffffffffffff1681525050614196565b612f59576040517f08c379a0000000000000000000000000000000000000000000000000000000008152600401612f50906166c4565b60405180910390fd5b6000612f6b612f66611396565b6141b0565b612f74436141b0565b612f7e91906166f8565b90506000612f92612f8d610c6c565b6141b0565b82612f9d91906166f8565b9050612fb5828460000161420790919063ffffffff16565b612fcb818460010161420790919063ffffffff16565b7f7d84a6263ae0d98d3329bd7b46bb4e8d6f98cd35a7adb45c274c8b7fd5ebd5e084612ff5612639565b8b8b8d5167ffffffffffffffff811115613012576130116145a5565b5b60405190808252806020026020018201604052801561304557816020015b60608152602001906001900390816130305790505b508c88888e60405161305f99989796959493929190616871565b60405180910390a183945050505050949350505050565b60007f000000000000000000000000000000000000000000000000000000000000000073ffffffffffffffffffffffffffffffffffffffff16633a46b1a885856040518363ffffffff1660e01b81526004016130d3929190616921565b602060405180830381865afa1580156130f0573d6000803e3d6000fd5b505050506040513d601f19601f8201168201806040525081019061311491906157c8565b90509392505050565b7f08f74ea46ef7894f65eabfb5e6e695de773a000b47c529ab559178069b226401600a60009054906101000a900473ffffffffffffffffffffffffffffffffffffffff168260405161317092919061694a565b60405180910390a180600a60006101000a81548173ffffffffffffffffffffffffffffffffffffffff021916908373ffffffffffffffffffffffffffffffffffffffff16021790555050565b606083156131cc578290506131d7565b6131d68383614236565b5b9392505050565b60008111613221576040517f08c379a0000000000000000000000000000000000000000000000000000000008152600401613218906169e5565b60405180910390fd5b7f7e3f7f0708a84de9203036abaa450dccc85ad5ff52f78c170f3edb55cf5e882860055482604051613254929190615c53565b60405180910390a18060058190555050565b600061327a8383613275613ff8565b613076565b905092915050565b7fccb45da8d5717e6c4544694297c4ba5cf151d455c9bb0ed4fc7a38411bc05461600654826040516132b5929190615c53565b60405180910390a18060068190555050565b60006132d16118be565b6132da836115eb565b7f000000000000000000000000000000000000000000000000000000000000000073ffffffffffffffffffffffffffffffffffffffff16638e539e8c856040518263ffffffff1660e01b815260040161333391906144aa565b602060405180830381865afa158015613350573d6000803e3d6000fd5b505050506040513d601f19601f8201168201806040525081019061337491906157c8565b61337e9190616a05565b6133889190616a76565b9050919050565b60008060008580549050905060008111156136255760006133bc876001846133b79190615cb3565b613715565b6040518060400160405290816000820160009054906101000a900463ffffffff1663ffffffff1663ffffffff1681526020016000820160049054906101000a90047bffffffffffffffffffffffffffffffffffffffffffffffffffffffff167bffffffffffffffffffffffffffffffffffffffffffffffffffffffff167bffffffffffffffffffffffffffffffffffffffffffffffffffffffff168152505090508563ffffffff16816000015163ffffffff1611156134b0576040517f08c379a00000000000000000000000000000000000000000000000000000000081526004016134a790616af3565b60405180910390fd5b8563ffffffff16816000015163ffffffff160361353457846134de886001856134d99190615cb3565b613715565b60000160046101000a8154817bffffffffffffffffffffffffffffffffffffffffffffffffffffffff02191690837bffffffffffffffffffffffffffffffffffffffffffffffffffffffff160217905550613614565b8660405180604001604052808863ffffffff168152602001877bffffffffffffffffffffffffffffffffffffffffffffffffffffffff168152509080600181540180825580915050600190039060005260206000200160009091909190915060008201518160000160006101000a81548163ffffffff021916908363ffffffff16021790555060208201518160000160046101000a8154817bffffffffffffffffffffffffffffffffffffffffffffffffffffffff02191690837bffffffffffffffffffffffffffffffffffffffffffffffffffffffff16021790555050505b80602001518593509350505061370d565b8560405180604001604052808763ffffffff168152602001867bffffffffffffffffffffffffffffffffffffffffffffffffffffffff168152509080600181540180825580915050600190039060005260206000200160009091909190915060008201518160000160006101000a81548163ffffffff021916908363ffffffff16021790555060208201518160000160046101000a8154817bffffffffffffffffffffffffffffffffffffffffffffffffffffffff02191690837bffffffffffffffffffffffffffffffffffffffffffffffffffffffff160217905550505060008492509250505b935093915050565b60008260005281602060002001905092915050565b6000639a802a6d60e01b630342018160e01b635f398a1460e01b7f79dd796f000000000000000000000000000000000000000000000000000000001818187bffffffffffffffffffffffffffffffffffffffffffffffffffffffff1916827bffffffffffffffffffffffffffffffffffffffffffffffffffffffff1916148061381057507f79dd796f000000000000000000000000000000000000000000000000000000007bffffffffffffffffffffffffffffffffffffffffffffffffffffffff1916827bffffffffffffffffffffffffffffffffffffffffffffffffffffffff1916145b8061387857507f4e2312e0000000000000000000000000000000000000000000000000000000007bffffffffffffffffffffffffffffffffffffffffffffffffffffffff1916827bffffffffffffffffffffffffffffffffffffffffffffffffffffffff1916145b80613888575061388782614286565b5b9050919050565b60007f000000000000000000000000000000000000000000000000000000000000000073ffffffffffffffffffffffffffffffffffffffff163073ffffffffffffffffffffffffffffffffffffffff1614801561390b57507f000000000000000000000000000000000000000000000000000000000000000046145b15613938577f000000000000000000000000000000000000000000000000000000000000000090506139a6565b6139a37f00000000000000000000000000000000000000000000000000000000000000007f00000000000000000000000000000000000000000000000000000000000000007f00000000000000000000000000000000000000000000000000000000000000006142f0565b90505b90565b600082826040516020016139be929190616b8b565b60405160208183030381529060405280519060200120905092915050565b6000807f7fffffffffffffffffffffffffffffff5d576e7357a4501ddfe92f46681b20a08360001c1115613a17576000600391509150613ab5565b600060018787878760405160008152602001604052604051613a3c9493929190616bc2565b6020604051602081039080840390855afa158015613a5e573d6000803e3d6000fd5b505050602060405103519050600073ffffffffffffffffffffffffffffffffffffffff168173ffffffffffffffffffffffffffffffffffffffff1603613aac57600060019250925050613ab5565b80600092509250505b94509492505050565b60006004811115613ad257613ad1614d84565b5b816004811115613ae557613ae4614d84565b5b0315613c215760016004811115613aff57613afe614d84565b5b816004811115613b1257613b11614d84565b5b03613b52576040517f08c379a0000000000000000000000000000000000000000000000000000000008152600401613b4990616c53565b60405180910390fd5b60026004811115613b6657613b65614d84565b5b816004811115613b7957613b78614d84565b5b03613bb9576040517f08c379a0000000000000000000000000000000000000000000000000000000008152600401613bb090616cbf565b60405180910390fd5b60036004811115613bcd57613bcc614d84565b5b816004811115613be057613bdf614d84565b5b03613c20576040517f08c379a0000000000000000000000000000000000000000000000000000000008152600401613c1790616d51565b60405180910390fd5b5b50565b60006007600087815260200190815260200160002090508060030160008673ffffffffffffffffffffffffffffffffffffffff1673ffffffffffffffffffffffffffffffffffffffff16815260200190815260200160002060009054906101000a900460ff1615613cca576040517f08c379a0000000000000000000000000000000000000000000000000000000008152600401613cc190616de3565b60405180910390fd5b60018160030160008773ffffffffffffffffffffffffffffffffffffffff1673ffffffffffffffffffffffffffffffffffffffff16815260200190815260200160002060006101000a81548160ff02191690831515021790555060006002811115613d3857613d37614d84565b5b60ff168460ff1603613d645782816000016000828254613d589190615c1f565b92505081905550613e20565b60016002811115613d7857613d77614d84565b5b60ff168460ff1603613da45782816001016000828254613d989190615c1f565b92505081905550613e1f565b600280811115613db757613db6614d84565b5b60ff168460ff1603613de35782816002016000828254613dd79190615c1f565b92505081905550613e1e565b6040517f08c379a0000000000000000000000000000000000000000000000000000000008152600401613e1590616e75565b60405180910390fd5b5b5b505050505050565b60008160000160009054906101000a9004600f0b600f0b8260000160109054906101000a9004600f0b600f0b13159050919050565b60008260000160109054906101000a9004600f0b90508183600101600083600f0b600f0b815260200190815260200160002081905550600181018360000160106101000a8154816fffffffffffffffffffffffffffffffff0219169083600f0b6fffffffffffffffffffffffffffffffff160217905550505050565b600a60009054906101000a900473ffffffffffffffffffffffffffffffffffffffff1673ffffffffffffffffffffffffffffffffffffffff1663e38335e5348686866000876040518763ffffffff1660e01b8152600401613f3e959493929190615ad0565b6000604051808303818588803b158015613f5757600080fd5b505af1158015613f6b573d6000803e3d6000fd5b50505050505050505050565b60008160000160006101000a8154816fffffffffffffffffffffffffffffffff0219169083600f0b6fffffffffffffffffffffffffffffffff16021790555060008160000160106101000a8154816fffffffffffffffffffffffffffffffff0219169083600f0b6fffffffffffffffffffffffffffffffff16021790555050565b606060405180602001604052806000815250905090565b6000806001600084815260200190815260200160002090508060020160009054906101000a900460ff161561404857600791505061411e565b8060020160019054906101000a900460ff161561406957600291505061411e565b600061407484611304565b9050600081036140b9576040517f08c379a00000000000000000000000000000000000000000000000000000000081526004016140b090616ee1565b60405180910390fd5b4381106140cb5760009250505061411e565b60006140d685611b0c565b90504381106140eb576001935050505061411e565b6140f48561432a565b8015614105575061410485614371565b5b15614116576004935050505061411e565b600393505050505b919050565b60005b8183101561418b57600061413a848461439c565b90508463ffffffff1661414d8783613715565b60000160009054906101000a900463ffffffff1663ffffffff16111561417557809250614185565b6001816141829190615c1f565b93505b50614126565b819050949350505050565b600080826000015167ffffffffffffffff16149050919050565b600067ffffffffffffffff80168211156141ff576040517f08c379a00000000000000000000000000000000000000000000000000000000081526004016141f690616f73565b60405180910390fd5b819050919050565b808260000160006101000a81548167ffffffffffffffff021916908367ffffffffffffffff1602179055505050565b6000825111156142495781518083602001fd5b806040517f08c379a000000000000000000000000000000000000000000000000000000000815260040161427d9190614890565b60405180910390fd5b60007f01ffc9a7000000000000000000000000000000000000000000000000000000007bffffffffffffffffffffffffffffffffffffffffffffffffffffffff1916827bffffffffffffffffffffffffffffffffffffffffffffffffffffffff1916149050919050565b6000838383463060405160200161430b959493929190616f93565b6040516020818303038152906040528051906020012090509392505050565b600080600760008481526020019081526020016000209050806002015481600101546143569190615c1f565b61436761436285611304565b61218f565b1115915050919050565b6000806007600084815260200190815260200160002090508060000154816001015411915050919050565b600060028284186143ad9190616a76565b8284166143ba9190615c1f565b905092915050565b6000604051905090565b600080fd5b600080fd5b60007fffffffff0000000000000000000000000000000000000000000000000000000082169050919050565b61440b816143d6565b811461441657600080fd5b50565b60008135905061442881614402565b92915050565b600060208284031215614444576144436143cc565b5b600061445284828501614419565b91505092915050565b60008115159050919050565b6144708161445b565b82525050565b600060208201905061448b6000830184614467565b92915050565b6000819050919050565b6144a481614491565b82525050565b60006020820190506144bf600083018461449b565b92915050565b6144ce81614491565b81146144d957600080fd5b50565b6000813590506144eb816144c5565b92915050565b600060ff82169050919050565b614507816144f1565b811461451257600080fd5b50565b600081359050614524816144fe565b92915050565b600080fd5b600080fd5b600080fd5b60008083601f84011261454f5761454e61452a565b5b8235905067ffffffffffffffff81111561456c5761456b61452f565b5b60208301915083600182028301111561458857614587614534565b5b9250929050565b600080fd5b6000601f19601f8301169050919050565b7f4e487b7100000000000000000000000000000000000000000000000000000000600052604160045260246000fd5b6145dd82614594565b810181811067ffffffffffffffff821117156145fc576145fb6145a5565b5b80604052505050565b600061460f6143c2565b905061461b82826145d4565b919050565b600067ffffffffffffffff82111561463b5761463a6145a5565b5b61464482614594565b9050602081019050919050565b82818337600083830152505050565b600061467361466e84614620565b614605565b90508281526020810184848401111561468f5761468e61458f565b5b61469a848285614651565b509392505050565b600082601f8301126146b7576146b661452a565b5b81356146c7848260208601614660565b91505092915050565b6000819050919050565b6146e3816146d0565b81146146ee57600080fd5b50565b600081359050614700816146da565b92915050565b60008060008060008060008060e0898b031215614726576147256143cc565b5b60006147348b828c016144dc565b98505060206147458b828c01614515565b975050604089013567ffffffffffffffff811115614766576147656143d1565b5b6147728b828c01614539565b9650965050606089013567ffffffffffffffff811115614795576147946143d1565b5b6147a18b828c016146a2565b94505060806147b28b828c01614515565b93505060a06147c38b828c016146f1565b92505060c06147d48b828c016146f1565b9150509295985092959890939650565b6000602082840312156147fa576147f96143cc565b5b6000614808848285016144dc565b91505092915050565b600081519050919050565b600082825260208201905092915050565b60005b8381101561484b578082015181840152602081019050614830565b60008484015250505050565b600061486282614811565b61486c818561481c565b935061487c81856020860161482d565b61488581614594565b840191505092915050565b600060208201905081810360008301526148aa8184614857565b905092915050565b600073ffffffffffffffffffffffffffffffffffffffff82169050919050565b60006148dd826148b2565b9050919050565b6148ed816148d2565b81146148f857600080fd5b50565b60008135905061490a816148e4565b92915050565b6000806000806080858703121561492a576149296143cc565b5b6000614938878288016148fb565b9450506020614949878288016148fb565b935050604061495a878288016144dc565b925050606085013567ffffffffffffffff81111561497b5761497a6143d1565b5b614987878288016146a2565b91505092959194509250565b61499c816143d6565b82525050565b60006020820190506149b76000830184614993565b92915050565b600067ffffffffffffffff8211156149d8576149d76145a5565b5b602082029050602081019050919050565b60006149fc6149f7846149bd565b614605565b90508083825260208201905060208402830185811115614a1f57614a1e614534565b5b835b81811015614a485780614a3488826148fb565b845260208401935050602081019050614a21565b5050509392505050565b600082601f830112614a6757614a6661452a565b5b8135614a778482602086016149e9565b91505092915050565b600067ffffffffffffffff821115614a9b57614a9a6145a5565b5b602082029050602081019050919050565b6000614abf614aba84614a80565b614605565b90508083825260208201905060208402830185811115614ae257614ae1614534565b5b835b81811015614b0b5780614af788826144dc565b845260208401935050602081019050614ae4565b5050509392505050565b600082601f830112614b2a57614b2961452a565b5b8135614b3a848260208601614aac565b91505092915050565b600067ffffffffffffffff821115614b5e57614b5d6145a5565b5b602082029050602081019050919050565b6000614b82614b7d84614b43565b614605565b90508083825260208201905060208402830185811115614ba557614ba4614534565b5b835b81811015614bec57803567ffffffffffffffff811115614bca57614bc961452a565b5b808601614bd789826146a2565b85526020850194505050602081019050614ba7565b5050509392505050565b600082601f830112614c0b57614c0a61452a565b5b8135614c1b848260208601614b6f565b91505092915050565b60008060008060808587031215614c3e57614c3d6143cc565b5b600085013567ffffffffffffffff811115614c5c57614c5b6143d1565b5b614c6887828801614a52565b945050602085013567ffffffffffffffff811115614c8957614c886143d1565b5b614c9587828801614b15565b935050604085013567ffffffffffffffff811115614cb657614cb56143d1565b5b614cc287828801614bf6565b9250506060614cd3878288016146f1565b91505092959194509250565b614ce8816146d0565b82525050565b6000602082019050614d036000830184614cdf565b92915050565b600080600080600060a08688031215614d2557614d246143cc565b5b6000614d33888289016144dc565b9550506020614d4488828901614515565b9450506040614d5588828901614515565b9350506060614d66888289016146f1565b9250506080614d77888289016146f1565b9150509295509295909350565b7f4e487b7100000000000000000000000000000000000000000000000000000000600052602160045260246000fd5b60088110614dc457614dc3614d84565b5b50565b6000819050614dd582614db3565b919050565b6000614de582614dc7565b9050919050565b614df581614dda565b82525050565b6000602082019050614e106000830184614dec565b92915050565b60008060408385031215614e2d57614e2c6143cc565b5b6000614e3b858286016144dc565b9250506020614e4c858286016148fb565b9150509250929050565b6000606082019050614e6b600083018661449b565b614e78602083018561449b565b614e85604083018461449b565b949350505050565b60008060408385031215614ea457614ea36143cc565b5b6000614eb2858286016144dc565b9250506020614ec385828601614515565b9150509250929050565b60008060408385031215614ee457614ee36143cc565b5b6000614ef2858286016148fb565b9250506020614f03858286016144dc565b9150509250929050565b600080600080600060808688031215614f2957614f286143cc565b5b6000614f37888289016144dc565b9550506020614f4888828901614515565b945050604086013567ffffffffffffffff811115614f6957614f686143d1565b5b614f7588828901614539565b9350935050606086013567ffffffffffffffff811115614f9857614f976143d1565b5b614fa4888289016146a2565b9150509295509295909350565b60008060008060608587031215614fcb57614fca6143cc565b5b6000614fd9878288016144dc565b9450506020614fea87828801614515565b935050604085013567ffffffffffffffff81111561500b5761500a6143d1565b5b61501787828801614539565b925092505092959194509250565b600067ffffffffffffffff8211156150405761503f6145a5565b5b61504982614594565b9050602081019050919050565b600061506961506484615025565b614605565b9050828152602081018484840111156150855761508461458f565b5b615090848285614651565b509392505050565b600082601f8301126150ad576150ac61452a565b5b81356150bd848260208601615056565b91505092915050565b600080600080608085870312156150e0576150df6143cc565b5b600085013567ffffffffffffffff8111156150fe576150fd6143d1565b5b61510a87828801614a52565b945050602085013567ffffffffffffffff81111561512b5761512a6143d1565b5b61513787828801614b15565b935050604085013567ffffffffffffffff811115615158576151576143d1565b5b61516487828801614bf6565b925050606085013567ffffffffffffffff811115615185576151846143d1565b5b61519187828801615098565b91505092959194509250565b6000806000606084860312156151b6576151b56143cc565b5b60006151c4868287016148fb565b93505060206151d5868287016144dc565b925050604084013567ffffffffffffffff8111156151f6576151f56143d1565b5b615202868287016146a2565b9150509250925092565b6000615217826148b2565b9050919050565b60006152298261520c565b9050919050565b6152398161521e565b811461524457600080fd5b50565b60008135905061525681615230565b92915050565b600060208284031215615272576152716143cc565b5b600061528084828501615247565b91505092915050565b600080600080600060a086880312156152a5576152a46143cc565b5b60006152b3888289016148fb565b95505060206152c4888289016148fb565b945050604086013567ffffffffffffffff8111156152e5576152e46143d1565b5b6152f188828901614b15565b935050606086013567ffffffffffffffff811115615312576153116143d1565b5b61531e88828901614b15565b925050608086013567ffffffffffffffff81111561533f5761533e6143d1565b5b61534b888289016146a2565b9150509295509295909350565b60008083601f84011261536e5761536d61452a565b5b8235905067ffffffffffffffff81111561538b5761538a61452f565b5b6020830191508360018202830111156153a7576153a6614534565b5b9250929050565b600080600080606085870312156153c8576153c76143cc565b5b60006153d6878288016148fb565b94505060206153e7878288016144dc565b935050604085013567ffffffffffffffff811115615408576154076143d1565b5b61541487828801615358565b925092505092959194509250565b61542b816148d2565b82525050565b60006020820190506154466000830184615422565b92915050565b60008060208385031215615463576154626143cc565b5b600083013567ffffffffffffffff811115615481576154806143d1565b5b61548d85828601614539565b92509250509250929050565b600080600080600060a086880312156154b5576154b46143cc565b5b60006154c3888289016148fb565b95505060206154d4888289016148fb565b94505060406154e5888289016144dc565b93505060606154f6888289016144dc565b925050608086013567ffffffffffffffff811115615517576155166143d1565b5b615523888289016146a2565b9150509295509295909350565b6000819050919050565b600061555561555061554b846148b2565b615530565b6148b2565b9050919050565b60006155678261553a565b9050919050565b60006155798261555c565b9050919050565b6155898161556e565b82525050565b60006020820190506155a46000830184615580565b92915050565b600081905092915050565b60006155c183856155aa565b93506155ce838584614651565b82840190509392505050565b60006155e78284866155b5565b91508190509392505050565b6155fc816144f1565b82525050565b600060a0820190506156176000830188614cdf565b615624602083018761449b565b61563160408301866155f3565b61563e6060830185614cdf565b61564b6080830184614cdf565b9695505050505050565b7f476f7665726e6f723a206f6e6c79476f7665726e616e63650000000000000000600082015250565b600061568b60188361481c565b915061569682615655565b602082019050919050565b600060208201905081810360008301526156ba8161567e565b9050919050565b7f4e487b7100000000000000000000000000000000000000000000000000000000600052602260045260246000fd5b6000600282049050600182168061570857607f821691505b60208210810361571b5761571a6156c1565b5b50919050565b7f476f7665726e6f723a2070726f706f73616c206e6f742073756363657373667560008201527f6c00000000000000000000000000000000000000000000000000000000000000602082015250565b600061577d60218361481c565b915061578882615721565b604082019050919050565b600060208201905081810360008301526157ac81615770565b9050919050565b6000815190506157c2816144c5565b92915050565b6000602082840312156157de576157dd6143cc565b5b60006157ec848285016157b3565b91505092915050565b600081519050919050565b600082825260208201905092915050565b6000819050602082019050919050565b61582a816148d2565b82525050565b600061583c8383615821565b60208301905092915050565b6000602082019050919050565b6000615860826157f5565b61586a8185615800565b935061587583615811565b8060005b838110156158a657815161588d8882615830565b975061589883615848565b925050600181019050615879565b5085935050505092915050565b600081519050919050565b600082825260208201905092915050565b6000819050602082019050919050565b6158e881614491565b82525050565b60006158fa83836158df565b60208301905092915050565b6000602082019050919050565b600061591e826158b3565b61592881856158be565b9350615933836158cf565b8060005b8381101561596457815161594b88826158ee565b975061595683615906565b925050600181019050615937565b5085935050505092915050565b600081519050919050565b600082825260208201905092915050565b6000819050602082019050919050565b600081519050919050565b600082825260208201905092915050565b60006159c48261599d565b6159ce81856159a8565b93506159de81856020860161482d565b6159e781614594565b840191505092915050565b60006159fe83836159b9565b905092915050565b6000602082019050919050565b6000615a1e82615971565b615a28818561597c565b935083602082028501615a3a8561598d565b8060005b85811015615a765784840389528151615a5785826159f2565b9450615a6283615a06565b925060208a01995050600181019050615a3e565b50829750879550505050505092915050565b6000819050919050565b60008160001b9050919050565b6000615aba615ab5615ab084615a88565b615a92565b6146d0565b9050919050565b615aca81615a9f565b82525050565b600060a0820190508181036000830152615aea8188615855565b90508181036020830152615afe8187615913565b90508181036040830152615b128186615a13565b9050615b216060830185615ac1565b615b2e6080830184614cdf565b9695505050505050565b600081519050615b47816146da565b92915050565b600060208284031215615b6357615b626143cc565b5b6000615b7184828501615b38565b91505092915050565b600060c0820190508181036000830152615b948189615855565b90508181036020830152615ba88188615913565b90508181036040830152615bbc8187615a13565b9050615bcb6060830186615ac1565b615bd86080830185614cdf565b615be560a083018461449b565b979650505050505050565b7f4e487b7100000000000000000000000000000000000000000000000000000000600052601160045260246000fd5b6000615c2a82614491565b9150615c3583614491565b9250828201905080821115615c4d57615c4c615bf0565b5b92915050565b6000604082019050615c68600083018561449b565b615c75602083018461449b565b9392505050565b6000606082019050615c916000830186614cdf565b615c9e602083018561449b565b615cab60408301846155f3565b949350505050565b6000615cbe82614491565b9150615cc983614491565b9250828203905081811115615ce157615ce0615bf0565b5b92915050565b7f4e487b7100000000000000000000000000000000000000000000000000000000600052603260045260246000fd5b60006080820190508181036000830152615d308187615855565b90508181036020830152615d448186615913565b90508181036040830152615d588185615a13565b9050615d676060830184614cdf565b95945050505050565b7f496e73756666696369656e742046656500000000000000000000000000000000600082015250565b6000615da660108361481c565b9150615db182615d70565b602082019050919050565b60006020820190508181036000830152615dd581615d99565b9050919050565b60008190508160005260206000209050919050565b60006020601f8301049050919050565b600082821b905092915050565b600060088302615e3e7fffffffffffffffffffffffffffffffffffffffffffffffffffffffffffffffff82615e01565b615e488683615e01565b95508019841693508086168417925050509392505050565b6000615e7b615e76615e7184614491565b615530565b614491565b9050919050565b6000819050919050565b615e9583615e60565b615ea9615ea182615e82565b848454615e0e565b825550505050565b600090565b615ebe615eb1565b615ec9818484615e8c565b505050565b5b81811015615eed57615ee2600082615eb6565b600181019050615ecf565b5050565b601f821115615f3257615f0381615ddc565b615f0c84615df1565b81016020851015615f1b578190505b615f2f615f2785615df1565b830182615ece565b50505b505050565b600082821c905092915050565b6000615f5560001984600802615f37565b1980831691505092915050565b6000615f6e8383615f44565b9150826002028217905092915050565b615f8782614811565b67ffffffffffffffff811115615fa057615f9f6145a5565b5b615faa82546156f0565b615fb5828285615ef1565b600060209050601f831160018114615fe85760008415615fd6578287015190505b615fe08582615f62565b865550616048565b601f198416615ff686615ddc565b60005b8281101561601e57848901518255600182019150602085019450602081019050615ff9565b8683101561603b5784890151616037601f891682615f44565b8355505b6001600288020188555050505b505050505050565b7f53616665436173743a2076616c756520646f65736e27742066697420696e203260008201527f3234206269747300000000000000000000000000000000000000000000000000602082015250565b60006160ac60278361481c565b91506160b782616050565b604082019050919050565b600060208201905081810360008301526160db8161609f565b9050919050565b7f53616665436173743a2076616c756520646f65736e27742066697420696e203360008201527f3220626974730000000000000000000000000000000000000000000000000000602082015250565b600061613e60268361481c565b9150616149826160e2565b604082019050919050565b6000602082019050818103600083015261616d81616131565b9050919050565b7f476f7665726e6f723a20766f7465206e6f742063757272656e746c792061637460008201527f6976650000000000000000000000000000000000000000000000000000000000602082015250565b60006161d060238361481c565b91506161db82616174565b604082019050919050565b600060208201905081810360008301526161ff816161c3565b9050919050565b600060808201905061621b600083018761449b565b61622860208301866155f3565b616235604083018561449b565b81810360608301526162478184614857565b905095945050505050565b600082825260208201905092915050565b600061626e8261599d565b6162788185616252565b935061628881856020860161482d565b61629181614594565b840191505092915050565b600060a0820190506162b1600083018861449b565b6162be60208301876155f3565b6162cb604083018661449b565b81810360608301526162dd8185614857565b905081810360808301526162f18184616263565b90509695505050505050565b7f476f7665726e6f72566f74657351756f72756d4672616374696f6e3a2071756f60008201527f72756d4e756d657261746f72206f7665722071756f72756d44656e6f6d696e6160208201527f746f720000000000000000000000000000000000000000000000000000000000604082015250565b600061637f60438361481c565b915061638a826162fd565b606082019050919050565b600060208201905081810360008301526163ae81616372565b9050919050565b60006163c082614491565b91507fffffffffffffffffffffffffffffffffffffffffffffffffffffffffffffffff82036163f2576163f1615bf0565b5b600182019050919050565b6164068161445b565b811461641157600080fd5b50565b600081519050616423816163fd565b92915050565b60006020828403121561643f5761643e6143cc565b5b600061644d84828501616414565b91505092915050565b7f436865636b706f696e74733a20626c6f636b206e6f7420796574206d696e6564600082015250565b600061648c60208361481c565b915061649782616456565b602082019050919050565b600060208201905081810360008301526164bb8161647f565b9050919050565b7f476f7665726e6f723a2070726f706f73657220766f7465732062656c6f77207060008201527f726f706f73616c207468726573686f6c64000000000000000000000000000000602082015250565b600061651e60318361481c565b9150616529826164c2565b604082019050919050565b6000602082019050818103600083015261654d81616511565b9050919050565b7f476f7665726e6f723a20696e76616c69642070726f706f73616c206c656e677460008201527f6800000000000000000000000000000000000000000000000000000000000000602082015250565b60006165b060218361481c565b91506165bb82616554565b604082019050919050565b600060208201905081810360008301526165df816165a3565b9050919050565b7f476f7665726e6f723a20656d7074792070726f706f73616c0000000000000000600082015250565b600061661c60188361481c565b9150616627826165e6565b602082019050919050565b6000602082019050818103600083015261664b8161660f565b9050919050565b7f476f7665726e6f723a2070726f706f73616c20616c726561647920657869737460008201527f7300000000000000000000000000000000000000000000000000000000000000602082015250565b60006166ae60218361481c565b91506166b982616652565b604082019050919050565b600060208201905081810360008301526166dd816166a1565b9050919050565b600067ffffffffffffffff82169050919050565b6000616703826166e4565b915061670e836166e4565b9250828201905067ffffffffffffffff81111561672e5761672d615bf0565b5b92915050565b600081519050919050565b600082825260208201905092915050565b6000819050602082019050919050565b600082825260208201905092915050565b600061677c82614811565b6167868185616760565b935061679681856020860161482d565b61679f81614594565b840191505092915050565b60006167b68383616771565b905092915050565b6000602082019050919050565b60006167d682616734565b6167e0818561673f565b9350836020820285016167f285616750565b8060005b8581101561682e578484038952815161680f85826167aa565b945061681a836167be565b925060208a019950506001810190506167f6565b50829750879550505050505092915050565b600061685b616856616851846166e4565b615530565b614491565b9050919050565b61686b81616840565b82525050565b600061012082019050616887600083018c61449b565b616894602083018b615422565b81810360408301526168a6818a615855565b905081810360608301526168ba8189615913565b905081810360808301526168ce81886167cb565b905081810360a08301526168e28187615a13565b90506168f160c0830186616862565b6168fe60e0830185616862565b8181036101008301526169118184614857565b90509a9950505050505050505050565b60006040820190506169366000830185615422565b616943602083018461449b565b9392505050565b600060408201905061695f6000830185615422565b61696c6020830184615422565b9392505050565b7f476f7665726e6f7253657474696e67733a20766f74696e6720706572696f642060008201527f746f6f206c6f7700000000000000000000000000000000000000000000000000602082015250565b60006169cf60278361481c565b91506169da82616973565b604082019050919050565b600060208201905081810360008301526169fe816169c2565b9050919050565b6000616a1082614491565b9150616a1b83614491565b9250828202616a2981614491565b91508282048414831517616a4057616a3f615bf0565b5b5092915050565b7f4e487b7100000000000000000000000000000000000000000000000000000000600052601260045260246000fd5b6000616a8182614491565b9150616a8c83614491565b925082616a9c57616a9b616a47565b5b828204905092915050565b7f436865636b706f696e743a20696e76616c6964206b6579000000000000000000600082015250565b6000616add60178361481c565b9150616ae882616aa7565b602082019050919050565b60006020820190508181036000830152616b0c81616ad0565b9050919050565b600081905092915050565b7f1901000000000000000000000000000000000000000000000000000000000000600082015250565b6000616b54600283616b13565b9150616b5f82616b1e565b600282019050919050565b6000819050919050565b616b85616b80826146d0565b616b6a565b82525050565b6000616b9682616b47565b9150616ba28285616b74565b602082019150616bb28284616b74565b6020820191508190509392505050565b6000608082019050616bd76000830187614cdf565b616be460208301866155f3565b616bf16040830185614cdf565b616bfe6060830184614cdf565b95945050505050565b7f45434453413a20696e76616c6964207369676e61747572650000000000000000600082015250565b6000616c3d60188361481c565b9150616c4882616c07565b602082019050919050565b60006020820190508181036000830152616c6c81616c30565b9050919050565b7f45434453413a20696e76616c6964207369676e6174757265206c656e67746800600082015250565b6000616ca9601f8361481c565b9150616cb482616c73565b602082019050919050565b60006020820190508181036000830152616cd881616c9c565b9050919050565b7f45434453413a20696e76616c6964207369676e6174757265202773272076616c60008201527f7565000000000000000000000000000000000000000000000000000000000000602082015250565b6000616d3b60228361481c565b9150616d4682616cdf565b604082019050919050565b60006020820190508181036000830152616d6a81616d2e565b9050919050565b7f476f7665726e6f72566f74696e6753696d706c653a20766f746520616c72656160008201527f6479206361737400000000000000000000000000000000000000000000000000602082015250565b6000616dcd60278361481c565b9150616dd882616d71565b604082019050919050565b60006020820190508181036000830152616dfc81616dc0565b9050919050565b7f476f7665726e6f72566f74696e6753696d706c653a20696e76616c696420766160008201527f6c756520666f7220656e756d20566f7465547970650000000000000000000000602082015250565b6000616e5f60358361481c565b9150616e6a82616e03565b604082019050919050565b60006020820190508181036000830152616e8e81616e52565b9050919050565b7f476f7665726e6f723a20756e6b6e6f776e2070726f706f73616c206964000000600082015250565b6000616ecb601d8361481c565b9150616ed682616e95565b602082019050919050565b60006020820190508181036000830152616efa81616ebe565b9050919050565b7f53616665436173743a2076616c756520646f65736e27742066697420696e203660008201527f3420626974730000000000000000000000000000000000000000000000000000602082015250565b6000616f5d60268361481c565b9150616f6882616f01565b604082019050919050565b60006020820190508181036000830152616f8c81616f50565b9050919050565b600060a082019050616fa86000830188614cdf565b616fb56020830187614cdf565b616fc26040830186614cdf565b616fcf606083018561449b565b616fdc6080830184615422565b969550505050505056fe476f7665726e6f723a2072656c617920726576657274656420776974686f7574206d657373616765a26469706673582212202874bfe643b1e100ebec585f6a31b8c9322384dd0d7a3579c5d5132d7d49a01564736f6c63430008110033",
  "linkReferences": {},
  "deployedLinkReferences": {}
}